{
  "contractName": "MainMintingContract",
  "abi": [
    {
      "inputs": [
        {
          "internalType": "contract ISuperfluid",
          "name": "host",
          "type": "address"
        },
        {
          "internalType": "contract IConstantFlowAgreementV1",
          "name": "cfa",
          "type": "address"
        },
        {
          "internalType": "contract ISuperTokenFactory",
          "name": "superTokenFactory",
          "type": "address"
        },
        {
          "internalType": "address",
          "name": "emitterAdd",
          "type": "address"
        }
      ],
      "stateMutability": "nonpayable",
      "type": "constructor"
    },
    {
      "anonymous": false,
      "inputs": [
        {
          "indexed": false,
          "internalType": "address",
          "name": "owner",
          "type": "address"
        },
        {
          "indexed": false,
          "internalType": "address",
          "name": "tokenAddress",
          "type": "address"
        },
        {
          "indexed": false,
          "internalType": "string",
          "name": "name",
          "type": "string"
        },
        {
          "indexed": false,
          "internalType": "string",
          "name": "symbol",
          "type": "string"
        },
        {
          "indexed": false,
          "internalType": "uint256",
          "name": "total_supply",
          "type": "uint256"
        }
      ],
      "name": "SocialTokenCreated",
      "type": "event"
    },
    {
      "inputs": [
        {
          "internalType": "address",
          "name": "",
          "type": "address"
        }
      ],
      "name": "_hasToken",
      "outputs": [
        {
          "internalType": "bool",
          "name": "",
          "type": "bool"
        }
      ],
      "stateMutability": "view",
      "type": "function"
    },
    {
      "inputs": [],
      "name": "_socialToken",
      "outputs": [
        {
          "internalType": "contract INativeSuperToken",
          "name": "",
          "type": "address"
        }
      ],
      "stateMutability": "view",
      "type": "function"
    },
    {
      "inputs": [
        {
          "internalType": "address",
          "name": "",
          "type": "address"
        }
      ],
      "name": "_socialTokenMapping",
      "outputs": [
        {
          "internalType": "address",
          "name": "",
          "type": "address"
        }
      ],
      "stateMutability": "view",
      "type": "function"
    },
    {
      "inputs": [],
      "name": "mySuperSocialTokenAddress",
      "outputs": [
        {
          "internalType": "address",
          "name": "",
          "type": "address"
        }
      ],
      "stateMutability": "nonpayable",
      "type": "function"
    },
    {
      "inputs": [
        {
          "internalType": "string",
          "name": "name",
          "type": "string"
        },
        {
          "internalType": "string",
          "name": "symbol",
          "type": "string"
        },
        {
          "internalType": "uint256",
          "name": "TOTAL_SUPPLY",
          "type": "uint256"
        }
      ],
      "name": "mintSuperSocialToken",
      "outputs": [
        {
          "internalType": "address",
          "name": "",
          "type": "address"
        }
      ],
      "stateMutability": "nonpayable",
      "type": "function"
    }
  ],
  "bytecode": "0x608060405234801561001057600080fd5b506040516110963803806110968339818101604052608081101561003357600080fd5b810190808051906020019092919080519060200190929190805190602001909291908051906020019092919050505081600360006101000a81548173ffffffffffffffffffffffffffffffffffffffff021916908373ffffffffffffffffffffffffffffffffffffffff16021790555080600460006101000a81548173ffffffffffffffffffffffffffffffffffffffff021916908373ffffffffffffffffffffffffffffffffffffffff16021790555050505050610f9f806100f76000396000f3fe608060405234801561001057600080fd5b50600436106100575760003560e01c80631809156e1461005c5780632c81243d146100905780634f4d5219146100fe578063520d77a9146101325780639b4aed941461018c575b600080fd5b61006461028e565b604051808273ffffffffffffffffffffffffffffffffffffffff16815260200191505060405180910390f35b6100d2600480360360208110156100a657600080fd5b81019080803573ffffffffffffffffffffffffffffffffffffffff1690602001909291905050506102f5565b604051808273ffffffffffffffffffffffffffffffffffffffff16815260200191505060405180910390f35b610106610328565b604051808273ffffffffffffffffffffffffffffffffffffffff16815260200191505060405180910390f35b6101746004803603602081101561014857600080fd5b81019080803573ffffffffffffffffffffffffffffffffffffffff16906020019092919050505061034e565b60405180821515815260200191505060405180910390f35b610262600480360360608110156101a257600080fd5b81019080803590602001906401000000008111156101bf57600080fd5b8201836020820111156101d157600080fd5b803590602001918460018302840111640100000000831117156101f357600080fd5b90919293919293908035906020019064010000000081111561021457600080fd5b82018360208201111561022657600080fd5b8035906020019184600183028401116401000000008311171561024857600080fd5b90919293919293908035906020019092919050505061036e565b604051808273ffffffffffffffffffffffffffffffffffffffff16815260200191505060405180910390f35b6000600160003373ffffffffffffffffffffffffffffffffffffffff1673ffffffffffffffffffffffffffffffffffffffff16815260200190815260200160002060009054906101000a900473ffffffffffffffffffffffffffffffffffffffff16905090565b60016020528060005260406000206000915054906101000a900473ffffffffffffffffffffffffffffffffffffffff1681565b600260009054906101000a900473ffffffffffffffffffffffffffffffffffffffff1681565b60006020528060005260406000206000915054906101000a900460ff1681565b600060405161037c90610936565b604051809103906000f080158015610398573d6000803e3d6000fd5b50600260006101000a81548173ffffffffffffffffffffffffffffffffffffffff021916908373ffffffffffffffffffffffffffffffffffffffff160217905550600360009054906101000a900473ffffffffffffffffffffffffffffffffffffffff1673ffffffffffffffffffffffffffffffffffffffff1663d412d344600260009054906101000a900473ffffffffffffffffffffffffffffffffffffffff166040518263ffffffff1660e01b8152600401808273ffffffffffffffffffffffffffffffffffffffff168152602001915050600060405180830381600087803b15801561048657600080fd5b505af115801561049a573d6000803e3d6000fd5b50505050600069d3c21bcecceda10000009050600260009054906101000a900473ffffffffffffffffffffffffffffffffffffffff1673ffffffffffffffffffffffffffffffffffffffff1663bd3a13f68888888886336040518763ffffffff1660e01b81526004018080602001806020018581526020018473ffffffffffffffffffffffffffffffffffffffff1681526020018381038352898982818152602001925080828437600081840152601f19601f8201169050808301925050508381038252878782818152602001925080828437600081840152601f19601f82011690508083019250505098505050505050505050600060405180830381600087803b1580156105a857600080fd5b505af11580156105bc573d6000803e3d6000fd5b50505050600260009054906101000a900473ffffffffffffffffffffffffffffffffffffffff16600160003373ffffffffffffffffffffffffffffffffffffffff1673ffffffffffffffffffffffffffffffffffffffff16815260200190815260200160002060006101000a81548173ffffffffffffffffffffffffffffffffffffffff021916908373ffffffffffffffffffffffffffffffffffffffff16021790555060016000803373ffffffffffffffffffffffffffffffffffffffff1673ffffffffffffffffffffffffffffffffffffffff16815260200190815260200160002060006101000a81548160ff021916908315150217905550600460009054906101000a900473ffffffffffffffffffffffffffffffffffffffff1673ffffffffffffffffffffffffffffffffffffffff166382242c9733600260009054906101000a900473ffffffffffffffffffffffffffffffffffffffff168a8a8a8a8a6040518863ffffffff1660e01b8152600401808873ffffffffffffffffffffffffffffffffffffffff1681526020018773ffffffffffffffffffffffffffffffffffffffff16815260200180602001806020018481526020018381038352888882818152602001925080828437600081840152601f19601f8201169050808301925050508381038252868682818152602001925080828437600081840152601f19601f8201169050808301925050509950505050505050505050600060405180830381600087803b1580156107f257600080fd5b505af1158015610806573d6000803e3d6000fd5b505050507f95bf4210965406709b78689d587f53a0c15e78d2ca4b3112b2667f51e8b73c3c33600260009054906101000a900473ffffffffffffffffffffffffffffffffffffffff168989898989604051808873ffffffffffffffffffffffffffffffffffffffff1681526020018773ffffffffffffffffffffffffffffffffffffffff16815260200180602001806020018481526020018381038352888882818152602001925080828437600081840152601f19601f8201169050808301925050508381038252868682818152602001925080828437600081840152601f19601f820116905080830192505050995050505050505050505060405180910390a1600260009054906101000a900473ffffffffffffffffffffffffffffffffffffffff1691505095945050505050565b610626806109448339019056fe608060405234801561001057600080fd5b50610606806100206000396000f3fe60806040526004361061002d5760003560e01c80634a0687ef14610046578063bd3a13f6146100975761003c565b3661003c5761003a61019c565b005b61004461019c565b005b34801561005257600080fd5b506100956004803603602081101561006957600080fd5b81019080803573ffffffffffffffffffffffffffffffffffffffff1690602001909291905050506101b6565b005b3480156100a357600080fd5b5061019a600480360360808110156100ba57600080fd5b81019080803590602001906401000000008111156100d757600080fd5b8201836020820111156100e957600080fd5b8035906020019184600183028401116401000000008311171561010b57600080fd5b90919293919293908035906020019064010000000081111561012c57600080fd5b82018360208201111561013e57600080fd5b8035906020019184600183028401116401000000008311171561016057600080fd5b909192939192939080359060200190929190803573ffffffffffffffffffffffffffffffffffffffff16906020019092919050505061030e565b005b6101a461054a565b6101b46101af61054c565b61055b565b565b600073ffffffffffffffffffffffffffffffffffffffff168173ffffffffffffffffffffffffffffffffffffffff161415610259576040517f08c379a00000000000000000000000000000000000000000000000000000000081526004018080602001828103825260178152602001807f5555505350726f78793a207a65726f206164647265737300000000000000000081525060200191505060405180910390fd5b600073ffffffffffffffffffffffffffffffffffffffff16610279610581565b73ffffffffffffffffffffffffffffffffffffffff1614610302576040517f08c379a000000000000000000000000000000000000000000000000000000000815260040180806020018281038252601e8152602001807f5555505350726f78793a20616c726561647920696e697469616c697a6564000081525060200191505060405180910390fd5b61030b816105aa565b50565b3073ffffffffffffffffffffffffffffffffffffffff166342fe098060006012898989896040518763ffffffff1660e01b8152600401808773ffffffffffffffffffffffffffffffffffffffff16815260200186815260200180602001806020018381038352878782818152602001925080828437600081840152601f19601f8201169050808301925050508381038252858582818152602001925080828437600081840152601f19601f82011690508083019250505098505050505050505050600060405180830381600087803b1580156103e957600080fd5b505af11580156103fd573d6000803e3d6000fd5b505050503073ffffffffffffffffffffffffffffffffffffffff1663c68d42838284600067ffffffffffffffff8111801561043757600080fd5b506040519080825280601f01601f19166020018201604052801561046a5781602001600182028036833780820191505090505b506040518463ffffffff1660e01b8152600401808473ffffffffffffffffffffffffffffffffffffffff16815260200183815260200180602001828103825283818151815260200191508051906020019080838360005b838110156104dc5780820151818401526020810190506104c1565b50505050905090810190601f1680156105095780820380516001836020036101000a031916815260200191505b50945050505050600060405180830381600087803b15801561052a57600080fd5b505af115801561053e573d6000803e3d6000fd5b50505050505050505050565b565b6000610556610581565b905090565b3660008037600080366000845af43d6000803e806000811461057c573d6000f35b3d6000fd5b60007f360894a13ba1a3210667c828492db98dca3e2076cc3735a920a3ca505d382bbc54905090565b807f360894a13ba1a3210667c828492db98dca3e2076cc3735a920a3ca505d382bbc555056fea26469706673582212201940e69d0079a4b57e5a19e70786f2a630083979bfb321b246d60025948b820b64736f6c63430007060033a2646970667358221220668f3d796c846d98aa3f55576614a4a9343919688e6b9f3108d0fa6ce356b78a64736f6c63430007060033",
  "immutableReferences": {},
  "source": "\npragma solidity ^0.7.0;\n\nimport {\n    ISuperfluid,\n    ISuperToken,\n    ISuperApp,\n    ISuperAgreement,\n    SuperAppDefinitions\n} from \"@superfluid-finance/ethereum-contracts/contracts/interfaces/superfluid/ISuperfluid.sol\";\n\nimport {\n    IConstantFlowAgreementV1\n} from \"@superfluid-finance/ethereum-contracts/contracts/interfaces/agreements/IConstantFlowAgreementV1.sol\";\n\nimport {\n    ISuperTokenFactory\n}\nfrom \"@superfluid-finance/ethereum-contracts/contracts/interfaces/superfluid/ISuperTokenFactory.sol\";\n\nimport { INativeSuperToken, NativeSuperTokenProxy } from \"@superfluid-finance/ethereum-contracts/contracts/tokens/NativeSuperToken.sol\";\nimport \"./Emitter.sol\";\n\ncontract MainMintingContract {\n    mapping (address=>bool) public _hasToken;\n    mapping (address=>address) public _socialTokenMapping;\n    INativeSuperToken public _socialToken;\n    ISuperTokenFactory private _superTokenFactory;\n\n    Emitter _emitter;\n    event SocialTokenCreated(address owner,address tokenAddress,string name,string symbol,uint total_supply);\n    constructor (\n        ISuperfluid host,\n        IConstantFlowAgreementV1 cfa,\n        ISuperTokenFactory superTokenFactory,address emitterAdd) {\n        _superTokenFactory = superTokenFactory;\n        _emitter = Emitter(emitterAdd);\n    }\n\n    function mySuperSocialTokenAddress() external returns(address){\n        return _socialTokenMapping[msg.sender];\n    }\n\n    function mintSuperSocialToken(string calldata name,string calldata symbol,uint256 TOTAL_SUPPLY) external returns(address) {\n        // require(_hasToken[msg.sender],\"You have already created a social token\");//How to do this?\n        _socialToken = INativeSuperToken(address(new NativeSuperTokenProxy()));\n        _superTokenFactory.initializeCustomSuperToken(address(_socialToken));  \n        uint256 _TOTAL_SUPPLY = 1000000000000000000000000;//TODO: Use supplied total supply\n        _socialToken.initialize(\n            name,\n            symbol,\n            _TOTAL_SUPPLY,\n            msg.sender\n        );\n\n        _socialTokenMapping[msg.sender] = address(_socialToken);\n        _hasToken[msg.sender] = true;\n        _emitter.socialTokenCreated(msg.sender, address(_socialToken), name, symbol, TOTAL_SUPPLY);\n        emit SocialTokenCreated(msg.sender, address(_socialToken), name, symbol, TOTAL_SUPPLY);\n        return address(_socialToken);\n    }\n}",
  "sourcePath": "/Users/praffulsahu/Documents/Crypto/StreamSocialToken/contracts/MainMintingContract.sol",
  "compiler": {
    "name": "solc",
    "version": "0.7.6+commit.7338295f.Emscripten.clang"
  },
  "schemaVersion": "3.3.3",
  "updatedAt": "2021-07-28T09:44:36.660Z",
  "devdoc": {
    "kind": "dev",
    "methods": {},
    "version": 1
  },
  "userdoc": {
    "kind": "user",
    "methods": {},
    "version": 1
  }
}