{
  "contractName": "MainMintingContract",
  "abi": [
    {
      "inputs": [
        {
          "internalType": "contract ISuperfluid",
          "name": "host",
          "type": "address"
        },
        {
          "internalType": "contract IConstantFlowAgreementV1",
          "name": "cfa",
          "type": "address"
        },
        {
          "internalType": "contract ISuperTokenFactory",
          "name": "superTokenFactory",
          "type": "address"
        }
      ],
      "stateMutability": "nonpayable",
      "type": "constructor"
    },
    {
      "anonymous": false,
      "inputs": [
        {
          "indexed": false,
          "internalType": "address",
          "name": "owner",
          "type": "address"
        },
        {
          "indexed": false,
          "internalType": "address",
          "name": "tokenAddress",
          "type": "address"
        },
        {
          "indexed": false,
          "internalType": "string",
          "name": "name",
          "type": "string"
        },
        {
          "indexed": false,
          "internalType": "string",
          "name": "symbol",
          "type": "string"
        },
        {
          "indexed": false,
          "internalType": "uint256",
          "name": "total_supply",
          "type": "uint256"
        }
      ],
      "name": "SocialTokenCreated",
      "type": "event"
    },
    {
      "inputs": [],
      "name": "_socialToken",
      "outputs": [
        {
          "internalType": "contract INativeSuperToken",
          "name": "",
          "type": "address"
        }
      ],
      "stateMutability": "view",
      "type": "function"
    },
    {
      "inputs": [
        {
          "internalType": "string",
          "name": "name",
          "type": "string"
        },
        {
          "internalType": "string",
          "name": "symbol",
          "type": "string"
        },
        {
          "internalType": "uint256",
          "name": "TOTAL_SUPPLY",
          "type": "uint256"
        }
      ],
      "name": "mintSuperSocialToken",
      "outputs": [
        {
          "internalType": "address",
          "name": "",
          "type": "address"
        }
      ],
      "stateMutability": "nonpayable",
      "type": "function"
    }
  ],
  "bytecode": "0x608060405234801561001057600080fd5b50604051610c79380380610c798339818101604052606081101561003357600080fd5b8101908080519060200190929190805190602001909291908051906020019092919050505080600260006101000a81548173ffffffffffffffffffffffffffffffffffffffff021916908373ffffffffffffffffffffffffffffffffffffffff160217905550505050610bce806100ab6000396000f3fe608060405234801561001057600080fd5b50600436106100365760003560e01c80634f4d52191461003b5780639b4aed941461006f575b600080fd5b610043610171565b604051808273ffffffffffffffffffffffffffffffffffffffff16815260200191505060405180910390f35b6101456004803603606081101561008557600080fd5b81019080803590602001906401000000008111156100a257600080fd5b8201836020820111156100b457600080fd5b803590602001918460018302840111640100000000831117156100d657600080fd5b9091929391929390803590602001906401000000008111156100f757600080fd5b82018360208201111561010957600080fd5b8035906020019184600183028401116401000000008311171561012b57600080fd5b909192939192939080359060200190929190505050610197565b604051808273ffffffffffffffffffffffffffffffffffffffff16815260200191505060405180910390f35b600160009054906101000a900473ffffffffffffffffffffffffffffffffffffffff1681565b60006040516101a590610586565b604051809103906000f0801580156101c1573d6000803e3d6000fd5b50600160006101000a81548173ffffffffffffffffffffffffffffffffffffffff021916908373ffffffffffffffffffffffffffffffffffffffff160217905550600260009054906101000a900473ffffffffffffffffffffffffffffffffffffffff1673ffffffffffffffffffffffffffffffffffffffff1663d412d344600160009054906101000a900473ffffffffffffffffffffffffffffffffffffffff166040518263ffffffff1660e01b8152600401808273ffffffffffffffffffffffffffffffffffffffff168152602001915050600060405180830381600087803b1580156102af57600080fd5b505af11580156102c3573d6000803e3d6000fd5b50505050600160009054906101000a900473ffffffffffffffffffffffffffffffffffffffff1673ffffffffffffffffffffffffffffffffffffffff1663b119490e87878787876040518663ffffffff1660e01b81526004018080602001806020018481526020018381038352888882818152602001925080828437600081840152601f19601f8201169050808301925050508381038252868682818152602001925080828437600081840152601f19601f820116905080830192505050975050505050505050600060405180830381600087803b1580156103a457600080fd5b505af11580156103b8573d6000803e3d6000fd5b50505050600160009054906101000a900473ffffffffffffffffffffffffffffffffffffffff166000803373ffffffffffffffffffffffffffffffffffffffff1673ffffffffffffffffffffffffffffffffffffffff16815260200190815260200160002060006101000a81548173ffffffffffffffffffffffffffffffffffffffff021916908373ffffffffffffffffffffffffffffffffffffffff1602179055507f95bf4210965406709b78689d587f53a0c15e78d2ca4b3112b2667f51e8b73c3c33600160009054906101000a900473ffffffffffffffffffffffffffffffffffffffff168888888888604051808873ffffffffffffffffffffffffffffffffffffffff1681526020018773ffffffffffffffffffffffffffffffffffffffff16815260200180602001806020018481526020018381038352888882818152602001925080828437600081840152601f19601f8201169050808301925050508381038252868682818152602001925080828437600081840152601f19601f820116905080830192505050995050505050505050505060405180910390a1600160009054906101000a900473ffffffffffffffffffffffffffffffffffffffff16905095945050505050565b610605806105948339019056fe608060405234801561001057600080fd5b506105e5806100206000396000f3fe60806040526004361061002d5760003560e01c80634a0687ef14610046578063b119490e146100975761003c565b3661003c5761003a61017c565b005b61004461017c565b005b34801561005257600080fd5b506100956004803603602081101561006957600080fd5b81019080803573ffffffffffffffffffffffffffffffffffffffff169060200190929190505050610196565b005b3480156100a357600080fd5b5061017a600480360360608110156100ba57600080fd5b81019080803590602001906401000000008111156100d757600080fd5b8201836020820111156100e957600080fd5b8035906020019184600183028401116401000000008311171561010b57600080fd5b90919293919293908035906020019064010000000081111561012c57600080fd5b82018360208201111561013e57600080fd5b8035906020019184600183028401116401000000008311171561016057600080fd5b9091929391929390803590602001909291905050506102ee565b005b610184610529565b61019461018f61052b565b61053a565b565b600073ffffffffffffffffffffffffffffffffffffffff168173ffffffffffffffffffffffffffffffffffffffff161415610239576040517f08c379a00000000000000000000000000000000000000000000000000000000081526004018080602001828103825260178152602001807f5555505350726f78793a207a65726f206164647265737300000000000000000081525060200191505060405180910390fd5b600073ffffffffffffffffffffffffffffffffffffffff16610259610560565b73ffffffffffffffffffffffffffffffffffffffff16146102e2576040517f08c379a000000000000000000000000000000000000000000000000000000000815260040180806020018281038252601e8152602001807f5555505350726f78793a20616c726561647920696e697469616c697a6564000081525060200191505060405180910390fd5b6102eb81610589565b50565b3073ffffffffffffffffffffffffffffffffffffffff166342fe098060006012888888886040518763ffffffff1660e01b8152600401808773ffffffffffffffffffffffffffffffffffffffff16815260200186815260200180602001806020018381038352878782818152602001925080828437600081840152601f19601f8201169050808301925050508381038252858582818152602001925080828437600081840152601f19601f82011690508083019250505098505050505050505050600060405180830381600087803b1580156103c957600080fd5b505af11580156103dd573d6000803e3d6000fd5b505050503073ffffffffffffffffffffffffffffffffffffffff1663c68d42833383600067ffffffffffffffff8111801561041757600080fd5b506040519080825280601f01601f19166020018201604052801561044a5781602001600182028036833780820191505090505b506040518463ffffffff1660e01b8152600401808473ffffffffffffffffffffffffffffffffffffffff16815260200183815260200180602001828103825283818151815260200191508051906020019080838360005b838110156104bc5780820151818401526020810190506104a1565b50505050905090810190601f1680156104e95780820380516001836020036101000a031916815260200191505b50945050505050600060405180830381600087803b15801561050a57600080fd5b505af115801561051e573d6000803e3d6000fd5b505050505050505050565b565b6000610535610560565b905090565b3660008037600080366000845af43d6000803e806000811461055b573d6000f35b3d6000fd5b60007f360894a13ba1a3210667c828492db98dca3e2076cc3735a920a3ca505d382bbc54905090565b807f360894a13ba1a3210667c828492db98dca3e2076cc3735a920a3ca505d382bbc555056fea2646970667358221220a6aa7860f9211bee773fdfa584abfdd7eb28d01b60f1731ceb8bcaab988ff87564736f6c63430007060033a2646970667358221220a4ef60aa0788e7b7dd47c74c15ed1f47b5aa6a7cd63f0ae076a03daef30b4bd264736f6c63430007060033",
  "immutableReferences": {},
  "source": "\npragma solidity ^0.7.0;\n\nimport {\n    ISuperfluid,\n    ISuperToken,\n    ISuperApp,\n    ISuperAgreement,\n    SuperAppDefinitions\n} from \"@superfluid-finance/ethereum-contracts/contracts/interfaces/superfluid/ISuperfluid.sol\";\n\nimport {\n    IConstantFlowAgreementV1\n} from \"@superfluid-finance/ethereum-contracts/contracts/interfaces/agreements/IConstantFlowAgreementV1.sol\";\n\nimport {\n    ISuperTokenFactory\n}\nfrom \"@superfluid-finance/ethereum-contracts/contracts/interfaces/superfluid/ISuperTokenFactory.sol\";\n\nimport { INativeSuperToken, NativeSuperTokenProxy } from \"@superfluid-finance/ethereum-contracts/contracts/tokens/NativeSuperToken.sol\";\n\n\ncontract MainMintingContract {\n\n    \n    \n    mapping (address=>address) _socialTokenMapping;\n    INativeSuperToken public _socialToken;\n    ISuperTokenFactory private _superTokenFactory;\n\n    // Events\n\n    \n    event SocialTokenCreated(address owner,address tokenAddress,string name,string symbol,uint total_supply);\n    \n    constructor (\n        ISuperfluid host,\n        IConstantFlowAgreementV1 cfa,\n        ISuperTokenFactory superTokenFactory) {\n        _superTokenFactory = superTokenFactory;\n    }\n\n    function mintSuperSocialToken(string calldata name,string calldata symbol,uint TOTAL_SUPPLY) external returns(address) {\n        // require(_socialTokenMapping[msg.sender],\"You have already created a social token\");\n        _socialToken = INativeSuperToken(address(new NativeSuperTokenProxy()));\n        _superTokenFactory.initializeCustomSuperToken(address(_socialToken));  \n        \n        _socialToken.initialize(\n            name,\n            symbol,\n            TOTAL_SUPPLY\n        );\n\n        _socialTokenMapping[msg.sender] = address(_socialToken);\n        emit SocialTokenCreated(msg.sender, address(_socialToken), name, symbol, TOTAL_SUPPLY);\n        return address(_socialToken);\n    }\n}",
  "sourcePath": "/Users/praffulsahu/Documents/Crypto/StreamSocialToken/contracts/MainMintingContract.sol",
  "compiler": {
    "name": "solc",
    "version": "0.7.6+commit.7338295f.Emscripten.clang"
  },
  "schemaVersion": "3.3.3",
  "updatedAt": "2021-07-07T12:59:41.408Z",
  "devdoc": {
    "kind": "dev",
    "methods": {},
    "version": 1
  },
  "userdoc": {
    "kind": "user",
    "methods": {},
    "version": 1
  }
}