{
  "contractName": "NativeSuperTokenProxy",
  "abi": [
    {
      "stateMutability": "payable",
      "type": "fallback"
    },
    {
      "inputs": [
        {
          "internalType": "address",
          "name": "initialAddress",
          "type": "address"
        }
      ],
      "name": "initializeProxy",
      "outputs": [],
      "stateMutability": "nonpayable",
      "type": "function"
    },
    {
      "stateMutability": "payable",
      "type": "receive"
    },
    {
      "inputs": [
        {
          "internalType": "string",
          "name": "name",
          "type": "string"
        },
        {
          "internalType": "string",
          "name": "symbol",
          "type": "string"
        },
        {
          "internalType": "uint256",
          "name": "initialSupply",
          "type": "uint256"
        }
      ],
      "name": "initialize",
      "outputs": [],
      "stateMutability": "nonpayable",
      "type": "function"
    }
  ],
  "bytecode": "0x608060405234801561001057600080fd5b506105e5806100206000396000f3fe60806040526004361061002d5760003560e01c80634a0687ef14610046578063b119490e146100975761003c565b3661003c5761003a61017c565b005b61004461017c565b005b34801561005257600080fd5b506100956004803603602081101561006957600080fd5b81019080803573ffffffffffffffffffffffffffffffffffffffff169060200190929190505050610196565b005b3480156100a357600080fd5b5061017a600480360360608110156100ba57600080fd5b81019080803590602001906401000000008111156100d757600080fd5b8201836020820111156100e957600080fd5b8035906020019184600183028401116401000000008311171561010b57600080fd5b90919293919293908035906020019064010000000081111561012c57600080fd5b82018360208201111561013e57600080fd5b8035906020019184600183028401116401000000008311171561016057600080fd5b9091929391929390803590602001909291905050506102ee565b005b610184610529565b61019461018f61052b565b61053a565b565b600073ffffffffffffffffffffffffffffffffffffffff168173ffffffffffffffffffffffffffffffffffffffff161415610239576040517f08c379a00000000000000000000000000000000000000000000000000000000081526004018080602001828103825260178152602001807f5555505350726f78793a207a65726f206164647265737300000000000000000081525060200191505060405180910390fd5b600073ffffffffffffffffffffffffffffffffffffffff16610259610560565b73ffffffffffffffffffffffffffffffffffffffff16146102e2576040517f08c379a000000000000000000000000000000000000000000000000000000000815260040180806020018281038252601e8152602001807f5555505350726f78793a20616c726561647920696e697469616c697a6564000081525060200191505060405180910390fd5b6102eb81610589565b50565b3073ffffffffffffffffffffffffffffffffffffffff166342fe098060006012888888886040518763ffffffff1660e01b8152600401808773ffffffffffffffffffffffffffffffffffffffff16815260200186815260200180602001806020018381038352878782818152602001925080828437600081840152601f19601f8201169050808301925050508381038252858582818152602001925080828437600081840152601f19601f82011690508083019250505098505050505050505050600060405180830381600087803b1580156103c957600080fd5b505af11580156103dd573d6000803e3d6000fd5b505050503073ffffffffffffffffffffffffffffffffffffffff1663c68d42833383600067ffffffffffffffff8111801561041757600080fd5b506040519080825280601f01601f19166020018201604052801561044a5781602001600182028036833780820191505090505b506040518463ffffffff1660e01b8152600401808473ffffffffffffffffffffffffffffffffffffffff16815260200183815260200180602001828103825283818151815260200191508051906020019080838360005b838110156104bc5780820151818401526020810190506104a1565b50505050905090810190601f1680156104e95780820380516001836020036101000a031916815260200191505b50945050505050600060405180830381600087803b15801561050a57600080fd5b505af115801561051e573d6000803e3d6000fd5b505050505050505050565b565b6000610535610560565b905090565b3660008037600080366000845af43d6000803e806000811461055b573d6000f35b3d6000fd5b60007f360894a13ba1a3210667c828492db98dca3e2076cc3735a920a3ca505d382bbc54905090565b807f360894a13ba1a3210667c828492db98dca3e2076cc3735a920a3ca505d382bbc555056fea2646970667358221220a6aa7860f9211bee773fdfa584abfdd7eb28d01b60f1731ceb8bcaab988ff87564736f6c63430007060033",
  "immutableReferences": {},
  "source": "// SPDX-License-Identifier: AGPLv3\npragma solidity 0.7.6;\n\nimport {\n    ISuperToken,\n    CustomSuperTokenProxyBase\n}\nfrom \"../interfaces/superfluid/CustomSuperTokenProxyBase.sol\";\nimport { IERC20 } from \"@openzeppelin/contracts/token/ERC20/IERC20.sol\";\nimport { UUPSProxy } from \"../upgradability/UUPSProxy.sol\";\n\n/**\n * @dev Native SuperToken custom token functions\n *\n * @author Superfluid\n */\ninterface INativeSuperTokenCustom {\n    function initialize(string calldata name, string calldata symbol, uint256 initialSupply) external;\n}\n\n/**\n * @dev Native SuperToken full interface\n *\n * @author Superfluid\n */\ninterface INativeSuperToken is INativeSuperTokenCustom, ISuperToken {\n    function initialize(string calldata name, string calldata symbol, uint256 initialSupply) external override;\n}\n\n/**\n * @dev Native SuperToken custom super token implementation\n *\n * NOTE:\n * - This is a simple implementation where the supply is pre-minted.\n *\n * @author Superfluid\n */\ncontract NativeSuperTokenProxy is INativeSuperTokenCustom, CustomSuperTokenProxyBase {\n    function initialize(string calldata name, string calldata symbol, uint256 initialSupply)\n        external override\n    {\n        ISuperToken(address(this)).initialize(\n            IERC20(0x0), // no underlying/wrapped token\n            18, // shouldn't matter if there's no wrapped token\n            name,\n            symbol\n        );\n        ISuperToken(address(this)).selfMint(msg.sender, initialSupply, new bytes(0));\n    }\n}\n",
  "sourcePath": "@superfluid-finance/ethereum-contracts/contracts/tokens/NativeSuperToken.sol",
  "compiler": {
    "name": "solc",
    "version": "0.7.6+commit.7338295f.Emscripten.clang"
  },
  "schemaVersion": "3.3.3",
  "updatedAt": "2021-07-07T12:59:41.873Z",
  "devdoc": {
    "author": "Superfluid",
    "details": "Native SuperToken custom super token implementation NOTE: - This is a simple implementation where the supply is pre-minted.",
    "kind": "dev",
    "methods": {
      "initializeProxy(address)": {
        "details": "Proxy initialization function.      This should only be called once and it is permission-less.",
        "params": {
          "initialAddress": "Initial logic contract code address to be used."
        }
      }
    },
    "version": 1
  },
  "userdoc": {
    "kind": "user",
    "methods": {},
    "version": 1
  }
}