{
  "contractName": "SocialStreamableNFT",
  "abi": [
    {
      "inputs": [
        {
          "internalType": "contract ISuperfluid",
          "name": "host",
          "type": "address"
        },
        {
          "internalType": "contract IConstantFlowAgreementV1",
          "name": "cfa",
          "type": "address"
        },
        {
          "internalType": "address",
          "name": "emitterAdd",
          "type": "address"
        }
      ],
      "stateMutability": "nonpayable",
      "type": "constructor"
    },
    {
      "anonymous": false,
      "inputs": [
        {
          "indexed": true,
          "internalType": "address",
          "name": "owner",
          "type": "address"
        },
        {
          "indexed": true,
          "internalType": "address",
          "name": "approved",
          "type": "address"
        },
        {
          "indexed": true,
          "internalType": "uint256",
          "name": "tokenId",
          "type": "uint256"
        }
      ],
      "name": "Approval",
      "type": "event"
    },
    {
      "anonymous": false,
      "inputs": [
        {
          "indexed": true,
          "internalType": "address",
          "name": "owner",
          "type": "address"
        },
        {
          "indexed": true,
          "internalType": "address",
          "name": "operator",
          "type": "address"
        },
        {
          "indexed": false,
          "internalType": "bool",
          "name": "approved",
          "type": "bool"
        }
      ],
      "name": "ApprovalForAll",
      "type": "event"
    },
    {
      "anonymous": false,
      "inputs": [
        {
          "indexed": true,
          "internalType": "address",
          "name": "previousOwner",
          "type": "address"
        },
        {
          "indexed": true,
          "internalType": "address",
          "name": "newOwner",
          "type": "address"
        }
      ],
      "name": "OwnershipTransferred",
      "type": "event"
    },
    {
      "anonymous": false,
      "inputs": [
        {
          "indexed": true,
          "internalType": "address",
          "name": "from",
          "type": "address"
        },
        {
          "indexed": true,
          "internalType": "address",
          "name": "to",
          "type": "address"
        },
        {
          "indexed": true,
          "internalType": "uint256",
          "name": "tokenId",
          "type": "uint256"
        }
      ],
      "name": "Transfer",
      "type": "event"
    },
    {
      "inputs": [
        {
          "internalType": "address",
          "name": "to",
          "type": "address"
        },
        {
          "internalType": "uint256",
          "name": "tokenId",
          "type": "uint256"
        }
      ],
      "name": "approve",
      "outputs": [],
      "stateMutability": "nonpayable",
      "type": "function"
    },
    {
      "inputs": [
        {
          "internalType": "address",
          "name": "owner",
          "type": "address"
        }
      ],
      "name": "balanceOf",
      "outputs": [
        {
          "internalType": "uint256",
          "name": "",
          "type": "uint256"
        }
      ],
      "stateMutability": "view",
      "type": "function",
      "constant": true
    },
    {
      "inputs": [],
      "name": "baseURI",
      "outputs": [
        {
          "internalType": "string",
          "name": "",
          "type": "string"
        }
      ],
      "stateMutability": "view",
      "type": "function",
      "constant": true
    },
    {
      "inputs": [
        {
          "internalType": "contract ISuperToken",
          "name": "",
          "type": "address"
        },
        {
          "internalType": "address",
          "name": "",
          "type": "address"
        },
        {
          "internalType": "bytes32",
          "name": "",
          "type": "bytes32"
        },
        {
          "internalType": "bytes",
          "name": "",
          "type": "bytes"
        },
        {
          "internalType": "bytes",
          "name": "",
          "type": "bytes"
        }
      ],
      "name": "beforeAgreementCreated",
      "outputs": [
        {
          "internalType": "bytes",
          "name": "",
          "type": "bytes"
        }
      ],
      "stateMutability": "view",
      "type": "function",
      "constant": true
    },
    {
      "inputs": [
        {
          "internalType": "contract ISuperToken",
          "name": "",
          "type": "address"
        },
        {
          "internalType": "address",
          "name": "",
          "type": "address"
        },
        {
          "internalType": "bytes32",
          "name": "",
          "type": "bytes32"
        },
        {
          "internalType": "bytes",
          "name": "",
          "type": "bytes"
        },
        {
          "internalType": "bytes",
          "name": "",
          "type": "bytes"
        }
      ],
      "name": "beforeAgreementTerminated",
      "outputs": [
        {
          "internalType": "bytes",
          "name": "",
          "type": "bytes"
        }
      ],
      "stateMutability": "view",
      "type": "function",
      "constant": true
    },
    {
      "inputs": [
        {
          "internalType": "contract ISuperToken",
          "name": "",
          "type": "address"
        },
        {
          "internalType": "address",
          "name": "",
          "type": "address"
        },
        {
          "internalType": "bytes32",
          "name": "",
          "type": "bytes32"
        },
        {
          "internalType": "bytes",
          "name": "",
          "type": "bytes"
        },
        {
          "internalType": "bytes",
          "name": "",
          "type": "bytes"
        }
      ],
      "name": "beforeAgreementUpdated",
      "outputs": [
        {
          "internalType": "bytes",
          "name": "",
          "type": "bytes"
        }
      ],
      "stateMutability": "view",
      "type": "function",
      "constant": true
    },
    {
      "inputs": [
        {
          "internalType": "uint256",
          "name": "tokenId",
          "type": "uint256"
        }
      ],
      "name": "getApproved",
      "outputs": [
        {
          "internalType": "address",
          "name": "",
          "type": "address"
        }
      ],
      "stateMutability": "view",
      "type": "function",
      "constant": true
    },
    {
      "inputs": [
        {
          "internalType": "address",
          "name": "owner",
          "type": "address"
        },
        {
          "internalType": "address",
          "name": "operator",
          "type": "address"
        }
      ],
      "name": "isApprovedForAll",
      "outputs": [
        {
          "internalType": "bool",
          "name": "",
          "type": "bool"
        }
      ],
      "stateMutability": "view",
      "type": "function",
      "constant": true
    },
    {
      "inputs": [],
      "name": "name",
      "outputs": [
        {
          "internalType": "string",
          "name": "",
          "type": "string"
        }
      ],
      "stateMutability": "view",
      "type": "function",
      "constant": true
    },
    {
      "inputs": [],
      "name": "owner",
      "outputs": [
        {
          "internalType": "address",
          "name": "",
          "type": "address"
        }
      ],
      "stateMutability": "view",
      "type": "function",
      "constant": true
    },
    {
      "inputs": [
        {
          "internalType": "uint256",
          "name": "tokenId",
          "type": "uint256"
        }
      ],
      "name": "ownerOf",
      "outputs": [
        {
          "internalType": "address",
          "name": "",
          "type": "address"
        }
      ],
      "stateMutability": "view",
      "type": "function",
      "constant": true
    },
    {
      "inputs": [],
      "name": "renounceOwnership",
      "outputs": [],
      "stateMutability": "nonpayable",
      "type": "function"
    },
    {
      "inputs": [
        {
          "internalType": "address",
          "name": "from",
          "type": "address"
        },
        {
          "internalType": "address",
          "name": "to",
          "type": "address"
        },
        {
          "internalType": "uint256",
          "name": "tokenId",
          "type": "uint256"
        }
      ],
      "name": "safeTransferFrom",
      "outputs": [],
      "stateMutability": "nonpayable",
      "type": "function"
    },
    {
      "inputs": [
        {
          "internalType": "address",
          "name": "from",
          "type": "address"
        },
        {
          "internalType": "address",
          "name": "to",
          "type": "address"
        },
        {
          "internalType": "uint256",
          "name": "tokenId",
          "type": "uint256"
        },
        {
          "internalType": "bytes",
          "name": "_data",
          "type": "bytes"
        }
      ],
      "name": "safeTransferFrom",
      "outputs": [],
      "stateMutability": "nonpayable",
      "type": "function"
    },
    {
      "inputs": [
        {
          "internalType": "address",
          "name": "operator",
          "type": "address"
        },
        {
          "internalType": "bool",
          "name": "approved",
          "type": "bool"
        }
      ],
      "name": "setApprovalForAll",
      "outputs": [],
      "stateMutability": "nonpayable",
      "type": "function"
    },
    {
      "inputs": [
        {
          "internalType": "bytes4",
          "name": "interfaceId",
          "type": "bytes4"
        }
      ],
      "name": "supportsInterface",
      "outputs": [
        {
          "internalType": "bool",
          "name": "",
          "type": "bool"
        }
      ],
      "stateMutability": "view",
      "type": "function",
      "constant": true
    },
    {
      "inputs": [],
      "name": "symbol",
      "outputs": [
        {
          "internalType": "string",
          "name": "",
          "type": "string"
        }
      ],
      "stateMutability": "view",
      "type": "function",
      "constant": true
    },
    {
      "inputs": [
        {
          "internalType": "uint256",
          "name": "index",
          "type": "uint256"
        }
      ],
      "name": "tokenByIndex",
      "outputs": [
        {
          "internalType": "uint256",
          "name": "",
          "type": "uint256"
        }
      ],
      "stateMutability": "view",
      "type": "function",
      "constant": true
    },
    {
      "inputs": [
        {
          "internalType": "address",
          "name": "owner",
          "type": "address"
        },
        {
          "internalType": "uint256",
          "name": "index",
          "type": "uint256"
        }
      ],
      "name": "tokenOfOwnerByIndex",
      "outputs": [
        {
          "internalType": "uint256",
          "name": "",
          "type": "uint256"
        }
      ],
      "stateMutability": "view",
      "type": "function",
      "constant": true
    },
    {
      "inputs": [
        {
          "internalType": "uint256",
          "name": "tokenId",
          "type": "uint256"
        }
      ],
      "name": "tokenURI",
      "outputs": [
        {
          "internalType": "string",
          "name": "",
          "type": "string"
        }
      ],
      "stateMutability": "view",
      "type": "function",
      "constant": true
    },
    {
      "inputs": [],
      "name": "totalSupply",
      "outputs": [
        {
          "internalType": "uint256",
          "name": "",
          "type": "uint256"
        }
      ],
      "stateMutability": "view",
      "type": "function",
      "constant": true
    },
    {
      "inputs": [
        {
          "internalType": "address",
          "name": "from",
          "type": "address"
        },
        {
          "internalType": "address",
          "name": "to",
          "type": "address"
        },
        {
          "internalType": "uint256",
          "name": "tokenId",
          "type": "uint256"
        }
      ],
      "name": "transferFrom",
      "outputs": [],
      "stateMutability": "nonpayable",
      "type": "function"
    },
    {
      "inputs": [
        {
          "internalType": "address",
          "name": "newOwner",
          "type": "address"
        }
      ],
      "name": "transferOwnership",
      "outputs": [],
      "stateMutability": "nonpayable",
      "type": "function"
    },
    {
      "inputs": [
        {
          "internalType": "address",
          "name": "to",
          "type": "address"
        },
        {
          "internalType": "string",
          "name": "tokenURI",
          "type": "string"
        },
        {
          "internalType": "uint256",
          "name": "royalty",
          "type": "uint256"
        }
      ],
      "name": "safeMint",
      "outputs": [],
      "stateMutability": "nonpayable",
      "type": "function"
    },
    {
      "inputs": [
        {
          "internalType": "uint256",
          "name": "tokenId",
          "type": "uint256"
        },
        {
          "internalType": "address",
          "name": "token",
          "type": "address"
        }
      ],
      "name": "stopFlow",
      "outputs": [],
      "stateMutability": "nonpayable",
      "type": "function"
    },
    {
      "inputs": [
        {
          "internalType": "contract ISuperToken",
          "name": "superToken",
          "type": "address"
        },
        {
          "internalType": "address",
          "name": "agreementClass",
          "type": "address"
        },
        {
          "internalType": "bytes32",
          "name": "agreementId",
          "type": "bytes32"
        },
        {
          "internalType": "bytes",
          "name": "agreementData",
          "type": "bytes"
        },
        {
          "internalType": "bytes",
          "name": "cbdata",
          "type": "bytes"
        },
        {
          "internalType": "bytes",
          "name": "ctx",
          "type": "bytes"
        }
      ],
      "name": "afterAgreementCreated",
      "outputs": [
        {
          "internalType": "bytes",
          "name": "newCtx",
          "type": "bytes"
        }
      ],
      "stateMutability": "nonpayable",
      "type": "function"
    },
    {
      "inputs": [
        {
          "internalType": "contract ISuperToken",
          "name": "superToken",
          "type": "address"
        },
        {
          "internalType": "address",
          "name": "agreementClass",
          "type": "address"
        },
        {
          "internalType": "bytes32",
          "name": "agreementId",
          "type": "bytes32"
        },
        {
          "internalType": "bytes",
          "name": "agreementData",
          "type": "bytes"
        },
        {
          "internalType": "bytes",
          "name": "cbdata",
          "type": "bytes"
        },
        {
          "internalType": "bytes",
          "name": "ctx",
          "type": "bytes"
        }
      ],
      "name": "afterAgreementUpdated",
      "outputs": [
        {
          "internalType": "bytes",
          "name": "newCtx",
          "type": "bytes"
        }
      ],
      "stateMutability": "nonpayable",
      "type": "function"
    },
    {
      "inputs": [
        {
          "internalType": "contract ISuperToken",
          "name": "superToken",
          "type": "address"
        },
        {
          "internalType": "address",
          "name": "agreementClass",
          "type": "address"
        },
        {
          "internalType": "bytes32",
          "name": "agreementId",
          "type": "bytes32"
        },
        {
          "internalType": "bytes",
          "name": "agreementData",
          "type": "bytes"
        },
        {
          "internalType": "bytes",
          "name": "cbdata",
          "type": "bytes"
        },
        {
          "internalType": "bytes",
          "name": "ctx",
          "type": "bytes"
        }
      ],
      "name": "afterAgreementTerminated",
      "outputs": [
        {
          "internalType": "bytes",
          "name": "newCtx",
          "type": "bytes"
        }
      ],
      "stateMutability": "nonpayable",
      "type": "function"
    }
  ],
  "bytecode": "0x60806040523480156200001157600080fd5b5060405162005dfd38038062005dfd8339818101604052810190620000379190620006b8565b6040518060400160405280601381526020017f536f6369616c53747265616d61626c654e4654000000000000000000000000008152506040518060400160405280600681526020017f5353534e465400000000000000000000000000000000000000000000000000008152508484600073ffffffffffffffffffffffffffffffffffffffff168273ffffffffffffffffffffffffffffffffffffffff16141562000149576040517f08c379a00000000000000000000000000000000000000000000000000000000081526004018080602001828103825260148152602001807f686f7374206973207a65726f206164647265737300000000000000000000000081525060200191505060405180910390fd5b600073ffffffffffffffffffffffffffffffffffffffff168173ffffffffffffffffffffffffffffffffffffffff161415620001ed576040517f08c379a00000000000000000000000000000000000000000000000000000000081526004018080602001828103825260138152602001807f636661206973207a65726f20616464726573730000000000000000000000000081525060200191505060405180910390fd5b81600260006101000a81548173ffffffffffffffffffffffffffffffffffffffff021916908373ffffffffffffffffffffffffffffffffffffffff16021790555080600360006101000a81548173ffffffffffffffffffffffffffffffffffffffff021916908373ffffffffffffffffffffffffffffffffffffffff160217905550600064100000000064040000000064010000000060011717179050600260009054906101000a900473ffffffffffffffffffffffffffffffffffffffff1673ffffffffffffffffffffffffffffffffffffffff1663ad3915c8826040518263ffffffff1660e01b815260040180828152602001915050600060405180830381600087803b1580156200030057600080fd5b505af115801562000315573d6000803e3d6000fd5b50505050505050620003346301ffc9a760e01b620004ab60201b60201c565b81600a90805190602001906200034c929190620005bd565b5080600b908051906020019062000365929190620005bd565b506200037e6380ac58cd60e01b620004ab60201b60201c565b62000396635b5e139f60e01b620004ab60201b60201c565b620003ae63780e9d6360e01b620004ab60201b60201c565b50506000620003c2620005b560201b60201c565b905080600e60006101000a81548173ffffffffffffffffffffffffffffffffffffffff021916908373ffffffffffffffffffffffffffffffffffffffff1602179055508073ffffffffffffffffffffffffffffffffffffffff16600073ffffffffffffffffffffffffffffffffffffffff167f8be0079c531659141344cd1fd0a4f28419497f9722a3daafe3b4186f6b6457e060405160405180910390a35080601260006101000a81548173ffffffffffffffffffffffffffffffffffffffff021916908373ffffffffffffffffffffffffffffffffffffffff160217905550505050620007b8565b63ffffffff60e01b817bffffffffffffffffffffffffffffffffffffffffffffffffffffffff1916141562000548576040517f08c379a000000000000000000000000000000000000000000000000000000000815260040180806020018281038252601c8152602001807f4552433136353a20696e76616c696420696e746572666163652069640000000081525060200191505060405180910390fd5b600160046000837bffffffffffffffffffffffffffffffffffffffffffffffffffffffff19167bffffffffffffffffffffffffffffffffffffffffffffffffffffffff1916815260200190815260200160002060006101000a81548160ff02191690831515021790555050565b600033905090565b828054600181600116156101000203166002900490600052602060002090601f016020900481019282620005f5576000855562000641565b82601f106200061057805160ff191683800117855562000641565b8280016001018555821562000641579182015b828111156200064057825182559160200191906001019062000623565b5b50905062000650919062000654565b5090565b5b808211156200066f57600081600090555060010162000655565b5090565b60008151905062000684816200076a565b92915050565b6000815190506200069b8162000784565b92915050565b600081519050620006b2816200079e565b92915050565b600080600060608486031215620006ce57600080fd5b6000620006de86828701620006a1565b9350506020620006f1868287016200068a565b9250506040620007048682870162000673565b9150509250925092565b60006200071b826200074a565b9050919050565b60006200072f826200070e565b9050919050565b600062000743826200070e565b9050919050565b600073ffffffffffffffffffffffffffffffffffffffff82169050919050565b62000775816200070e565b81146200078157600080fd5b50565b6200078f8162000722565b81146200079b57600080fd5b50565b620007a98162000736565b8114620007b557600080fd5b50565b61563580620007c86000396000f3fe608060405234801561001057600080fd5b50600436106101c45760003560e01c80636c0360eb116100f9578063b88d4fde11610097578063d86ed3e511610071578063d86ed3e514610551578063e985e9c514610581578063f2fde38b146105b1578063fa47c75e146105cd576101c4565b8063b88d4fde146104e9578063c772745a14610505578063c87b56dd14610521576101c4565b8063884d1f40116100d3578063884d1f40146104615780638da5cb5b1461049157806395d89b41146104af578063a22cb465146104cd576101c4565b80636c0360eb1461040957806370a0823114610427578063715018a614610457576101c4565b80632f745c59116101665780634f6ccce7116101405780634f6ccce71461034957806353c11f99146103795780635f9e7d77146103a95780636352211e146103d9576101c4565b80632f745c59146102cd57806330d9c915146102fd57806342842e0e1461032d576101c4565b8063095ea7b3116101a2578063095ea7b31461024757806318160ddd14610263578063230dbd291461028157806323b872dd146102b1576101c4565b806301ffc9a7146101c957806306fdde03146101f9578063081812fc14610217575b600080fd5b6101e360048036038101906101de9190614637565b6105e9565b6040516101f09190614d06565b60405180910390f35b610201610651565b60405161020e9190614f15565b60405180910390f35b610231600480360381019061022c9190614906565b6106f3565b60405161023e9190614c5a565b60405180910390f35b610261600480360381019061025c91906145d2565b61078e565b005b61026b6108d2565b6040516102789190614f97565b60405180910390f35b61029b600480360381019061029691906147bd565b6108e3565b6040516102a89190614d45565b60405180910390f35b6102cb60048036038101906102c69190614465565b6108ff565b005b6102e760048036038101906102e291906145d2565b610975565b6040516102f49190614f97565b60405180910390f35b6103176004803603810190610312919061470d565b6109d0565b6040516103249190614d45565b60405180910390f35b61034760048036038101906103429190614465565b610a23565b005b610363600480360381019061035e9190614906565b610a43565b6040516103709190614f97565b60405180910390f35b610393600480360381019061038e91906147bd565b610a66565b6040516103a09190614d45565b60405180910390f35b6103c360048036038101906103be919061470d565b610abc565b6040516103d09190614d45565b60405180910390f35b6103f360048036038101906103ee9190614906565b610b0f565b6040516104009190614c5a565b60405180910390f35b610411610b46565b60405161041e9190614f15565b60405180910390f35b610441600480360381019061043c9190614400565b610be8565b60405161044e9190614f97565b60405180910390f35b61045f610cbd565b005b61047b6004803603810190610476919061470d565b610e48565b6040516104889190614d45565b60405180910390f35b610499610e9b565b6040516104a69190614c5a565b60405180910390f35b6104b7610ec5565b6040516104c49190614f15565b60405180910390f35b6104e760048036038101906104e2919061452f565b610f67565b005b61050360048036038101906104fe91906144b4565b61111d565b005b61051f600480360381019061051a919061456b565b611195565b005b61053b60048036038101906105369190614906565b6112e4565b6040516105489190614f15565b60405180910390f35b61056b600480360381019061056691906147bd565b6115cd565b6040516105789190614d45565b60405180910390f35b61059b60048036038101906105969190614429565b6115e9565b6040516105a89190614d06565b60405180910390f35b6105cb60048036038101906105c69190614400565b61167d565b005b6105e760048036038101906105e29190614958565b61188d565b005b600060046000837bffffffffffffffffffffffffffffffffffffffffffffffffffffffff19167bffffffffffffffffffffffffffffffffffffffffffffffffffffffff1916815260200190815260200160002060009054906101000a900460ff169050919050565b6060600a8054600181600116156101000203166002900480601f0160208091040260200160405190810160405280929190818152602001828054600181600116156101000203166002900480156106e95780601f106106be576101008083540402835291602001916106e9565b820191906000526020600020905b8154815290600101906020018083116106cc57829003601f168201915b5050505050905090565b60006106fe82611945565b610753576040517f08c379a000000000000000000000000000000000000000000000000000000000815260040180806020018281038252602c8152602001806154a0602c913960400191505060405180910390fd5b6008600083815260200190815260200160002060009054906101000a900473ffffffffffffffffffffffffffffffffffffffff169050919050565b600061079982610b0f565b90508073ffffffffffffffffffffffffffffffffffffffff168373ffffffffffffffffffffffffffffffffffffffff161415610820576040517f08c379a00000000000000000000000000000000000000000000000000000000081526004018080602001828103825260218152602001806155506021913960400191505060405180910390fd5b8073ffffffffffffffffffffffffffffffffffffffff1661083f611962565b73ffffffffffffffffffffffffffffffffffffffff16148061086e575061086d81610868611962565b6115e9565b5b6108c3576040517f08c379a00000000000000000000000000000000000000000000000000000000081526004018080602001828103825260388152602001806153f36038913960400191505060405180910390fd5b6108cd838361196a565b505050565b60006108de6006611a23565b905090565b60606108f083838c611a38565b90509998505050505050505050565b61091061090a611962565b82612239565b610965576040517f08c379a00000000000000000000000000000000000000000000000000000000081526004018080602001828103825260318152602001806155a06031913960400191505060405180910390fd5b61097083838361232d565b505050565b60006109c882600560008673ffffffffffffffffffffffffffffffffffffffff1673ffffffffffffffffffffffffffffffffffffffff16815260200190815260200160002061257090919063ffffffff16565b905092915050565b60606040517f08c379a000000000000000000000000000000000000000000000000000000000815260040180806020018281038252602f8152602001806155d1602f913960400191505060405180910390fd5b610a3e8383836040518060200160405280600081525061111d565b505050565b600080610a5a83600661258a90919063ffffffff16565b50905080915050919050565b606082828080601f016020809104026020016040519081016040528093929190818152602001838380828437600081840152601f19601f8201169050808301925050505050505090509998505050505050505050565b60606040517f08c379a00000000000000000000000000000000000000000000000000000000081526004018080602001828103825260338152602001806153706033913960400191505060405180910390fd5b6000610b3f826040518060600160405280602981526020016154556029913960066125b69092919063ffffffff16565b9050919050565b6060600d8054600181600116156101000203166002900480601f016020809104026020016040519081016040528092919081815260200182805460018160011615610100020316600290048015610bde5780601f10610bb357610100808354040283529160200191610bde565b820191906000526020600020905b815481529060010190602001808311610bc157829003601f168201915b5050505050905090565b60008073ffffffffffffffffffffffffffffffffffffffff168273ffffffffffffffffffffffffffffffffffffffff161415610c6f576040517f08c379a000000000000000000000000000000000000000000000000000000000815260040180806020018281038252602a81526020018061542b602a913960400191505060405180910390fd5b610cb6600560008473ffffffffffffffffffffffffffffffffffffffff1673ffffffffffffffffffffffffffffffffffffffff1681526020019081526020016000206125d5565b9050919050565b610cc5611962565b73ffffffffffffffffffffffffffffffffffffffff16600e60009054906101000a900473ffffffffffffffffffffffffffffffffffffffff1673ffffffffffffffffffffffffffffffffffffffff1614610d87576040517f08c379a00000000000000000000000000000000000000000000000000000000081526004018080602001828103825260208152602001807f4f776e61626c653a2063616c6c6572206973206e6f7420746865206f776e657281525060200191505060405180910390fd5b600073ffffffffffffffffffffffffffffffffffffffff16600e60009054906101000a900473ffffffffffffffffffffffffffffffffffffffff1673ffffffffffffffffffffffffffffffffffffffff167f8be0079c531659141344cd1fd0a4f28419497f9722a3daafe3b4186f6b6457e060405160405180910390a36000600e60006101000a81548173ffffffffffffffffffffffffffffffffffffffff021916908373ffffffffffffffffffffffffffffffffffffffff160217905550565b60606040517f08c379a000000000000000000000000000000000000000000000000000000000815260040180806020018281038252602f815260200180615571602f913960400191505060405180910390fd5b6000600e60009054906101000a900473ffffffffffffffffffffffffffffffffffffffff16905090565b6060600b8054600181600116156101000203166002900480601f016020809104026020016040519081016040528092919081815260200182805460018160011615610100020316600290048015610f5d5780601f10610f3257610100808354040283529160200191610f5d565b820191906000526020600020905b815481529060010190602001808311610f4057829003601f168201915b5050505050905090565b610f6f611962565b73ffffffffffffffffffffffffffffffffffffffff168273ffffffffffffffffffffffffffffffffffffffff161415611010576040517f08c379a00000000000000000000000000000000000000000000000000000000081526004018080602001828103825260198152602001807f4552433732313a20617070726f766520746f2063616c6c65720000000000000081525060200191505060405180910390fd5b806009600061101d611962565b73ffffffffffffffffffffffffffffffffffffffff1673ffffffffffffffffffffffffffffffffffffffff16815260200190815260200160002060008473ffffffffffffffffffffffffffffffffffffffff1673ffffffffffffffffffffffffffffffffffffffff16815260200190815260200160002060006101000a81548160ff0219169083151502179055508173ffffffffffffffffffffffffffffffffffffffff166110ca611962565b73ffffffffffffffffffffffffffffffffffffffff167f17307eab39ab6107e8899845ad3d59bd9653f200f220920489ca2b5937696c318360405180821515815260200191505060405180910390a35050565b61112e611128611962565b83612239565b611183576040517f08c379a00000000000000000000000000000000000000000000000000000000081526004018080602001828103825260318152602001806155a06031913960400191505060405180910390fd5b61118f848484846125ea565b50505050565b6111a8836111a3601361265c565b61266a565b6111bb6111b5601361265c565b83612688565b33600f60006111ca601361265c565b815260200190815260200160002060006101000a81548173ffffffffffffffffffffffffffffffffffffffff021916908373ffffffffffffffffffffffffffffffffffffffff1602179055508060116000611225601361265c565b815260200190815260200160002081905550601260009054906101000a900473ffffffffffffffffffffffffffffffffffffffff1673ffffffffffffffffffffffffffffffffffffffff1663c7fafb3b3385611281601361265c565b86866040518663ffffffff1660e01b81526004016112a3959493929190614c75565b600060405180830381600087803b1580156112bd57600080fd5b505af11580156112d1573d6000803e3d6000fd5b505050506112df6013612712565b505050565b60606112ef82611945565b611344576040517f08c379a000000000000000000000000000000000000000000000000000000000815260040180806020018281038252602f815260200180615521602f913960400191505060405180910390fd5b6000600c60008481526020019081526020016000208054600181600116156101000203166002900480601f0160208091040260200160405190810160405280929190818152602001828054600181600116156101000203166002900480156113ed5780601f106113c2576101008083540402835291602001916113ed565b820191906000526020600020905b8154815290600101906020018083116113d057829003601f168201915b505050505090506000600d805460018160011615610100020316600290049050141561141c57809150506115c8565b6000815111156114f557600d8160405160200180838054600181600116156101000203166002900480156114875780601f10611465576101008083540402835291820191611487565b820191906000526020600020905b815481529060010190602001808311611473575b505082805190602001908083835b602083106114b85780518252602082019150602081019050602083039250611495565b6001836020036101000a038019825116818451168082178552505050505050905001925050506040516020818303038152906040529150506115c8565b600d61150084612728565b604051602001808380546001816001161561010002031660029004801561155e5780601f1061153c57610100808354040283529182019161155e565b820191906000526020600020905b81548152906001019060200180831161154a575b505082805190602001908083835b6020831061158f578051825260208201915060208101905060208303925061156c565b6001836020036101000a038019825116818451168082178552505050505050905001925050506040516020818303038152906040529150505b919050565b60606115da83838c611a38565b90509998505050505050505050565b6000600960008473ffffffffffffffffffffffffffffffffffffffff1673ffffffffffffffffffffffffffffffffffffffff16815260200190815260200160002060008373ffffffffffffffffffffffffffffffffffffffff1673ffffffffffffffffffffffffffffffffffffffff16815260200190815260200160002060009054906101000a900460ff16905092915050565b611685611962565b73ffffffffffffffffffffffffffffffffffffffff16600e60009054906101000a900473ffffffffffffffffffffffffffffffffffffffff1673ffffffffffffffffffffffffffffffffffffffff1614611747576040517f08c379a00000000000000000000000000000000000000000000000000000000081526004018080602001828103825260208152602001807f4f776e61626c653a2063616c6c6572206973206e6f7420746865206f776e657281525060200191505060405180910390fd5b600073ffffffffffffffffffffffffffffffffffffffff168173ffffffffffffffffffffffffffffffffffffffff1614156117cd576040517f08c379a000000000000000000000000000000000000000000000000000000000815260040180806020018281038252602681526020018061534a6026913960400191505060405180910390fd5b8073ffffffffffffffffffffffffffffffffffffffff16600e60009054906101000a900473ffffffffffffffffffffffffffffffffffffffff1673ffffffffffffffffffffffffffffffffffffffff167f8be0079c531659141344cd1fd0a4f28419497f9722a3daafe3b4186f6b6457e060405160405180910390a380600e60006101000a81548173ffffffffffffffffffffffffffffffffffffffff021916908373ffffffffffffffffffffffffffffffffffffffff16021790555050565b3373ffffffffffffffffffffffffffffffffffffffff16600f600084815260200190815260200160002060009054906101000a900473ffffffffffffffffffffffffffffffffffffffff1673ffffffffffffffffffffffffffffffffffffffff161461192e576040517f08c379a000000000000000000000000000000000000000000000000000000000815260040161192590614f77565b60405180910390fd5b611941813361193c85610b0f565b61286f565b5050565b600061195b826006612c4690919063ffffffff16565b9050919050565b600033905090565b816008600083815260200190815260200160002060006101000a81548173ffffffffffffffffffffffffffffffffffffffff021916908373ffffffffffffffffffffffffffffffffffffffff160217905550808273ffffffffffffffffffffffffffffffffffffffff166119dd83610b0f565b73ffffffffffffffffffffffffffffffffffffffff167f8c5be1e5ebec7d5bd14f71427d1e84f3dd0314c0f7b2291e5b200ac8c7c3b92560405160405180910390a45050565b6000611a3182600001612c60565b9050919050565b606083838080601f016020809104026020016040519081016040528093929190818152602001838380828437600081840152601f19601f8201169050808301925050505050505090506000600260009054906101000a900473ffffffffffffffffffffffffffffffffffffffff1673ffffffffffffffffffffffffffffffffffffffff16633f6c923a86866040518363ffffffff1660e01b8152600401611ae0929190614d21565b60006040518083038186803b158015611af857600080fd5b505afa158015611b0c573d6000803e3d6000fd5b505050506040513d6000823e3d601f19601f82011682018060405250810190611b3591906148c5565b60a00151806020019051810190611b4c919061492f565b90506000611b5982610b0f565b9050836010600084815260200190815260200160002060006101000a81548173ffffffffffffffffffffffffffffffffffffffff021916908373ffffffffffffffffffffffffffffffffffffffff1602179055506000600360009054906101000a900473ffffffffffffffffffffffffffffffffffffffff1673ffffffffffffffffffffffffffffffffffffffff1663e8e7e2d186306040518363ffffffff1660e01b8152600401611c0c929190614e1d565b60206040518083038186803b158015611c2457600080fd5b505afa158015611c38573d6000803e3d6000fd5b505050506040513d601f19601f82011682018060405250810190611c5c919061489c565b90506000600360009054906101000a900473ffffffffffffffffffffffffffffffffffffffff1673ffffffffffffffffffffffffffffffffffffffff1663e6a1e8888730866040518463ffffffff1660e01b8152600401611cbf93929190614e46565b60806040518083038186803b158015611cd757600080fd5b505afa158015611ceb573d6000803e3d6000fd5b505050506040513d601f19601f82011682018060405250810190611d0f9190614994565b5050915050600081830190506000600b0b81600b0b1415611ed257600260009054906101000a900473ffffffffffffffffffffffffffffffffffffffff1673ffffffffffffffffffffffffffffffffffffffff16634329d293600360009054906101000a900473ffffffffffffffffffffffffffffffffffffffff1663b4b333c660e01b8a3089600067ffffffffffffffff81118015611dae57600080fd5b506040519080825280601f01601f191660200182016040528015611de15781602001600182028036833780820191505090505b50604051602401611df59493929190614e7d565b604051602081830303815290604052907bffffffffffffffffffffffffffffffffffffffffffffffffffffffff19166020820180517bffffffffffffffffffffffffffffffffffffffffffffffffffffffff8381831617835250505050896040518463ffffffff1660e01b8152600401611e7193929190614daa565b600060405180830381600087803b158015611e8b57600080fd5b505af1158015611e9f573d6000803e3d6000fd5b505050506040513d6000823e3d601f19601f82011682018060405250810190611ec891906146a1565b508096505061222d565b6000600b0b82600b0b1461208857600260009054906101000a900473ffffffffffffffffffffffffffffffffffffffff1673ffffffffffffffffffffffffffffffffffffffff16634329d293600360009054906101000a900473ffffffffffffffffffffffffffffffffffffffff166350209a6260e01b8a8886600067ffffffffffffffff81118015611f6457600080fd5b506040519080825280601f01601f191660200182016040528015611f975781602001600182028036833780820191505090505b50604051602401611fab9493929190614ec9565b604051602081830303815290604052907bffffffffffffffffffffffffffffffffffffffffffffffffffffffff19166020820180517bffffffffffffffffffffffffffffffffffffffffffffffffffffffff8381831617835250505050896040518463ffffffff1660e01b815260040161202793929190614daa565b600060405180830381600087803b15801561204157600080fd5b505af1158015612055573d6000803e3d6000fd5b505050506040513d6000823e3d601f19601f8201168201806040525081019061207e91906146a1565b508096505061222c565b600260009054906101000a900473ffffffffffffffffffffffffffffffffffffffff1673ffffffffffffffffffffffffffffffffffffffff16634329d293600360009054906101000a900473ffffffffffffffffffffffffffffffffffffffff166362fc305e60e01b8a8886600067ffffffffffffffff8111801561210c57600080fd5b506040519080825280601f01601f19166020018201604052801561213f5781602001600182028036833780820191505090505b506040516024016121539493929190614ec9565b604051602081830303815290604052907bffffffffffffffffffffffffffffffffffffffffffffffffffffffff19166020820180517bffffffffffffffffffffffffffffffffffffffffffffffffffffffff8381831617835250505050896040518463ffffffff1660e01b81526004016121cf93929190614daa565b600060405180830381600087803b1580156121e957600080fd5b505af11580156121fd573d6000803e3d6000fd5b505050506040513d6000823e3d601f19601f8201168201806040525081019061222691906146a1565b50809650505b5b50505050509392505050565b600061224482611945565b612299576040517f08c379a000000000000000000000000000000000000000000000000000000000815260040180806020018281038252602c8152602001806153c7602c913960400191505060405180910390fd5b60006122a483610b0f565b90508073ffffffffffffffffffffffffffffffffffffffff168473ffffffffffffffffffffffffffffffffffffffff16148061231357508373ffffffffffffffffffffffffffffffffffffffff166122fb846106f3565b73ffffffffffffffffffffffffffffffffffffffff16145b80612324575061232381856115e9565b5b91505092915050565b8273ffffffffffffffffffffffffffffffffffffffff1661234d82610b0f565b73ffffffffffffffffffffffffffffffffffffffff16146123b9576040517f08c379a00000000000000000000000000000000000000000000000000000000081526004018080602001828103825260298152602001806154f86029913960400191505060405180910390fd5b600073ffffffffffffffffffffffffffffffffffffffff168273ffffffffffffffffffffffffffffffffffffffff16141561243f576040517f08c379a00000000000000000000000000000000000000000000000000000000081526004018080602001828103825260248152602001806153a36024913960400191505060405180910390fd5b61244a838383612c71565b61245560008261196a565b6124a681600560008673ffffffffffffffffffffffffffffffffffffffff1673ffffffffffffffffffffffffffffffffffffffff168152602001908152602001600020612cb690919063ffffffff16565b506124f881600560008573ffffffffffffffffffffffffffffffffffffffff1673ffffffffffffffffffffffffffffffffffffffff168152602001908152602001600020612cd090919063ffffffff16565b5061250f81836006612cea9092919063ffffffff16565b50808273ffffffffffffffffffffffffffffffffffffffff168473ffffffffffffffffffffffffffffffffffffffff167fddf252ad1be2c89b69c2b068fc378daa952ba7f163c4a11628f55a4df523b3ef60405160405180910390a4505050565b600061257f8360000183612d1f565b60001c905092915050565b60008060008061259d8660000186612da2565b915091508160001c8160001c9350935050509250929050565b60006125c9846000018460001b84612e3b565b60001c90509392505050565b60006125e382600001612f31565b9050919050565b6125f584848461232d565b61260184848484612f42565b612656576040517f08c379a00000000000000000000000000000000000000000000000000000000081526004018080602001828103825260328152602001806153186032913960400191505060405180910390fd5b50505050565b600081600001549050919050565b61268482826040518060200160405280600081525061315b565b5050565b61269182611945565b6126e6576040517f08c379a000000000000000000000000000000000000000000000000000000000815260040180806020018281038252602c8152602001806154cc602c913960400191505060405180910390fd5b80600c6000848152602001908152602001600020908051906020019061270d929190613fb8565b505050565b6001816000016000828254019250508190555050565b60606000821415612770576040518060400160405280600181526020017f3000000000000000000000000000000000000000000000000000000000000000815250905061286a565b600082905060005b6000821461279a578080600101915050600a828161279257fe5b049150612778565b60008167ffffffffffffffff811180156127b357600080fd5b506040519080825280601f01601f1916602001820160405280156127e65781602001600182028036833780820191505090505b50905060006001830390508593505b6000841461286257600a848161280757fe5b0660300160f81b8282806001900393508151811061282157fe5b60200101907effffffffffffffffffffffffffffffffffffffffffffffffffffffffffffff1916908160001a905350600a848161285a57fe5b0493506127f5565b819450505050505b919050565b6000839050600260009054906101000a900473ffffffffffffffffffffffffffffffffffffffff1673ffffffffffffffffffffffffffffffffffffffff166339255d5b600360009054906101000a900473ffffffffffffffffffffffffffffffffffffffff1663b4b333c660e01b848787600067ffffffffffffffff811180156128f857600080fd5b506040519080825280601f01601f19166020018201604052801561292b5781602001600182028036833780820191505090505b50604051602401808573ffffffffffffffffffffffffffffffffffffffff1681526020018473ffffffffffffffffffffffffffffffffffffffff1681526020018373ffffffffffffffffffffffffffffffffffffffff16815260200180602001828103825283818151815260200191508051906020019080838360005b838110156129c35780820151818401526020810190506129a8565b50505050905090810190601f1680156129f05780820380516001836020036101000a031916815260200191505b5095505050505050604051602081830303815290604052907bffffffffffffffffffffffffffffffffffffffffffffffffffffffff19166020820180517bffffffffffffffffffffffffffffffffffffffffffffffffffffffff83818316178352505050506040518363ffffffff1660e01b8152600401808373ffffffffffffffffffffffffffffffffffffffff1681526020018060200180602001838103835284818151815260200191508051906020019080838360005b83811015612ac4578082015181840152602081019050612aa9565b50505050905090810190601f168015612af15780820380516001836020036101000a031916815260200191505b50838103825260028152602001807f3078000000000000000000000000000000000000000000000000000000000000815250602001945050505050600060405180830381600087803b158015612b4657600080fd5b505af1158015612b5a573d6000803e3d6000fd5b505050506040513d6000823e3d601f19601f820116820180604052506020811015612b8457600080fd5b8101908080516040519392919084640100000000821115612ba457600080fd5b83820191506020820185811115612bba57600080fd5b8251866001820283011164010000000082111715612bd757600080fd5b8083526020830192505050908051906020019080838360005b83811015612c0b578082015181840152602081019050612bf0565b50505050905090810190601f168015612c385780820380516001836020036101000a031916815260200191505b506040525050505050505050565b6000612c58836000018360001b6131cc565b905092915050565b600081600001805490509050919050565b600073ffffffffffffffffffffffffffffffffffffffff168373ffffffffffffffffffffffffffffffffffffffff1614612cb157612cb08383836131ef565b5b505050565b6000612cc8836000018360001b613905565b905092915050565b6000612ce2836000018360001b6139ed565b905092915050565b6000612d16846000018460001b8473ffffffffffffffffffffffffffffffffffffffff1660001b613a5d565b90509392505050565b600081836000018054905011612d80576040517f08c379a00000000000000000000000000000000000000000000000000000000081526004018080602001828103825260228152602001806152f66022913960400191505060405180910390fd5b826000018281548110612d8f57fe5b9060005260206000200154905092915050565b60008082846000018054905011612e04576040517f08c379a000000000000000000000000000000000000000000000000000000000815260040180806020018281038252602281526020018061547e6022913960400191505060405180910390fd5b6000846000018481548110612e1557fe5b906000526020600020906002020190508060000154816001015492509250509250929050565b60008084600101600085815260200190815260200160002054905060008114158390612f02576040517f08c379a00000000000000000000000000000000000000000000000000000000081526004018080602001828103825283818151815260200191508051906020019080838360005b83811015612ec7578082015181840152602081019050612eac565b50505050905090810190601f168015612ef45780820380516001836020036101000a031916815260200191505b509250505060405180910390fd5b50846000016001820381548110612f1557fe5b9060005260206000209060020201600101549150509392505050565b600081600001805490509050919050565b6000612f638473ffffffffffffffffffffffffffffffffffffffff16613b39565b612f705760019050613153565b60006130da63150b7a0260e01b612f85611962565b888787604051602401808573ffffffffffffffffffffffffffffffffffffffff1681526020018473ffffffffffffffffffffffffffffffffffffffff16815260200183815260200180602001828103825283818151815260200191508051906020019080838360005b83811015613009578082015181840152602081019050612fee565b50505050905090810190601f1680156130365780820380516001836020036101000a031916815260200191505b5095505050505050604051602081830303815290604052907bffffffffffffffffffffffffffffffffffffffffffffffffffffffff19166020820180517bffffffffffffffffffffffffffffffffffffffffffffffffffffffff8381831617835250505050604051806060016040528060328152602001615318603291398773ffffffffffffffffffffffffffffffffffffffff16613b849092919063ffffffff16565b905060008180602001905160208110156130f357600080fd5b8101908080519060200190929190505050905063150b7a0260e01b7bffffffffffffffffffffffffffffffffffffffffffffffffffffffff1916817bffffffffffffffffffffffffffffffffffffffffffffffffffffffff191614925050505b949350505050565b6131658383613b9c565b6131726000848484612f42565b6131c7576040517f08c379a00000000000000000000000000000000000000000000000000000000081526004018080602001828103825260328152602001806153186032913960400191505060405180910390fd5b505050565b600080836001016000848152602001908152602001600020541415905092915050565b600073ffffffffffffffffffffffffffffffffffffffff168273ffffffffffffffffffffffffffffffffffffffff16141561325f576040517f08c379a000000000000000000000000000000000000000000000000000000000815260040161325690614f37565b60405180910390fd5b600260009054906101000a900473ffffffffffffffffffffffffffffffffffffffff1673ffffffffffffffffffffffffffffffffffffffff16633ca3ad4e836040518263ffffffff1660e01b81526004016132ba9190614e02565b60206040518083038186803b1580156132d257600080fd5b505afa1580156132e6573d6000803e3d6000fd5b505050506040513d601f19601f8201168201806040525081019061330a919061460e565b1561334a576040517f08c379a000000000000000000000000000000000000000000000000000000000815260040161334190614f57565b60405180910390fd5b61335381610b0f565b73ffffffffffffffffffffffffffffffffffffffff168273ffffffffffffffffffffffffffffffffffffffff16141561338b57613900565b60006010600083815260200190815260200160002060009054906101000a900473ffffffffffffffffffffffffffffffffffffffff1690506000600360009054906101000a900473ffffffffffffffffffffffffffffffffffffffff1673ffffffffffffffffffffffffffffffffffffffff1663e6a1e8888330886040518463ffffffff1660e01b815260040161342493929190614e46565b60806040518083038186803b15801561343c57600080fd5b505afa158015613450573d6000803e3d6000fd5b505050506040513d601f19601f820116820180604052508101906134749190614994565b5050915050600081600b0b131561386c57600260009054906101000a900473ffffffffffffffffffffffffffffffffffffffff1673ffffffffffffffffffffffffffffffffffffffff166339255d5b600360009054906101000a900473ffffffffffffffffffffffffffffffffffffffff1663b4b333c660e01b85308a600067ffffffffffffffff8111801561350957600080fd5b506040519080825280601f01601f19166020018201604052801561353c5781602001600182028036833780820191505090505b506040516024016135509493929190614e7d565b604051602081830303815290604052907bffffffffffffffffffffffffffffffffffffffffffffffffffffffff19166020820180517bffffffffffffffffffffffffffffffffffffffffffffffffffffffff83818316178352505050506040518363ffffffff1660e01b81526004016135ca929190614d67565b600060405180830381600087803b1580156135e457600080fd5b505af11580156135f8573d6000803e3d6000fd5b505050506040513d6000823e3d601f19601f820116820180604052508101906136219190614660565b50600260009054906101000a900473ffffffffffffffffffffffffffffffffffffffff1673ffffffffffffffffffffffffffffffffffffffff166339255d5b600360009054906101000a900473ffffffffffffffffffffffffffffffffffffffff166362fc305e60e01b8588600360009054906101000a900473ffffffffffffffffffffffffffffffffffffffff1673ffffffffffffffffffffffffffffffffffffffff1663e8e7e2d189306040518363ffffffff1660e01b81526004016136ea929190614e1d565b60206040518083038186803b15801561370257600080fd5b505afa158015613716573d6000803e3d6000fd5b505050506040513d601f19601f8201168201806040525081019061373a919061489c565b600067ffffffffffffffff8111801561375257600080fd5b506040519080825280601f01601f1916602001820160405280156137855781602001600182028036833780820191505090505b506040516024016137999493929190614ec9565b604051602081830303815290604052907bffffffffffffffffffffffffffffffffffffffffffffffffffffffff19166020820180517bffffffffffffffffffffffffffffffffffffffffffffffffffffffff83818316178352505050506040518363ffffffff1660e01b8152600401613813929190614d67565b600060405180830381600087803b15801561382d57600080fd5b505af1158015613841573d6000803e3d6000fd5b505050506040513d6000823e3d601f19601f8201168201806040525081019061386a9190614660565b505b601260009054906101000a900473ffffffffffffffffffffffffffffffffffffffff1673ffffffffffffffffffffffffffffffffffffffff1663741ca6bb8686866040518463ffffffff1660e01b81526004016138cb93929190614ccf565b600060405180830381600087803b1580156138e557600080fd5b505af11580156138f9573d6000803e3d6000fd5b5050505050505b505050565b600080836001016000848152602001908152602001600020549050600081146139e1576000600182039050600060018660000180549050039050600086600001828154811061395057fe5b906000526020600020015490508087600001848154811061396d57fe5b90600052602060002001819055506001830187600101600083815260200190815260200160002081905550866000018054806139a557fe5b600190038181906000526020600020016000905590558660010160008781526020019081526020016000206000905560019450505050506139e7565b60009150505b92915050565b60006139f98383613d90565b613a52578260000182908060018154018082558091505060019003906000526020600020016000909190919091505582600001805490508360010160008481526020019081526020016000208190555060019050613a57565b600090505b92915050565b6000808460010160008581526020019081526020016000205490506000811415613b0457846000016040518060400160405280868152602001858152509080600181540180825580915050600190039060005260206000209060020201600090919091909150600082015181600001556020820151816001015550508460000180549050856001016000868152602001908152602001600020819055506001915050613b32565b82856000016001830381548110613b1757fe5b90600052602060002090600202016001018190555060009150505b9392505050565b60008060007fc5d2460186f7233c927e7db2dcc703c0e500b653ca82273b7bfad8045d85a47060001b9050833f9150808214158015613b7b57506000801b8214155b92505050919050565b6060613b938484600085613db3565b90509392505050565b600073ffffffffffffffffffffffffffffffffffffffff168273ffffffffffffffffffffffffffffffffffffffff161415613c3f576040517f08c379a00000000000000000000000000000000000000000000000000000000081526004018080602001828103825260208152602001807f4552433732313a206d696e7420746f20746865207a65726f206164647265737381525060200191505060405180910390fd5b613c4881611945565b15613cbb576040517f08c379a000000000000000000000000000000000000000000000000000000000815260040180806020018281038252601c8152602001807f4552433732313a20746f6b656e20616c7265616479206d696e7465640000000081525060200191505060405180910390fd5b613cc760008383612c71565b613d1881600560008573ffffffffffffffffffffffffffffffffffffffff1673ffffffffffffffffffffffffffffffffffffffff168152602001908152602001600020612cd090919063ffffffff16565b50613d2f81836006612cea9092919063ffffffff16565b50808273ffffffffffffffffffffffffffffffffffffffff16600073ffffffffffffffffffffffffffffffffffffffff167fddf252ad1be2c89b69c2b068fc378daa952ba7f163c4a11628f55a4df523b3ef60405160405180910390a45050565b600080836001016000848152602001908152602001600020541415905092915050565b6060613dbe85613b39565b613e30576040517f08c379a000000000000000000000000000000000000000000000000000000000815260040180806020018281038252601d8152602001807f416464726573733a2063616c6c20746f206e6f6e2d636f6e747261637400000081525060200191505060405180910390fd5b6000808673ffffffffffffffffffffffffffffffffffffffff1685876040518082805190602001908083835b60208310613e7f5780518252602082019150602081019050602083039250613e5c565b6001836020036101000a03801982511681845116808217855250505050505090500191505060006040518083038185875af1925050503d8060008114613ee1576040519150601f19603f3d011682016040523d82523d6000602084013e613ee6565b606091505b50915091508115613efb578092505050613fb0565b600081511115613f0e5780518082602001fd5b836040517f08c379a00000000000000000000000000000000000000000000000000000000081526004018080602001828103825283818151815260200191508051906020019080838360005b83811015613f75578082015181840152602081019050613f5a565b50505050905090810190601f168015613fa25780820380516001836020036101000a031916815260200191505b509250505060405180910390fd5b949350505050565b828054600181600116156101000203166002900490600052602060002090601f016020900481019282613fee5760008555614035565b82601f1061400757805160ff1916838001178555614035565b82800160010185558215614035579182015b82811115614034578251825591602001919060010190614019565b5b5090506140429190614046565b5090565b5b8082111561405f576000816000905550600101614047565b5090565b600061407661407184614fe3565b614fb2565b90508281526020810184848401111561408e57600080fd5b6140998482856151d1565b509392505050565b60006140b46140af84614fe3565b614fb2565b9050828152602081018484840111156140cc57600080fd5b6140d78482856151e0565b509392505050565b60006140f26140ed84615013565b614fb2565b90508281526020810184848401111561410a57600080fd5b6141158482856151d1565b509392505050565b60008135905061412c81615226565b92915050565b60008151905061414181615226565b92915050565b6000813590506141568161523d565b92915050565b60008151905061416b8161523d565b92915050565b60008135905061418081615254565b92915050565b6000813590506141958161526b565b92915050565b6000815190506141aa8161526b565b92915050565b60008083601f8401126141c257600080fd5b8235905067ffffffffffffffff8111156141db57600080fd5b6020830191508360018202830111156141f357600080fd5b9250929050565b600082601f83011261420b57600080fd5b813561421b848260208601614063565b91505092915050565b600082601f83011261423557600080fd5b81516142458482602086016140a1565b91505092915050565b60008135905061425d81615282565b92915050565b60008151905061427281615299565b92915050565b600081519050614287816152b0565b92915050565b600082601f83011261429e57600080fd5b81356142ae8482602086016140df565b91505092915050565b600061014082840312156142ca57600080fd5b6142d5610140614fb2565b905060006142e5848285016143eb565b60008301525060206142f9848285016143eb565b602083015250604061430d848285016143d6565b604083015250606061432184828501614132565b60608301525060806143358482850161419b565b60808301525060a082015167ffffffffffffffff81111561435557600080fd5b61436184828501614224565b60a08301525060c0614375848285016143d6565b60c08301525060e0614389848285016143d6565b60e08301525061010061439e84828501614263565b610100830152506101206143b484828501614132565b6101208301525092915050565b6000813590506143d0816152c7565b92915050565b6000815190506143e5816152c7565b92915050565b6000815190506143fa816152de565b92915050565b60006020828403121561441257600080fd5b60006144208482850161411d565b91505092915050565b6000806040838503121561443c57600080fd5b600061444a8582860161411d565b925050602061445b8582860161411d565b9150509250929050565b60008060006060848603121561447a57600080fd5b60006144888682870161411d565b93505060206144998682870161411d565b92505060406144aa868287016143c1565b9150509250925092565b600080600080608085870312156144ca57600080fd5b60006144d88782880161411d565b94505060206144e98782880161411d565b93505060406144fa878288016143c1565b925050606085013567ffffffffffffffff81111561451757600080fd5b614523878288016141fa565b91505092959194509250565b6000806040838503121561454257600080fd5b60006145508582860161411d565b925050602061456185828601614147565b9150509250929050565b60008060006060848603121561458057600080fd5b600061458e8682870161411d565b935050602084013567ffffffffffffffff8111156145ab57600080fd5b6145b78682870161428d565b92505060406145c8868287016143c1565b9150509250925092565b600080604083850312156145e557600080fd5b60006145f38582860161411d565b9250506020614604858286016143c1565b9150509250929050565b60006020828403121561462057600080fd5b600061462e8482850161415c565b91505092915050565b60006020828403121561464957600080fd5b600061465784828501614186565b91505092915050565b60006020828403121561467257600080fd5b600082015167ffffffffffffffff81111561468c57600080fd5b61469884828501614224565b91505092915050565b600080604083850312156146b457600080fd5b600083015167ffffffffffffffff8111156146ce57600080fd5b6146da85828601614224565b925050602083015167ffffffffffffffff8111156146f757600080fd5b61470385828601614224565b9150509250929050565b600080600080600080600060a0888a03121561472857600080fd5b60006147368a828b0161424e565b97505060206147478a828b0161411d565b96505060406147588a828b01614171565b955050606088013567ffffffffffffffff81111561477557600080fd5b6147818a828b016141b0565b9450945050608088013567ffffffffffffffff8111156147a057600080fd5b6147ac8a828b016141b0565b925092505092959891949750929550565b600080600080600080600080600060c08a8c0312156147db57600080fd5b60006147e98c828d0161424e565b99505060206147fa8c828d0161411d565b985050604061480b8c828d01614171565b97505060608a013567ffffffffffffffff81111561482857600080fd5b6148348c828d016141b0565b965096505060808a013567ffffffffffffffff81111561485357600080fd5b61485f8c828d016141b0565b945094505060a08a013567ffffffffffffffff81111561487e57600080fd5b61488a8c828d016141b0565b92509250509295985092959850929598565b6000602082840312156148ae57600080fd5b60006148bc84828501614278565b91505092915050565b6000602082840312156148d757600080fd5b600082015167ffffffffffffffff8111156148f157600080fd5b6148fd848285016142b7565b91505092915050565b60006020828403121561491857600080fd5b6000614926848285016143c1565b91505092915050565b60006020828403121561494157600080fd5b600061494f848285016143d6565b91505092915050565b6000806040838503121561496b57600080fd5b6000614979858286016143c1565b925050602061498a8582860161411d565b9150509250929050565b600080600080608085870312156149aa57600080fd5b60006149b8878288016143d6565b94505060206149c987828801614278565b93505060406149da878288016143d6565b92505060606149eb878288016143d6565b91505092959194509250565b614a008161512f565b82525050565b614a0f8161507b565b82525050565b614a1e8161508d565b82525050565b6000614a308385615059565b9350614a3d8385846151d1565b614a4683615215565b840190509392505050565b6000614a5c82615043565b614a668185615059565b9350614a768185602086016151e0565b614a7f81615215565b840191505092915050565b614a9381615141565b82525050565b614aa281615165565b82525050565b614ab181615189565b82525050565b614ac0816150eb565b82525050565b6000614ad18261504e565b614adb818561506a565b9350614aeb8185602086016151e0565b614af481615215565b840191505092915050565b6000614b0c600283615059565b91507f30780000000000000000000000000000000000000000000000000000000000006000830152602082019050919050565b6000614b4c601c8361506a565b91507f4e6577207265636569766572206973207a65726f2061646472657373000000006000830152602082019050919050565b6000614b8c60228361506a565b91507f4e65772072656365697665722063616e206e6f7420626520612073757065724160008301527f70700000000000000000000000000000000000000000000000000000000000006020830152604082019050919050565b6000614bf260308361506a565b91507f4f6e6c79207468652063726561746f72206f6620746865204e465420636f756c60008301527f642073746f702074686520666c6f7720000000000000000000000000000000006020830152604082019050919050565b614c5481615118565b82525050565b6000602082019050614c6f6000830184614a06565b92915050565b600060a082019050614c8a60008301886149f7565b614c976020830187614a06565b614ca46040830186614c4b565b8181036060830152614cb68185614ac6565b9050614cc56080830184614c4b565b9695505050505050565b6000606082019050614ce46000830186614a06565b614cf16020830185614a06565b614cfe6040830184614c4b565b949350505050565b6000602082019050614d1b6000830184614a15565b92915050565b60006020820190508181036000830152614d3c818486614a24565b90509392505050565b60006020820190508181036000830152614d5f8184614a51565b905092915050565b6000606082019050614d7c6000830185614a8a565b8181036020830152614d8e8184614a51565b90508181036040830152614da181614aff565b90509392505050565b6000608082019050614dbf6000830186614a8a565b8181036020830152614dd18185614a51565b90508181036040830152614de481614aff565b90508181036060830152614df88184614a51565b9050949350505050565b6000602082019050614e176000830184614a99565b92915050565b6000604082019050614e326000830185614aa8565b614e3f6020830184614a06565b9392505050565b6000606082019050614e5b6000830186614aa8565b614e686020830185614a06565b614e756040830184614a06565b949350505050565b6000608082019050614e926000830187614aa8565b614e9f6020830186614a06565b614eac6040830185614a06565b8181036060830152614ebe8184614a51565b905095945050505050565b6000608082019050614ede6000830187614aa8565b614eeb6020830186614a06565b614ef86040830185614ab7565b8181036060830152614f0a8184614a51565b905095945050505050565b60006020820190508181036000830152614f2f8184614ac6565b905092915050565b60006020820190508181036000830152614f5081614b3f565b9050919050565b60006020820190508181036000830152614f7081614b7f565b9050919050565b60006020820190508181036000830152614f9081614be5565b9050919050565b6000602082019050614fac6000830184614c4b565b92915050565b6000604051905081810181811067ffffffffffffffff82111715614fd957614fd8615213565b5b8060405250919050565b600067ffffffffffffffff821115614ffe57614ffd615213565b5b601f19601f8301169050602081019050919050565b600067ffffffffffffffff82111561502e5761502d615213565b5b601f19601f8301169050602081019050919050565b600081519050919050565b600081519050919050565b600082825260208201905092915050565b600082825260208201905092915050565b6000615086826150f8565b9050919050565b60008115159050919050565b6000819050919050565b60007fffffffff0000000000000000000000000000000000000000000000000000000082169050919050565b60006150da8261507b565b9050919050565b6000819050919050565b600081600b0b9050919050565b600073ffffffffffffffffffffffffffffffffffffffff82169050919050565b6000819050919050565b600060ff82169050919050565b600061513a826151ad565b9050919050565b600061514c82615153565b9050919050565b600061515e826150f8565b9050919050565b600061517082615177565b9050919050565b6000615182826150f8565b9050919050565b60006151948261519b565b9050919050565b60006151a6826150f8565b9050919050565b60006151b8826151bf565b9050919050565b60006151ca826150f8565b9050919050565b82818337600083830152505050565b60005b838110156151fe5780820151818401526020810190506151e3565b8381111561520d576000848401525b50505050565bfe5b6000601f19601f8301169050919050565b61522f8161507b565b811461523a57600080fd5b50565b6152468161508d565b811461525157600080fd5b50565b61525d81615099565b811461526857600080fd5b50565b615274816150a3565b811461527f57600080fd5b50565b61528b816150cf565b811461529657600080fd5b50565b6152a2816150e1565b81146152ad57600080fd5b50565b6152b9816150eb565b81146152c457600080fd5b50565b6152d081615118565b81146152db57600080fd5b50565b6152e781615122565b81146152f257600080fd5b5056fe456e756d657261626c655365743a20696e646578206f7574206f6620626f756e64734552433732313a207472616e7366657220746f206e6f6e20455243373231526563656976657220696d706c656d656e7465724f776e61626c653a206e6577206f776e657220697320746865207a65726f2061646472657373556e737570706f727465642063616c6c6261636b202d20204265666f72652041677265656d656e74205465726d696e617465644552433732313a207472616e7366657220746f20746865207a65726f20616464726573734552433732313a206f70657261746f7220717565727920666f72206e6f6e6578697374656e7420746f6b656e4552433732313a20617070726f76652063616c6c6572206973206e6f74206f776e6572206e6f7220617070726f76656420666f7220616c6c4552433732313a2062616c616e636520717565727920666f7220746865207a65726f20616464726573734552433732313a206f776e657220717565727920666f72206e6f6e6578697374656e7420746f6b656e456e756d657261626c654d61703a20696e646578206f7574206f6620626f756e64734552433732313a20617070726f76656420717565727920666f72206e6f6e6578697374656e7420746f6b656e4552433732314d657461646174613a2055524920736574206f66206e6f6e6578697374656e7420746f6b656e4552433732313a207472616e73666572206f6620746f6b656e2074686174206973206e6f74206f776e4552433732314d657461646174613a2055524920717565727920666f72206e6f6e6578697374656e7420746f6b656e4552433732313a20617070726f76616c20746f2063757272656e74206f776e6572556e737570706f727465642063616c6c6261636b202d204265666f72652041677265656d656e7420757064617465644552433732313a207472616e736665722063616c6c6572206973206e6f74206f776e6572206e6f7220617070726f766564556e737570706f727465642063616c6c6261636b202d204265666f72652041677265656d656e742043726561746564a2646970667358221220decd1c61f14996c02becc61fe0243c959b0c29fd5b013bc9ba09169a7fb021f664736f6c63430007060033",
  "immutableReferences": {},
  "source": "// SPDX-License-Identifier: MIT\npragma solidity ^0.7.0;\npragma abicoder v2;\n\nimport \"@openzeppelin/contracts/token/ERC721/ERC721.sol\";\nimport \"@openzeppelin/contracts/access/Ownable.sol\";\nimport \"@openzeppelin/contracts/utils/Counters.sol\";\nimport \"./ManageFlows.sol\";\nimport \"./Emitter.sol\";\n\n//How do we add a flow before it is transferred to someone or the flow starts as soon as it is transferred to someone\ncontract SocialStreamableNFT is ManageFlows,ERC721, Ownable {\n    using Counters for Counters.Counter;\n    mapping (uint256=>address) _nftCreator;\n    mapping (uint256=>address) _nftToken;\n    mapping (uint256=>uint256) _royalty;\n\n    Emitter _emitter;\n\n    Counters.Counter private _tokenIdCounter;\n\n    constructor(ISuperfluid host,\n        IConstantFlowAgreementV1 cfa,address emitterAdd) ERC721(\"SocialStreamableNFT\", \"SSSNFT\") ManageFlows(host,cfa) {\n            _emitter=Emitter(emitterAdd);\n        }\n\n    function safeMint(address to,string memory tokenURI,uint256 royalty) public {\n        _safeMint(to, _tokenIdCounter.current());\n        _setTokenURI(_tokenIdCounter.current(), tokenURI);\n        _nftCreator[_tokenIdCounter.current()] = msg.sender;\n        _royalty[_tokenIdCounter.current()] = royalty;\n        _emitter.minted(msg.sender,to,_tokenIdCounter.current(),tokenURI,royalty);\n        _tokenIdCounter.increment();\n    }\n\n    function _burn(uint256 tokenId) internal override(ERC721) {\n        super._burn(tokenId);\n    }\n\n    // function createFlow(uint256 tokenId,address token,int96 flowRate) external {\n    //     require(ownerOf(tokenId)!=msg.sender,\"Flow could be created only after the NFT is bought by someone else\");\n    //     CreateFlow(token, ownerOf(tokenId), flowRate);\n    // }\n\n    function stopFlow(uint256 tokenId,address token) external {\n        require(_nftCreator[tokenId]==msg.sender,\"Only the creator of the NFT could stop the flow \");\n        StopFlow(token, msg.sender, ownerOf(tokenId));\n    }\n\n    function _beforeTokenTransfer(\n        address from,\n        address to,\n        uint256 tokenId\n    ) internal override {\n        \n        if(from!=address(0)){//When it is minted the address is set to zero, we don't need to change receiver in this case\n            _changeReceiver(from,to,tokenId);\n        }\n    }\n\n    function _updateOutflow(bytes calldata ctx,ISuperToken _acceptedToken)\n        private\n        returns (bytes memory newCtx)\n    {\n      newCtx = ctx;\n      //(std.itemsOrdered,std.units) = abi.decode(_host.decodeCtx(ctx).userData, (uint[3], uint[3]));\n      uint256 tokId = abi.decode(_host.decodeCtx(ctx).userData, (uint256));//Solidity\n      address _receiver = ownerOf(tokId);//TODO: How to make this generalized? Will have to decode the context data to get the tokenID\n      _nftToken[tokId] = address(_acceptedToken);\n      // @dev This will give me the new flowRate, as it is called in after callbacks\n      int96 netFlowRate = _cfa.getNetFlow(_acceptedToken, address(this));\n      (,int96 outFlowRate,,) = _cfa.getFlow(_acceptedToken, address(this), _receiver); // CHECK: unclear what happens if flow doesn't exist.\n      int96 inFlowRate = netFlowRate + outFlowRate;\n\n      // @dev If inFlowRate === 0, then delete existing flow.\n      if (inFlowRate == int96(0)) {\n        // @dev if inFlowRate is zero, delete outflow.\n          (newCtx, ) = _host.callAgreementWithContext(\n              _cfa,\n              abi.encodeWithSelector(\n                  _cfa.deleteFlow.selector,\n                  _acceptedToken,\n                  address(this),\n                  _receiver,\n                  new bytes(0) // placeholder\n              ),\n              \"0x\",\n              newCtx\n          );\n        } else if (outFlowRate != int96(0)){\n        (newCtx, ) = _host.callAgreementWithContext(\n            _cfa,\n            abi.encodeWithSelector(\n                _cfa.updateFlow.selector,\n                _acceptedToken,\n                _receiver,\n                inFlowRate,\n                new bytes(0) // placeholder\n            ),\n            \"0x\",\n            newCtx\n        );\n      } else {\n      // @dev If there is no existing outflow, then create new flow to equal inflow\n          (newCtx, ) = _host.callAgreementWithContext(\n              _cfa,\n              abi.encodeWithSelector(\n                  _cfa.createFlow.selector,\n                  _acceptedToken,\n                  _receiver,\n                  inFlowRate,\n                  new bytes(0) // placeholder\n              ),\n              \"0x\",\n              newCtx\n          );\n      }\n    }\n\n    // @dev Change the Receiver of the total flow\n    function _changeReceiver( address from,\n        address newReceiver,\n        uint256 tokenId ) internal {\n        require(newReceiver != address(0), \"New receiver is zero address\");\n        // @dev because our app is registered as final, we can't take downstream apps\n        require(!_host.isApp(ISuperApp(newReceiver)), \"New receiver can not be a superApp\");\n        if (newReceiver == ownerOf(tokenId)) return ;\n        // @dev delete flow to old receiver\n        ISuperToken _acceptedToken = ISuperToken(_nftToken[tokenId]);\n        (,int96 outFlowRate,,) = _cfa.getFlow(_acceptedToken, address(this), from); //CHECK: unclear what happens if flow doesn't exist.\n        if(outFlowRate > 0){\n          _host.callAgreement(\n              _cfa,\n              abi.encodeWithSelector(\n                  _cfa.deleteFlow.selector,\n                  _acceptedToken,\n                  address(this),\n                  from,\n                  new bytes(0)\n              ),\n              \"0x\"\n          );\n          // @dev create flow to new receiver\n          _host.callAgreement(\n              _cfa,\n              abi.encodeWithSelector(\n                  _cfa.createFlow.selector,\n                  _acceptedToken,\n                  newReceiver,\n                  _cfa.getNetFlow(_acceptedToken, address(this)),\n                  new bytes(0)\n              ),\n              \"0x\"\n          );\n        }\n        // @dev set global receiver to new receiver\n        \n        _emitter.nftTransferred(from,newReceiver,tokenId);\n    }\n\n    /**************************************************************************\n     * Superapp Callbacks\n     *************************************************************************/\n\n    // function beforeAgreementCreated(\n    //     ISuperToken superToken,\n    //     address agreementClass,\n    //     bytes32 agreementId,\n    //     bytes calldata agreementData,\n    //     bytes calldata ctx\n    // )\n    //     external\n    //     view\n    //     returns (bytes memory cbdata){\n\n    // }\n    \n    function afterAgreementCreated(\n        ISuperToken superToken,\n        address agreementClass,\n        bytes32 agreementId,\n        bytes calldata agreementData,\n        bytes calldata cbdata,\n        bytes calldata ctx\n    )\n    external override\n    returns (bytes memory newCtx){\n        return _updateOutflow(ctx,superToken);\n    }\n    \n    function afterAgreementUpdated(\n        ISuperToken superToken,\n        address agreementClass,\n        bytes32 agreementId,\n        bytes calldata agreementData,\n        bytes calldata cbdata,\n        bytes calldata ctx\n    )\n        external override\n        returns (bytes memory newCtx){\n            return _updateOutflow(ctx,superToken);\n            // return newCtx;\n        }\n    \n    function afterAgreementTerminated(\n        ISuperToken superToken,\n        address agreementClass,\n        bytes32 agreementId,\n        bytes calldata agreementData,\n        bytes calldata cbdata,\n        bytes calldata ctx\n    )\n        external override\n        returns (bytes memory newCtx){\n            newCtx=ctx;\n            return newCtx;\n        }\n}\n",
  "sourcePath": "/Users/praffulsahu/Documents/Crypto/StreamSocialToken/contracts/SocialStreamableNFT.sol",
  "compiler": {
    "name": "solc",
    "version": "0.7.6+commit.7338295f.Emscripten.clang"
  },
  "schemaVersion": "3.3.3",
  "updatedAt": "2021-08-01T12:49:56.076Z",
  "networkType": "ethereum",
  "devdoc": {
    "kind": "dev",
    "methods": {
      "approve(address,uint256)": {
        "details": "See {IERC721-approve}."
      },
      "balanceOf(address)": {
        "details": "See {IERC721-balanceOf}."
      },
      "baseURI()": {
        "details": "Returns the base URI set via {_setBaseURI}. This will be automatically added as a prefix in {tokenURI} to each token's URI, or to the token ID if no specific URI is set for that token ID."
      },
      "getApproved(uint256)": {
        "details": "See {IERC721-getApproved}."
      },
      "isApprovedForAll(address,address)": {
        "details": "See {IERC721-isApprovedForAll}."
      },
      "name()": {
        "details": "See {IERC721Metadata-name}."
      },
      "owner()": {
        "details": "Returns the address of the current owner."
      },
      "ownerOf(uint256)": {
        "details": "See {IERC721-ownerOf}."
      },
      "renounceOwnership()": {
        "details": "Leaves the contract without owner. It will not be possible to call `onlyOwner` functions anymore. Can only be called by the current owner. NOTE: Renouncing ownership will leave the contract without an owner, thereby removing any functionality that is only available to the owner."
      },
      "safeTransferFrom(address,address,uint256)": {
        "details": "See {IERC721-safeTransferFrom}."
      },
      "safeTransferFrom(address,address,uint256,bytes)": {
        "details": "See {IERC721-safeTransferFrom}."
      },
      "setApprovalForAll(address,bool)": {
        "details": "See {IERC721-setApprovalForAll}."
      },
      "supportsInterface(bytes4)": {
        "details": "See {IERC165-supportsInterface}. Time complexity O(1), guaranteed to always use less than 30 000 gas."
      },
      "symbol()": {
        "details": "See {IERC721Metadata-symbol}."
      },
      "tokenByIndex(uint256)": {
        "details": "See {IERC721Enumerable-tokenByIndex}."
      },
      "tokenOfOwnerByIndex(address,uint256)": {
        "details": "See {IERC721Enumerable-tokenOfOwnerByIndex}."
      },
      "tokenURI(uint256)": {
        "details": "See {IERC721Metadata-tokenURI}."
      },
      "totalSupply()": {
        "details": "See {IERC721Enumerable-totalSupply}."
      },
      "transferFrom(address,address,uint256)": {
        "details": "See {IERC721-transferFrom}."
      },
      "transferOwnership(address)": {
        "details": "Transfers ownership of the contract to a new account (`newOwner`). Can only be called by the current owner."
      }
    },
    "version": 1
  },
  "userdoc": {
    "kind": "user",
    "methods": {},
    "version": 1
  }
}