{
  "contractName": "SocialStreamableNFT",
  "abi": [
    {
      "inputs": [
        {
          "internalType": "contract ISuperfluid",
          "name": "host",
          "type": "address"
        },
        {
          "internalType": "contract IConstantFlowAgreementV1",
          "name": "cfa",
          "type": "address"
        }
      ],
      "stateMutability": "nonpayable",
      "type": "constructor"
    },
    {
      "anonymous": false,
      "inputs": [
        {
          "indexed": true,
          "internalType": "address",
          "name": "owner",
          "type": "address"
        },
        {
          "indexed": true,
          "internalType": "address",
          "name": "approved",
          "type": "address"
        },
        {
          "indexed": true,
          "internalType": "uint256",
          "name": "tokenId",
          "type": "uint256"
        }
      ],
      "name": "Approval",
      "type": "event"
    },
    {
      "anonymous": false,
      "inputs": [
        {
          "indexed": true,
          "internalType": "address",
          "name": "owner",
          "type": "address"
        },
        {
          "indexed": true,
          "internalType": "address",
          "name": "operator",
          "type": "address"
        },
        {
          "indexed": false,
          "internalType": "bool",
          "name": "approved",
          "type": "bool"
        }
      ],
      "name": "ApprovalForAll",
      "type": "event"
    },
    {
      "anonymous": false,
      "inputs": [
        {
          "indexed": true,
          "internalType": "address",
          "name": "previousOwner",
          "type": "address"
        },
        {
          "indexed": true,
          "internalType": "address",
          "name": "newOwner",
          "type": "address"
        }
      ],
      "name": "OwnershipTransferred",
      "type": "event"
    },
    {
      "anonymous": false,
      "inputs": [
        {
          "indexed": true,
          "internalType": "address",
          "name": "from",
          "type": "address"
        },
        {
          "indexed": true,
          "internalType": "address",
          "name": "to",
          "type": "address"
        },
        {
          "indexed": true,
          "internalType": "uint256",
          "name": "tokenId",
          "type": "uint256"
        }
      ],
      "name": "Transfer",
      "type": "event"
    },
    {
      "inputs": [
        {
          "internalType": "address",
          "name": "to",
          "type": "address"
        },
        {
          "internalType": "uint256",
          "name": "tokenId",
          "type": "uint256"
        }
      ],
      "name": "approve",
      "outputs": [],
      "stateMutability": "nonpayable",
      "type": "function"
    },
    {
      "inputs": [
        {
          "internalType": "address",
          "name": "owner",
          "type": "address"
        }
      ],
      "name": "balanceOf",
      "outputs": [
        {
          "internalType": "uint256",
          "name": "",
          "type": "uint256"
        }
      ],
      "stateMutability": "view",
      "type": "function",
      "constant": true
    },
    {
      "inputs": [],
      "name": "baseURI",
      "outputs": [
        {
          "internalType": "string",
          "name": "",
          "type": "string"
        }
      ],
      "stateMutability": "view",
      "type": "function",
      "constant": true
    },
    {
      "inputs": [
        {
          "internalType": "contract ISuperToken",
          "name": "",
          "type": "address"
        },
        {
          "internalType": "address",
          "name": "",
          "type": "address"
        },
        {
          "internalType": "bytes32",
          "name": "",
          "type": "bytes32"
        },
        {
          "internalType": "bytes",
          "name": "",
          "type": "bytes"
        },
        {
          "internalType": "bytes",
          "name": "",
          "type": "bytes"
        }
      ],
      "name": "beforeAgreementCreated",
      "outputs": [
        {
          "internalType": "bytes",
          "name": "",
          "type": "bytes"
        }
      ],
      "stateMutability": "view",
      "type": "function",
      "constant": true
    },
    {
      "inputs": [
        {
          "internalType": "contract ISuperToken",
          "name": "",
          "type": "address"
        },
        {
          "internalType": "address",
          "name": "",
          "type": "address"
        },
        {
          "internalType": "bytes32",
          "name": "",
          "type": "bytes32"
        },
        {
          "internalType": "bytes",
          "name": "",
          "type": "bytes"
        },
        {
          "internalType": "bytes",
          "name": "",
          "type": "bytes"
        }
      ],
      "name": "beforeAgreementTerminated",
      "outputs": [
        {
          "internalType": "bytes",
          "name": "",
          "type": "bytes"
        }
      ],
      "stateMutability": "view",
      "type": "function",
      "constant": true
    },
    {
      "inputs": [
        {
          "internalType": "contract ISuperToken",
          "name": "",
          "type": "address"
        },
        {
          "internalType": "address",
          "name": "",
          "type": "address"
        },
        {
          "internalType": "bytes32",
          "name": "",
          "type": "bytes32"
        },
        {
          "internalType": "bytes",
          "name": "",
          "type": "bytes"
        },
        {
          "internalType": "bytes",
          "name": "",
          "type": "bytes"
        }
      ],
      "name": "beforeAgreementUpdated",
      "outputs": [
        {
          "internalType": "bytes",
          "name": "",
          "type": "bytes"
        }
      ],
      "stateMutability": "view",
      "type": "function",
      "constant": true
    },
    {
      "inputs": [
        {
          "internalType": "uint256",
          "name": "tokenId",
          "type": "uint256"
        }
      ],
      "name": "getApproved",
      "outputs": [
        {
          "internalType": "address",
          "name": "",
          "type": "address"
        }
      ],
      "stateMutability": "view",
      "type": "function",
      "constant": true
    },
    {
      "inputs": [
        {
          "internalType": "address",
          "name": "owner",
          "type": "address"
        },
        {
          "internalType": "address",
          "name": "operator",
          "type": "address"
        }
      ],
      "name": "isApprovedForAll",
      "outputs": [
        {
          "internalType": "bool",
          "name": "",
          "type": "bool"
        }
      ],
      "stateMutability": "view",
      "type": "function",
      "constant": true
    },
    {
      "inputs": [],
      "name": "name",
      "outputs": [
        {
          "internalType": "string",
          "name": "",
          "type": "string"
        }
      ],
      "stateMutability": "view",
      "type": "function",
      "constant": true
    },
    {
      "inputs": [],
      "name": "owner",
      "outputs": [
        {
          "internalType": "address",
          "name": "",
          "type": "address"
        }
      ],
      "stateMutability": "view",
      "type": "function",
      "constant": true
    },
    {
      "inputs": [
        {
          "internalType": "uint256",
          "name": "tokenId",
          "type": "uint256"
        }
      ],
      "name": "ownerOf",
      "outputs": [
        {
          "internalType": "address",
          "name": "",
          "type": "address"
        }
      ],
      "stateMutability": "view",
      "type": "function",
      "constant": true
    },
    {
      "inputs": [],
      "name": "renounceOwnership",
      "outputs": [],
      "stateMutability": "nonpayable",
      "type": "function"
    },
    {
      "inputs": [
        {
          "internalType": "address",
          "name": "from",
          "type": "address"
        },
        {
          "internalType": "address",
          "name": "to",
          "type": "address"
        },
        {
          "internalType": "uint256",
          "name": "tokenId",
          "type": "uint256"
        }
      ],
      "name": "safeTransferFrom",
      "outputs": [],
      "stateMutability": "nonpayable",
      "type": "function"
    },
    {
      "inputs": [
        {
          "internalType": "address",
          "name": "from",
          "type": "address"
        },
        {
          "internalType": "address",
          "name": "to",
          "type": "address"
        },
        {
          "internalType": "uint256",
          "name": "tokenId",
          "type": "uint256"
        },
        {
          "internalType": "bytes",
          "name": "_data",
          "type": "bytes"
        }
      ],
      "name": "safeTransferFrom",
      "outputs": [],
      "stateMutability": "nonpayable",
      "type": "function"
    },
    {
      "inputs": [
        {
          "internalType": "address",
          "name": "operator",
          "type": "address"
        },
        {
          "internalType": "bool",
          "name": "approved",
          "type": "bool"
        }
      ],
      "name": "setApprovalForAll",
      "outputs": [],
      "stateMutability": "nonpayable",
      "type": "function"
    },
    {
      "inputs": [
        {
          "internalType": "bytes4",
          "name": "interfaceId",
          "type": "bytes4"
        }
      ],
      "name": "supportsInterface",
      "outputs": [
        {
          "internalType": "bool",
          "name": "",
          "type": "bool"
        }
      ],
      "stateMutability": "view",
      "type": "function",
      "constant": true
    },
    {
      "inputs": [],
      "name": "symbol",
      "outputs": [
        {
          "internalType": "string",
          "name": "",
          "type": "string"
        }
      ],
      "stateMutability": "view",
      "type": "function",
      "constant": true
    },
    {
      "inputs": [
        {
          "internalType": "uint256",
          "name": "index",
          "type": "uint256"
        }
      ],
      "name": "tokenByIndex",
      "outputs": [
        {
          "internalType": "uint256",
          "name": "",
          "type": "uint256"
        }
      ],
      "stateMutability": "view",
      "type": "function",
      "constant": true
    },
    {
      "inputs": [
        {
          "internalType": "address",
          "name": "owner",
          "type": "address"
        },
        {
          "internalType": "uint256",
          "name": "index",
          "type": "uint256"
        }
      ],
      "name": "tokenOfOwnerByIndex",
      "outputs": [
        {
          "internalType": "uint256",
          "name": "",
          "type": "uint256"
        }
      ],
      "stateMutability": "view",
      "type": "function",
      "constant": true
    },
    {
      "inputs": [
        {
          "internalType": "uint256",
          "name": "tokenId",
          "type": "uint256"
        }
      ],
      "name": "tokenURI",
      "outputs": [
        {
          "internalType": "string",
          "name": "",
          "type": "string"
        }
      ],
      "stateMutability": "view",
      "type": "function",
      "constant": true
    },
    {
      "inputs": [],
      "name": "totalSupply",
      "outputs": [
        {
          "internalType": "uint256",
          "name": "",
          "type": "uint256"
        }
      ],
      "stateMutability": "view",
      "type": "function",
      "constant": true
    },
    {
      "inputs": [
        {
          "internalType": "address",
          "name": "from",
          "type": "address"
        },
        {
          "internalType": "address",
          "name": "to",
          "type": "address"
        },
        {
          "internalType": "uint256",
          "name": "tokenId",
          "type": "uint256"
        }
      ],
      "name": "transferFrom",
      "outputs": [],
      "stateMutability": "nonpayable",
      "type": "function"
    },
    {
      "inputs": [
        {
          "internalType": "address",
          "name": "newOwner",
          "type": "address"
        }
      ],
      "name": "transferOwnership",
      "outputs": [],
      "stateMutability": "nonpayable",
      "type": "function"
    },
    {
      "inputs": [
        {
          "internalType": "address",
          "name": "to",
          "type": "address"
        },
        {
          "internalType": "string",
          "name": "tokenURI",
          "type": "string"
        }
      ],
      "name": "safeMint",
      "outputs": [],
      "stateMutability": "nonpayable",
      "type": "function"
    },
    {
      "inputs": [
        {
          "internalType": "uint256",
          "name": "tokenId",
          "type": "uint256"
        },
        {
          "internalType": "address",
          "name": "token",
          "type": "address"
        },
        {
          "internalType": "int96",
          "name": "flowRate",
          "type": "int96"
        }
      ],
      "name": "createFlow",
      "outputs": [],
      "stateMutability": "nonpayable",
      "type": "function"
    },
    {
      "inputs": [
        {
          "internalType": "uint256",
          "name": "tokenId",
          "type": "uint256"
        },
        {
          "internalType": "address",
          "name": "token",
          "type": "address"
        }
      ],
      "name": "stopFlow",
      "outputs": [],
      "stateMutability": "nonpayable",
      "type": "function"
    },
    {
      "inputs": [
        {
          "internalType": "contract ISuperToken",
          "name": "superToken",
          "type": "address"
        },
        {
          "internalType": "address",
          "name": "agreementClass",
          "type": "address"
        },
        {
          "internalType": "bytes32",
          "name": "agreementId",
          "type": "bytes32"
        },
        {
          "internalType": "bytes",
          "name": "agreementData",
          "type": "bytes"
        },
        {
          "internalType": "bytes",
          "name": "cbdata",
          "type": "bytes"
        },
        {
          "internalType": "bytes",
          "name": "ctx",
          "type": "bytes"
        }
      ],
      "name": "afterAgreementCreated",
      "outputs": [
        {
          "internalType": "bytes",
          "name": "newCtx",
          "type": "bytes"
        }
      ],
      "stateMutability": "nonpayable",
      "type": "function"
    },
    {
      "inputs": [
        {
          "internalType": "contract ISuperToken",
          "name": "superToken",
          "type": "address"
        },
        {
          "internalType": "address",
          "name": "agreementClass",
          "type": "address"
        },
        {
          "internalType": "bytes32",
          "name": "agreementId",
          "type": "bytes32"
        },
        {
          "internalType": "bytes",
          "name": "agreementData",
          "type": "bytes"
        },
        {
          "internalType": "bytes",
          "name": "cbdata",
          "type": "bytes"
        },
        {
          "internalType": "bytes",
          "name": "ctx",
          "type": "bytes"
        }
      ],
      "name": "afterAgreementUpdated",
      "outputs": [
        {
          "internalType": "bytes",
          "name": "newCtx",
          "type": "bytes"
        }
      ],
      "stateMutability": "nonpayable",
      "type": "function"
    },
    {
      "inputs": [
        {
          "internalType": "contract ISuperToken",
          "name": "superToken",
          "type": "address"
        },
        {
          "internalType": "address",
          "name": "agreementClass",
          "type": "address"
        },
        {
          "internalType": "bytes32",
          "name": "agreementId",
          "type": "bytes32"
        },
        {
          "internalType": "bytes",
          "name": "agreementData",
          "type": "bytes"
        },
        {
          "internalType": "bytes",
          "name": "cbdata",
          "type": "bytes"
        },
        {
          "internalType": "bytes",
          "name": "ctx",
          "type": "bytes"
        }
      ],
      "name": "afterAgreementTerminated",
      "outputs": [
        {
          "internalType": "bytes",
          "name": "newCtx",
          "type": "bytes"
        }
      ],
      "stateMutability": "nonpayable",
      "type": "function"
    }
  ],
  "bytecode": "0x60806040523480156200001157600080fd5b5060405162005d9a38038062005d9a83398181016040528101906200003791906200065f565b6040518060400160405280601381526020017f536f6369616c53747265616d61626c654e4654000000000000000000000000008152506040518060400160405280600681526020017f5353534e465400000000000000000000000000000000000000000000000000008152508383600073ffffffffffffffffffffffffffffffffffffffff168273ffffffffffffffffffffffffffffffffffffffff16141562000149576040517f08c379a00000000000000000000000000000000000000000000000000000000081526004018080602001828103825260148152602001807f686f7374206973207a65726f206164647265737300000000000000000000000081525060200191505060405180910390fd5b600073ffffffffffffffffffffffffffffffffffffffff168173ffffffffffffffffffffffffffffffffffffffff161415620001ed576040517f08c379a00000000000000000000000000000000000000000000000000000000081526004018080602001828103825260138152602001807f636661206973207a65726f20616464726573730000000000000000000000000081525060200191505060405180910390fd5b81600260006101000a81548173ffffffffffffffffffffffffffffffffffffffff021916908373ffffffffffffffffffffffffffffffffffffffff16021790555080600360006101000a81548173ffffffffffffffffffffffffffffffffffffffff021916908373ffffffffffffffffffffffffffffffffffffffff160217905550600064100000000064040000000064010000000060011717179050600260009054906101000a900473ffffffffffffffffffffffffffffffffffffffff1673ffffffffffffffffffffffffffffffffffffffff1663ad3915c8826040518263ffffffff1660e01b815260040180828152602001915050600060405180830381600087803b1580156200030057600080fd5b505af115801562000315573d6000803e3d6000fd5b50505050505050620003346301ffc9a760e01b6200046960201b60201c565b81600a90805190602001906200034c9291906200057b565b5080600b9080519060200190620003659291906200057b565b506200037e6380ac58cd60e01b6200046960201b60201c565b62000396635b5e139f60e01b6200046960201b60201c565b620003ae63780e9d6360e01b6200046960201b60201c565b50506000620003c26200057360201b60201c565b905080600e60006101000a81548173ffffffffffffffffffffffffffffffffffffffff021916908373ffffffffffffffffffffffffffffffffffffffff1602179055508073ffffffffffffffffffffffffffffffffffffffff16600073ffffffffffffffffffffffffffffffffffffffff167f8be0079c531659141344cd1fd0a4f28419497f9722a3daafe3b4186f6b6457e060405160405180910390a350505062000730565b63ffffffff60e01b817bffffffffffffffffffffffffffffffffffffffffffffffffffffffff1916141562000506576040517f08c379a000000000000000000000000000000000000000000000000000000000815260040180806020018281038252601c8152602001807f4552433136353a20696e76616c696420696e746572666163652069640000000081525060200191505060405180910390fd5b600160046000837bffffffffffffffffffffffffffffffffffffffffffffffffffffffff19167bffffffffffffffffffffffffffffffffffffffffffffffffffffffff1916815260200190815260200160002060006101000a81548160ff02191690831515021790555050565b600033905090565b828054600181600116156101000203166002900490600052602060002090601f016020900481019282620005b35760008555620005ff565b82601f10620005ce57805160ff1916838001178555620005ff565b82800160010185558215620005ff579182015b82811115620005fe578251825591602001919060010190620005e1565b5b5090506200060e919062000612565b5090565b5b808211156200062d57600081600090555060010162000613565b5090565b6000815190506200064281620006fc565b92915050565b600081519050620006598162000716565b92915050565b600080604083850312156200067357600080fd5b6000620006838582860162000648565b9250506020620006968582860162000631565b9150509250929050565b6000620006ad82620006dc565b9050919050565b6000620006c182620006a0565b9050919050565b6000620006d582620006a0565b9050919050565b600073ffffffffffffffffffffffffffffffffffffffff82169050919050565b6200070781620006b4565b81146200071357600080fd5b50565b6200072181620006c8565b81146200072d57600080fd5b50565b61565a80620007406000396000f3fe608060405234801561001057600080fd5b50600436106101cf5760003560e01c80636352211e11610104578063a22cb465116100a2578063d86ed3e511610071578063d86ed3e514610578578063e985e9c5146105a8578063f2fde38b146105d8578063fa47c75e146105f4576101cf565b8063a22cb465146104f4578063b88d4fde14610510578063c87b56dd1461052c578063d204c45e1461055c576101cf565b8063715018a6116100de578063715018a61461047e578063884d1f40146104885780638da5cb5b146104b857806395d89b41146104d6576101cf565b80636352211e146104005780636c0360eb1461043057806370a082311461044e576101cf565b806323b872dd1161017157806342842e0e1161014b57806342842e0e146103545780634f6ccce71461037057806353c11f99146103a05780635f9e7d77146103d0576101cf565b806323b872dd146102d85780632f745c59146102f457806330d9c91514610324576101cf565b8063081812fc116101ad578063081812fc1461023e578063095ea7b31461026e57806318160ddd1461028a578063230dbd29146102a8576101cf565b806301ffc9a7146101d45780630637de251461020457806306fdde0314610220575b600080fd5b6101ee60048036038101906101e99190614737565b610610565b6040516101fb9190614daa565b60405180910390f35b61021e60048036038101906102199190614a2a565b610678565b005b610228610707565b6040516102359190614f95565b60405180910390f35b610258600480360381019061025391906149c5565b6107a9565b6040516102659190614d8f565b60405180910390f35b610288600480360381019061028391906146d2565b610844565b005b610292610988565b60405161029f9190615037565b60405180910390f35b6102c260048036038101906102bd91906148bd565b610999565b6040516102cf9190614dc5565b60405180910390f35b6102f260048036038101906102ed9190614578565b6109b5565b005b61030e600480360381019061030991906146d2565b610a2b565b60405161031b9190615037565b60405180910390f35b61033e6004803603810190610339919061480d565b610a86565b60405161034b9190614dc5565b60405180910390f35b61036e60048036038101906103699190614578565b610ad9565b005b61038a600480360381019061038591906149c5565b610af9565b6040516103979190615037565b60405180910390f35b6103ba60048036038101906103b591906148bd565b610b1c565b6040516103c79190614dc5565b60405180910390f35b6103ea60048036038101906103e5919061480d565b610b72565b6040516103f79190614dc5565b60405180910390f35b61041a600480360381019061041591906149c5565b610bc5565b6040516104279190614d8f565b60405180910390f35b610438610bfc565b6040516104459190614f95565b60405180910390f35b61046860048036038101906104639190614513565b610c9e565b6040516104759190615037565b60405180910390f35b610486610d73565b005b6104a2600480360381019061049d919061480d565b610efe565b6040516104af9190614dc5565b60405180910390f35b6104c0610f51565b6040516104cd9190614d8f565b60405180910390f35b6104de610f7b565b6040516104eb9190614f95565b60405180910390f35b61050e60048036038101906105099190614642565b61101d565b005b61052a600480360381019061052591906145c7565b6111d3565b005b610546600480360381019061054191906149c5565b61124b565b6040516105539190614f95565b60405180910390f35b6105766004803603810190610571919061467e565b611534565b005b610592600480360381019061058d91906148bd565b6115c3565b60405161059f9190614dc5565b60405180910390f35b6105c260048036038101906105bd919061453c565b6115df565b6040516105cf9190614daa565b60405180910390f35b6105f260048036038101906105ed9190614513565b611673565b005b61060e600480360381019061060991906149ee565b611883565b005b600060046000837bffffffffffffffffffffffffffffffffffffffffffffffffffffffff19167bffffffffffffffffffffffffffffffffffffffffffffffffffffffff1916815260200190815260200160002060009054906101000a900460ff169050919050565b3373ffffffffffffffffffffffffffffffffffffffff1661069884610bc5565b73ffffffffffffffffffffffffffffffffffffffff1614156106ef576040517f08c379a00000000000000000000000000000000000000000000000000000000081526004016106e690615017565b60405180910390fd5b610702826106fc85610bc5565b8361193b565b505050565b6060600a8054600181600116156101000203166002900480601f01602080910402602001604051908101604052809291908181526020018280546001816001161561010002031660029004801561079f5780601f106107745761010080835404028352916020019161079f565b820191906000526020600020905b81548152906001019060200180831161078257829003601f168201915b5050505050905090565b60006107b482611cff565b610809576040517f08c379a000000000000000000000000000000000000000000000000000000000815260040180806020018281038252602c8152602001806154c5602c913960400191505060405180910390fd5b6008600083815260200190815260200160002060009054906101000a900473ffffffffffffffffffffffffffffffffffffffff169050919050565b600061084f82610bc5565b90508073ffffffffffffffffffffffffffffffffffffffff168373ffffffffffffffffffffffffffffffffffffffff1614156108d6576040517f08c379a00000000000000000000000000000000000000000000000000000000081526004018080602001828103825260218152602001806155756021913960400191505060405180910390fd5b8073ffffffffffffffffffffffffffffffffffffffff166108f5611d1c565b73ffffffffffffffffffffffffffffffffffffffff16148061092457506109238161091e611d1c565b6115df565b5b610979576040517f08c379a00000000000000000000000000000000000000000000000000000000081526004018080602001828103825260388152602001806154186038913960400191505060405180910390fd5b6109838383611d24565b505050565b60006109946006611ddd565b905090565b60606109a683838c611df2565b90509998505050505050505050565b6109c66109c0611d1c565b82612526565b610a1b576040517f08c379a00000000000000000000000000000000000000000000000000000000081526004018080602001828103825260318152602001806155c56031913960400191505060405180910390fd5b610a2683838361261a565b505050565b6000610a7e82600560008673ffffffffffffffffffffffffffffffffffffffff1673ffffffffffffffffffffffffffffffffffffffff16815260200190815260200160002061285d90919063ffffffff16565b905092915050565b60606040517f08c379a000000000000000000000000000000000000000000000000000000000815260040180806020018281038252602f8152602001806155f6602f913960400191505060405180910390fd5b610af4838383604051806020016040528060008152506111d3565b505050565b600080610b1083600661287790919063ffffffff16565b50905080915050919050565b606082828080601f016020809104026020016040519081016040528093929190818152602001838380828437600081840152601f19601f8201169050808301925050505050505090509998505050505050505050565b60606040517f08c379a00000000000000000000000000000000000000000000000000000000081526004018080602001828103825260338152602001806153956033913960400191505060405180910390fd5b6000610bf58260405180606001604052806029815260200161547a6029913960066128a39092919063ffffffff16565b9050919050565b6060600d8054600181600116156101000203166002900480601f016020809104026020016040519081016040528092919081815260200182805460018160011615610100020316600290048015610c945780601f10610c6957610100808354040283529160200191610c94565b820191906000526020600020905b815481529060010190602001808311610c7757829003601f168201915b5050505050905090565b60008073ffffffffffffffffffffffffffffffffffffffff168273ffffffffffffffffffffffffffffffffffffffff161415610d25576040517f08c379a000000000000000000000000000000000000000000000000000000000815260040180806020018281038252602a815260200180615450602a913960400191505060405180910390fd5b610d6c600560008473ffffffffffffffffffffffffffffffffffffffff1673ffffffffffffffffffffffffffffffffffffffff1681526020019081526020016000206128c2565b9050919050565b610d7b611d1c565b73ffffffffffffffffffffffffffffffffffffffff16600e60009054906101000a900473ffffffffffffffffffffffffffffffffffffffff1673ffffffffffffffffffffffffffffffffffffffff1614610e3d576040517f08c379a00000000000000000000000000000000000000000000000000000000081526004018080602001828103825260208152602001807f4f776e61626c653a2063616c6c6572206973206e6f7420746865206f776e657281525060200191505060405180910390fd5b600073ffffffffffffffffffffffffffffffffffffffff16600e60009054906101000a900473ffffffffffffffffffffffffffffffffffffffff1673ffffffffffffffffffffffffffffffffffffffff167f8be0079c531659141344cd1fd0a4f28419497f9722a3daafe3b4186f6b6457e060405160405180910390a36000600e60006101000a81548173ffffffffffffffffffffffffffffffffffffffff021916908373ffffffffffffffffffffffffffffffffffffffff160217905550565b60606040517f08c379a000000000000000000000000000000000000000000000000000000000815260040180806020018281038252602f815260200180615596602f913960400191505060405180910390fd5b6000600e60009054906101000a900473ffffffffffffffffffffffffffffffffffffffff16905090565b6060600b8054600181600116156101000203166002900480601f0160208091040260200160405190810160405280929190818152602001828054600181600116156101000203166002900480156110135780601f10610fe857610100808354040283529160200191611013565b820191906000526020600020905b815481529060010190602001808311610ff657829003601f168201915b5050505050905090565b611025611d1c565b73ffffffffffffffffffffffffffffffffffffffff168273ffffffffffffffffffffffffffffffffffffffff1614156110c6576040517f08c379a00000000000000000000000000000000000000000000000000000000081526004018080602001828103825260198152602001807f4552433732313a20617070726f766520746f2063616c6c65720000000000000081525060200191505060405180910390fd5b80600960006110d3611d1c565b73ffffffffffffffffffffffffffffffffffffffff1673ffffffffffffffffffffffffffffffffffffffff16815260200190815260200160002060008473ffffffffffffffffffffffffffffffffffffffff1673ffffffffffffffffffffffffffffffffffffffff16815260200190815260200160002060006101000a81548160ff0219169083151502179055508173ffffffffffffffffffffffffffffffffffffffff16611180611d1c565b73ffffffffffffffffffffffffffffffffffffffff167f17307eab39ab6107e8899845ad3d59bd9653f200f220920489ca2b5937696c318360405180821515815260200191505060405180910390a35050565b6111e46111de611d1c565b83612526565b611239576040517f08c379a00000000000000000000000000000000000000000000000000000000081526004018080602001828103825260318152602001806155c56031913960400191505060405180910390fd5b611245848484846128d7565b50505050565b606061125682611cff565b6112ab576040517f08c379a000000000000000000000000000000000000000000000000000000000815260040180806020018281038252602f815260200180615546602f913960400191505060405180910390fd5b6000600c60008481526020019081526020016000208054600181600116156101000203166002900480601f0160208091040260200160405190810160405280929190818152602001828054600181600116156101000203166002900480156113545780601f1061132957610100808354040283529160200191611354565b820191906000526020600020905b81548152906001019060200180831161133757829003601f168201915b505050505090506000600d8054600181600116156101000203166002900490501415611383578091505061152f565b60008151111561145c57600d8160405160200180838054600181600116156101000203166002900480156113ee5780601f106113cc5761010080835404028352918201916113ee565b820191906000526020600020905b8154815290600101906020018083116113da575b505082805190602001908083835b6020831061141f57805182526020820191506020810190506020830392506113fc565b6001836020036101000a0380198251168184511680821785525050505050509050019250505060405160208183030381529060405291505061152f565b600d61146784612949565b60405160200180838054600181600116156101000203166002900480156114c55780601f106114a35761010080835404028352918201916114c5565b820191906000526020600020905b8154815290600101906020018083116114b1575b505082805190602001908083835b602083106114f657805182526020820191506020810190506020830392506114d3565b6001836020036101000a038019825116818451168082178552505050505050905001925050506040516020818303038152906040529150505b919050565b611547826115426011612a90565b612a9e565b61155a6115546011612a90565b82612abc565b33600f60006115696011612a90565b815260200190815260200160002060006101000a81548173ffffffffffffffffffffffffffffffffffffffff021916908373ffffffffffffffffffffffffffffffffffffffff1602179055506115bf6011612b46565b5050565b60606115d083838c611df2565b90509998505050505050505050565b6000600960008473ffffffffffffffffffffffffffffffffffffffff1673ffffffffffffffffffffffffffffffffffffffff16815260200190815260200160002060008373ffffffffffffffffffffffffffffffffffffffff1673ffffffffffffffffffffffffffffffffffffffff16815260200190815260200160002060009054906101000a900460ff16905092915050565b61167b611d1c565b73ffffffffffffffffffffffffffffffffffffffff16600e60009054906101000a900473ffffffffffffffffffffffffffffffffffffffff1673ffffffffffffffffffffffffffffffffffffffff161461173d576040517f08c379a00000000000000000000000000000000000000000000000000000000081526004018080602001828103825260208152602001807f4f776e61626c653a2063616c6c6572206973206e6f7420746865206f776e657281525060200191505060405180910390fd5b600073ffffffffffffffffffffffffffffffffffffffff168173ffffffffffffffffffffffffffffffffffffffff1614156117c3576040517f08c379a000000000000000000000000000000000000000000000000000000000815260040180806020018281038252602681526020018061536f6026913960400191505060405180910390fd5b8073ffffffffffffffffffffffffffffffffffffffff16600e60009054906101000a900473ffffffffffffffffffffffffffffffffffffffff1673ffffffffffffffffffffffffffffffffffffffff167f8be0079c531659141344cd1fd0a4f28419497f9722a3daafe3b4186f6b6457e060405160405180910390a380600e60006101000a81548173ffffffffffffffffffffffffffffffffffffffff021916908373ffffffffffffffffffffffffffffffffffffffff16021790555050565b3373ffffffffffffffffffffffffffffffffffffffff16600f600084815260200190815260200160002060009054906101000a900473ffffffffffffffffffffffffffffffffffffffff1673ffffffffffffffffffffffffffffffffffffffff1614611924576040517f08c379a000000000000000000000000000000000000000000000000000000000815260040161191b90614ff7565b60405180910390fd5b611937813361193285610bc5565b612b5c565b5050565b6000839050600260009054906101000a900473ffffffffffffffffffffffffffffffffffffffff1673ffffffffffffffffffffffffffffffffffffffff166339255d5b600360009054906101000a900473ffffffffffffffffffffffffffffffffffffffff166362fc305e60e01b848787600067ffffffffffffffff811180156119c457600080fd5b506040519080825280601f01601f1916602001820160405280156119f75781602001600182028036833780820191505090505b50604051602401808573ffffffffffffffffffffffffffffffffffffffff1681526020018473ffffffffffffffffffffffffffffffffffffffff16815260200183600b0b815260200180602001828103825283818151815260200191508051906020019080838360005b83811015611a7c578082015181840152602081019050611a61565b50505050905090810190601f168015611aa95780820380516001836020036101000a031916815260200191505b5095505050505050604051602081830303815290604052907bffffffffffffffffffffffffffffffffffffffffffffffffffffffff19166020820180517bffffffffffffffffffffffffffffffffffffffffffffffffffffffff83818316178352505050506040518363ffffffff1660e01b8152600401808373ffffffffffffffffffffffffffffffffffffffff1681526020018060200180602001838103835284818151815260200191508051906020019080838360005b83811015611b7d578082015181840152602081019050611b62565b50505050905090810190601f168015611baa5780820380516001836020036101000a031916815260200191505b50838103825260028152602001807f3078000000000000000000000000000000000000000000000000000000000000815250602001945050505050600060405180830381600087803b158015611bff57600080fd5b505af1158015611c13573d6000803e3d6000fd5b505050506040513d6000823e3d601f19601f820116820180604052506020811015611c3d57600080fd5b8101908080516040519392919084640100000000821115611c5d57600080fd5b83820191506020820185811115611c7357600080fd5b8251866001820283011164010000000082111715611c9057600080fd5b8083526020830192505050908051906020019080838360005b83811015611cc4578082015181840152602081019050611ca9565b50505050905090810190601f168015611cf15780820380516001836020036101000a031916815260200191505b506040525050505050505050565b6000611d15826006612f3390919063ffffffff16565b9050919050565b600033905090565b816008600083815260200190815260200160002060006101000a81548173ffffffffffffffffffffffffffffffffffffffff021916908373ffffffffffffffffffffffffffffffffffffffff160217905550808273ffffffffffffffffffffffffffffffffffffffff16611d9783610bc5565b73ffffffffffffffffffffffffffffffffffffffff167f8c5be1e5ebec7d5bd14f71427d1e84f3dd0314c0f7b2291e5b200ac8c7c3b92560405160405180910390a45050565b6000611deb82600001612f4d565b9050919050565b606083838080601f016020809104026020016040519081016040528093929190818152602001838380828437600081840152601f19601f8201169050808301925050505050505090506000611e476000610bc5565b9050826010600080815260200190815260200160002060006101000a81548173ffffffffffffffffffffffffffffffffffffffff021916908373ffffffffffffffffffffffffffffffffffffffff1602179055506000600360009054906101000a900473ffffffffffffffffffffffffffffffffffffffff1673ffffffffffffffffffffffffffffffffffffffff1663e8e7e2d185306040518363ffffffff1660e01b8152600401611efa929190614e9d565b60206040518083038186803b158015611f1257600080fd5b505afa158015611f26573d6000803e3d6000fd5b505050506040513d601f19601f82011682018060405250810190611f4a919061499c565b90506000600360009054906101000a900473ffffffffffffffffffffffffffffffffffffffff1673ffffffffffffffffffffffffffffffffffffffff1663e6a1e8888630866040518463ffffffff1660e01b8152600401611fad93929190614ec6565b60806040518083038186803b158015611fc557600080fd5b505afa158015611fd9573d6000803e3d6000fd5b505050506040513d601f19601f82011682018060405250810190611ffd9190614a79565b5050915050600081830190506000600b0b81600b0b14156121c057600260009054906101000a900473ffffffffffffffffffffffffffffffffffffffff1673ffffffffffffffffffffffffffffffffffffffff16634329d293600360009054906101000a900473ffffffffffffffffffffffffffffffffffffffff1663b4b333c660e01b893089600067ffffffffffffffff8111801561209c57600080fd5b506040519080825280601f01601f1916602001820160405280156120cf5781602001600182028036833780820191505090505b506040516024016120e39493929190614efd565b604051602081830303815290604052907bffffffffffffffffffffffffffffffffffffffffffffffffffffffff19166020820180517bffffffffffffffffffffffffffffffffffffffffffffffffffffffff8381831617835250505050886040518463ffffffff1660e01b815260040161215f93929190614e2a565b600060405180830381600087803b15801561217957600080fd5b505af115801561218d573d6000803e3d6000fd5b505050506040513d6000823e3d601f19601f820116820180604052508101906121b691906147a1565b508095505061251b565b6000600b0b82600b0b1461237657600260009054906101000a900473ffffffffffffffffffffffffffffffffffffffff1673ffffffffffffffffffffffffffffffffffffffff16634329d293600360009054906101000a900473ffffffffffffffffffffffffffffffffffffffff166350209a6260e01b898886600067ffffffffffffffff8111801561225257600080fd5b506040519080825280601f01601f1916602001820160405280156122855781602001600182028036833780820191505090505b506040516024016122999493929190614f49565b604051602081830303815290604052907bffffffffffffffffffffffffffffffffffffffffffffffffffffffff19166020820180517bffffffffffffffffffffffffffffffffffffffffffffffffffffffff8381831617835250505050886040518463ffffffff1660e01b815260040161231593929190614e2a565b600060405180830381600087803b15801561232f57600080fd5b505af1158015612343573d6000803e3d6000fd5b505050506040513d6000823e3d601f19601f8201168201806040525081019061236c91906147a1565b508095505061251a565b600260009054906101000a900473ffffffffffffffffffffffffffffffffffffffff1673ffffffffffffffffffffffffffffffffffffffff16634329d293600360009054906101000a900473ffffffffffffffffffffffffffffffffffffffff166362fc305e60e01b898886600067ffffffffffffffff811180156123fa57600080fd5b506040519080825280601f01601f19166020018201604052801561242d5781602001600182028036833780820191505090505b506040516024016124419493929190614f49565b604051602081830303815290604052907bffffffffffffffffffffffffffffffffffffffffffffffffffffffff19166020820180517bffffffffffffffffffffffffffffffffffffffffffffffffffffffff8381831617835250505050886040518463ffffffff1660e01b81526004016124bd93929190614e2a565b600060405180830381600087803b1580156124d757600080fd5b505af11580156124eb573d6000803e3d6000fd5b505050506040513d6000823e3d601f19601f8201168201806040525081019061251491906147a1565b50809550505b5b505050509392505050565b600061253182611cff565b612586576040517f08c379a000000000000000000000000000000000000000000000000000000000815260040180806020018281038252602c8152602001806153ec602c913960400191505060405180910390fd5b600061259183610bc5565b90508073ffffffffffffffffffffffffffffffffffffffff168473ffffffffffffffffffffffffffffffffffffffff16148061260057508373ffffffffffffffffffffffffffffffffffffffff166125e8846107a9565b73ffffffffffffffffffffffffffffffffffffffff16145b80612611575061261081856115df565b5b91505092915050565b8273ffffffffffffffffffffffffffffffffffffffff1661263a82610bc5565b73ffffffffffffffffffffffffffffffffffffffff16146126a6576040517f08c379a000000000000000000000000000000000000000000000000000000000815260040180806020018281038252602981526020018061551d6029913960400191505060405180910390fd5b600073ffffffffffffffffffffffffffffffffffffffff168273ffffffffffffffffffffffffffffffffffffffff16141561272c576040517f08c379a00000000000000000000000000000000000000000000000000000000081526004018080602001828103825260248152602001806153c86024913960400191505060405180910390fd5b612737838383612f5e565b612742600082611d24565b61279381600560008673ffffffffffffffffffffffffffffffffffffffff1673ffffffffffffffffffffffffffffffffffffffff168152602001908152602001600020612fa390919063ffffffff16565b506127e581600560008573ffffffffffffffffffffffffffffffffffffffff1673ffffffffffffffffffffffffffffffffffffffff168152602001908152602001600020612fbd90919063ffffffff16565b506127fc81836006612fd79092919063ffffffff16565b50808273ffffffffffffffffffffffffffffffffffffffff168473ffffffffffffffffffffffffffffffffffffffff167fddf252ad1be2c89b69c2b068fc378daa952ba7f163c4a11628f55a4df523b3ef60405160405180910390a4505050565b600061286c836000018361300c565b60001c905092915050565b60008060008061288a866000018661308f565b915091508160001c8160001c9350935050509250929050565b60006128b6846000018460001b84613128565b60001c90509392505050565b60006128d08260000161321e565b9050919050565b6128e284848461261a565b6128ee8484848461322f565b612943576040517f08c379a000000000000000000000000000000000000000000000000000000000815260040180806020018281038252603281526020018061533d6032913960400191505060405180910390fd5b50505050565b60606000821415612991576040518060400160405280600181526020017f30000000000000000000000000000000000000000000000000000000000000008152509050612a8b565b600082905060005b600082146129bb578080600101915050600a82816129b357fe5b049150612999565b60008167ffffffffffffffff811180156129d457600080fd5b506040519080825280601f01601f191660200182016040528015612a075781602001600182028036833780820191505090505b50905060006001830390508593505b60008414612a8357600a8481612a2857fe5b0660300160f81b82828060019003935081518110612a4257fe5b60200101907effffffffffffffffffffffffffffffffffffffffffffffffffffffffffffff1916908160001a905350600a8481612a7b57fe5b049350612a16565b819450505050505b919050565b600081600001549050919050565b612ab8828260405180602001604052806000815250613448565b5050565b612ac582611cff565b612b1a576040517f08c379a000000000000000000000000000000000000000000000000000000000815260040180806020018281038252602c8152602001806154f1602c913960400191505060405180910390fd5b80600c60008481526020019081526020016000209080519060200190612b41929190614214565b505050565b6001816000016000828254019250508190555050565b6000839050600260009054906101000a900473ffffffffffffffffffffffffffffffffffffffff1673ffffffffffffffffffffffffffffffffffffffff166339255d5b600360009054906101000a900473ffffffffffffffffffffffffffffffffffffffff1663b4b333c660e01b848787600067ffffffffffffffff81118015612be557600080fd5b506040519080825280601f01601f191660200182016040528015612c185781602001600182028036833780820191505090505b50604051602401808573ffffffffffffffffffffffffffffffffffffffff1681526020018473ffffffffffffffffffffffffffffffffffffffff1681526020018373ffffffffffffffffffffffffffffffffffffffff16815260200180602001828103825283818151815260200191508051906020019080838360005b83811015612cb0578082015181840152602081019050612c95565b50505050905090810190601f168015612cdd5780820380516001836020036101000a031916815260200191505b5095505050505050604051602081830303815290604052907bffffffffffffffffffffffffffffffffffffffffffffffffffffffff19166020820180517bffffffffffffffffffffffffffffffffffffffffffffffffffffffff83818316178352505050506040518363ffffffff1660e01b8152600401808373ffffffffffffffffffffffffffffffffffffffff1681526020018060200180602001838103835284818151815260200191508051906020019080838360005b83811015612db1578082015181840152602081019050612d96565b50505050905090810190601f168015612dde5780820380516001836020036101000a031916815260200191505b50838103825260028152602001807f3078000000000000000000000000000000000000000000000000000000000000815250602001945050505050600060405180830381600087803b158015612e3357600080fd5b505af1158015612e47573d6000803e3d6000fd5b505050506040513d6000823e3d601f19601f820116820180604052506020811015612e7157600080fd5b8101908080516040519392919084640100000000821115612e9157600080fd5b83820191506020820185811115612ea757600080fd5b8251866001820283011164010000000082111715612ec457600080fd5b8083526020830192505050908051906020019080838360005b83811015612ef8578082015181840152602081019050612edd565b50505050905090810190601f168015612f255780820380516001836020036101000a031916815260200191505b506040525050505050505050565b6000612f45836000018360001b6134b9565b905092915050565b600081600001805490509050919050565b600073ffffffffffffffffffffffffffffffffffffffff168373ffffffffffffffffffffffffffffffffffffffff1614612f9e57612f9d8383836134dc565b5b505050565b6000612fb5836000018360001b613b61565b905092915050565b6000612fcf836000018360001b613c49565b905092915050565b6000613003846000018460001b8473ffffffffffffffffffffffffffffffffffffffff1660001b613cb9565b90509392505050565b60008183600001805490501161306d576040517f08c379a000000000000000000000000000000000000000000000000000000000815260040180806020018281038252602281526020018061531b6022913960400191505060405180910390fd5b82600001828154811061307c57fe5b9060005260206000200154905092915050565b600080828460000180549050116130f1576040517f08c379a00000000000000000000000000000000000000000000000000000000081526004018080602001828103825260228152602001806154a36022913960400191505060405180910390fd5b600084600001848154811061310257fe5b906000526020600020906002020190508060000154816001015492509250509250929050565b600080846001016000858152602001908152602001600020549050600081141583906131ef576040517f08c379a00000000000000000000000000000000000000000000000000000000081526004018080602001828103825283818151815260200191508051906020019080838360005b838110156131b4578082015181840152602081019050613199565b50505050905090810190601f1680156131e15780820380516001836020036101000a031916815260200191505b509250505060405180910390fd5b5084600001600182038154811061320257fe5b9060005260206000209060020201600101549150509392505050565b600081600001805490509050919050565b60006132508473ffffffffffffffffffffffffffffffffffffffff16613d95565b61325d5760019050613440565b60006133c763150b7a0260e01b613272611d1c565b888787604051602401808573ffffffffffffffffffffffffffffffffffffffff1681526020018473ffffffffffffffffffffffffffffffffffffffff16815260200183815260200180602001828103825283818151815260200191508051906020019080838360005b838110156132f65780820151818401526020810190506132db565b50505050905090810190601f1680156133235780820380516001836020036101000a031916815260200191505b5095505050505050604051602081830303815290604052907bffffffffffffffffffffffffffffffffffffffffffffffffffffffff19166020820180517bffffffffffffffffffffffffffffffffffffffffffffffffffffffff838183161783525050505060405180606001604052806032815260200161533d603291398773ffffffffffffffffffffffffffffffffffffffff16613de09092919063ffffffff16565b905060008180602001905160208110156133e057600080fd5b8101908080519060200190929190505050905063150b7a0260e01b7bffffffffffffffffffffffffffffffffffffffffffffffffffffffff1916817bffffffffffffffffffffffffffffffffffffffffffffffffffffffff191614925050505b949350505050565b6134528383613df8565b61345f600084848461322f565b6134b4576040517f08c379a000000000000000000000000000000000000000000000000000000000815260040180806020018281038252603281526020018061533d6032913960400191505060405180910390fd5b505050565b600080836001016000848152602001908152602001600020541415905092915050565b600073ffffffffffffffffffffffffffffffffffffffff168273ffffffffffffffffffffffffffffffffffffffff16141561354c576040517f08c379a000000000000000000000000000000000000000000000000000000000815260040161354390614fb7565b60405180910390fd5b600260009054906101000a900473ffffffffffffffffffffffffffffffffffffffff1673ffffffffffffffffffffffffffffffffffffffff16633ca3ad4e836040518263ffffffff1660e01b81526004016135a79190614e82565b60206040518083038186803b1580156135bf57600080fd5b505afa1580156135d3573d6000803e3d6000fd5b505050506040513d601f19601f820116820180604052508101906135f7919061470e565b15613637576040517f08c379a000000000000000000000000000000000000000000000000000000000815260040161362e90614fd7565b60405180910390fd5b61364081610bc5565b73ffffffffffffffffffffffffffffffffffffffff168273ffffffffffffffffffffffffffffffffffffffff16141561367857613b5c565b60006010600083815260200190815260200160002060009054906101000a900473ffffffffffffffffffffffffffffffffffffffff1690506000600360009054906101000a900473ffffffffffffffffffffffffffffffffffffffff1673ffffffffffffffffffffffffffffffffffffffff1663e6a1e8888330886040518463ffffffff1660e01b815260040161371193929190614ec6565b60806040518083038186803b15801561372957600080fd5b505afa15801561373d573d6000803e3d6000fd5b505050506040513d601f19601f820116820180604052508101906137619190614a79565b5050915050600081600b0b1315613b5957600260009054906101000a900473ffffffffffffffffffffffffffffffffffffffff1673ffffffffffffffffffffffffffffffffffffffff166339255d5b600360009054906101000a900473ffffffffffffffffffffffffffffffffffffffff1663b4b333c660e01b85308a600067ffffffffffffffff811180156137f657600080fd5b506040519080825280601f01601f1916602001820160405280156138295781602001600182028036833780820191505090505b5060405160240161383d9493929190614efd565b604051602081830303815290604052907bffffffffffffffffffffffffffffffffffffffffffffffffffffffff19166020820180517bffffffffffffffffffffffffffffffffffffffffffffffffffffffff83818316178352505050506040518363ffffffff1660e01b81526004016138b7929190614de7565b600060405180830381600087803b1580156138d157600080fd5b505af11580156138e5573d6000803e3d6000fd5b505050506040513d6000823e3d601f19601f8201168201806040525081019061390e9190614760565b50600260009054906101000a900473ffffffffffffffffffffffffffffffffffffffff1673ffffffffffffffffffffffffffffffffffffffff166339255d5b600360009054906101000a900473ffffffffffffffffffffffffffffffffffffffff166362fc305e60e01b8588600360009054906101000a900473ffffffffffffffffffffffffffffffffffffffff1673ffffffffffffffffffffffffffffffffffffffff1663e8e7e2d189306040518363ffffffff1660e01b81526004016139d7929190614e9d565b60206040518083038186803b1580156139ef57600080fd5b505afa158015613a03573d6000803e3d6000fd5b505050506040513d601f19601f82011682018060405250810190613a27919061499c565b600067ffffffffffffffff81118015613a3f57600080fd5b506040519080825280601f01601f191660200182016040528015613a725781602001600182028036833780820191505090505b50604051602401613a869493929190614f49565b604051602081830303815290604052907bffffffffffffffffffffffffffffffffffffffffffffffffffffffff19166020820180517bffffffffffffffffffffffffffffffffffffffffffffffffffffffff83818316178352505050506040518363ffffffff1660e01b8152600401613b00929190614de7565b600060405180830381600087803b158015613b1a57600080fd5b505af1158015613b2e573d6000803e3d6000fd5b505050506040513d6000823e3d601f19601f82011682018060405250810190613b579190614760565b505b50505b505050565b60008083600101600084815260200190815260200160002054905060008114613c3d5760006001820390506000600186600001805490500390506000866000018281548110613bac57fe5b9060005260206000200154905080876000018481548110613bc957fe5b9060005260206000200181905550600183018760010160008381526020019081526020016000208190555086600001805480613c0157fe5b60019003818190600052602060002001600090559055866001016000878152602001908152602001600020600090556001945050505050613c43565b60009150505b92915050565b6000613c558383613fec565b613cae578260000182908060018154018082558091505060019003906000526020600020016000909190919091505582600001805490508360010160008481526020019081526020016000208190555060019050613cb3565b600090505b92915050565b6000808460010160008581526020019081526020016000205490506000811415613d6057846000016040518060400160405280868152602001858152509080600181540180825580915050600190039060005260206000209060020201600090919091909150600082015181600001556020820151816001015550508460000180549050856001016000868152602001908152602001600020819055506001915050613d8e565b82856000016001830381548110613d7357fe5b90600052602060002090600202016001018190555060009150505b9392505050565b60008060007fc5d2460186f7233c927e7db2dcc703c0e500b653ca82273b7bfad8045d85a47060001b9050833f9150808214158015613dd757506000801b8214155b92505050919050565b6060613def848460008561400f565b90509392505050565b600073ffffffffffffffffffffffffffffffffffffffff168273ffffffffffffffffffffffffffffffffffffffff161415613e9b576040517f08c379a00000000000000000000000000000000000000000000000000000000081526004018080602001828103825260208152602001807f4552433732313a206d696e7420746f20746865207a65726f206164647265737381525060200191505060405180910390fd5b613ea481611cff565b15613f17576040517f08c379a000000000000000000000000000000000000000000000000000000000815260040180806020018281038252601c8152602001807f4552433732313a20746f6b656e20616c7265616479206d696e7465640000000081525060200191505060405180910390fd5b613f2360008383612f5e565b613f7481600560008573ffffffffffffffffffffffffffffffffffffffff1673ffffffffffffffffffffffffffffffffffffffff168152602001908152602001600020612fbd90919063ffffffff16565b50613f8b81836006612fd79092919063ffffffff16565b50808273ffffffffffffffffffffffffffffffffffffffff16600073ffffffffffffffffffffffffffffffffffffffff167fddf252ad1be2c89b69c2b068fc378daa952ba7f163c4a11628f55a4df523b3ef60405160405180910390a45050565b600080836001016000848152602001908152602001600020541415905092915050565b606061401a85613d95565b61408c576040517f08c379a000000000000000000000000000000000000000000000000000000000815260040180806020018281038252601d8152602001807f416464726573733a2063616c6c20746f206e6f6e2d636f6e747261637400000081525060200191505060405180910390fd5b6000808673ffffffffffffffffffffffffffffffffffffffff1685876040518082805190602001908083835b602083106140db57805182526020820191506020810190506020830392506140b8565b6001836020036101000a03801982511681845116808217855250505050505090500191505060006040518083038185875af1925050503d806000811461413d576040519150601f19603f3d011682016040523d82523d6000602084013e614142565b606091505b5091509150811561415757809250505061420c565b60008151111561416a5780518082602001fd5b836040517f08c379a00000000000000000000000000000000000000000000000000000000081526004018080602001828103825283818151815260200191508051906020019080838360005b838110156141d15780820151818401526020810190506141b6565b50505050905090810190601f1680156141fe5780820380516001836020036101000a031916815260200191505b509250505060405180910390fd5b949350505050565b828054600181600116156101000203166002900490600052602060002090601f01602090048101928261424a5760008555614291565b82601f1061426357805160ff1916838001178555614291565b82800160010185558215614291579182015b82811115614290578251825591602001919060010190614275565b5b50905061429e91906142a2565b5090565b5b808211156142bb5760008160009055506001016142a3565b5090565b60006142d26142cd84615083565b615052565b9050828152602081018484840111156142ea57600080fd5b6142f5848285615224565b509392505050565b600061431061430b84615083565b615052565b90508281526020810184848401111561432857600080fd5b614333848285615233565b509392505050565b600061434e614349846150b3565b615052565b90508281526020810184848401111561436657600080fd5b614371848285615224565b509392505050565b60008135905061438881615279565b92915050565b60008135905061439d81615290565b92915050565b6000815190506143b281615290565b92915050565b6000813590506143c7816152a7565b92915050565b6000813590506143dc816152be565b92915050565b60008083601f8401126143f457600080fd5b8235905067ffffffffffffffff81111561440d57600080fd5b60208301915083600182028301111561442557600080fd5b9250929050565b600082601f83011261443d57600080fd5b813561444d8482602086016142bf565b91505092915050565b600082601f83011261446757600080fd5b81516144778482602086016142fd565b91505092915050565b60008135905061448f816152d5565b92915050565b6000813590506144a4816152ec565b92915050565b6000815190506144b9816152ec565b92915050565b600082601f8301126144d057600080fd5b81356144e084826020860161433b565b91505092915050565b6000813590506144f881615303565b92915050565b60008151905061450d81615303565b92915050565b60006020828403121561452557600080fd5b600061453384828501614379565b91505092915050565b6000806040838503121561454f57600080fd5b600061455d85828601614379565b925050602061456e85828601614379565b9150509250929050565b60008060006060848603121561458d57600080fd5b600061459b86828701614379565b93505060206145ac86828701614379565b92505060406145bd868287016144e9565b9150509250925092565b600080600080608085870312156145dd57600080fd5b60006145eb87828801614379565b94505060206145fc87828801614379565b935050604061460d878288016144e9565b925050606085013567ffffffffffffffff81111561462a57600080fd5b6146368782880161442c565b91505092959194509250565b6000806040838503121561465557600080fd5b600061466385828601614379565b92505060206146748582860161438e565b9150509250929050565b6000806040838503121561469157600080fd5b600061469f85828601614379565b925050602083013567ffffffffffffffff8111156146bc57600080fd5b6146c8858286016144bf565b9150509250929050565b600080604083850312156146e557600080fd5b60006146f385828601614379565b9250506020614704858286016144e9565b9150509250929050565b60006020828403121561472057600080fd5b600061472e848285016143a3565b91505092915050565b60006020828403121561474957600080fd5b6000614757848285016143cd565b91505092915050565b60006020828403121561477257600080fd5b600082015167ffffffffffffffff81111561478c57600080fd5b61479884828501614456565b91505092915050565b600080604083850312156147b457600080fd5b600083015167ffffffffffffffff8111156147ce57600080fd5b6147da85828601614456565b925050602083015167ffffffffffffffff8111156147f757600080fd5b61480385828601614456565b9150509250929050565b600080600080600080600060a0888a03121561482857600080fd5b60006148368a828b01614480565b97505060206148478a828b01614379565b96505060406148588a828b016143b8565b955050606088013567ffffffffffffffff81111561487557600080fd5b6148818a828b016143e2565b9450945050608088013567ffffffffffffffff8111156148a057600080fd5b6148ac8a828b016143e2565b925092505092959891949750929550565b600080600080600080600080600060c08a8c0312156148db57600080fd5b60006148e98c828d01614480565b99505060206148fa8c828d01614379565b985050604061490b8c828d016143b8565b97505060608a013567ffffffffffffffff81111561492857600080fd5b6149348c828d016143e2565b965096505060808a013567ffffffffffffffff81111561495357600080fd5b61495f8c828d016143e2565b945094505060a08a013567ffffffffffffffff81111561497e57600080fd5b61498a8c828d016143e2565b92509250509295985092959850929598565b6000602082840312156149ae57600080fd5b60006149bc848285016144aa565b91505092915050565b6000602082840312156149d757600080fd5b60006149e5848285016144e9565b91505092915050565b60008060408385031215614a0157600080fd5b6000614a0f858286016144e9565b9250506020614a2085828601614379565b9150509250929050565b600080600060608486031215614a3f57600080fd5b6000614a4d868287016144e9565b9350506020614a5e86828701614379565b9250506040614a6f86828701614495565b9150509250925092565b60008060008060808587031215614a8f57600080fd5b6000614a9d878288016144fe565b9450506020614aae878288016144aa565b9350506040614abf878288016144fe565b9250506060614ad0878288016144fe565b91505092959194509250565b614ae58161511b565b82525050565b614af48161512d565b82525050565b6000614b05826150e3565b614b0f81856150f9565b9350614b1f818560208601615233565b614b2881615268565b840191505092915050565b614b3c816151b8565b82525050565b614b4b816151dc565b82525050565b614b5a81615200565b82525050565b614b6981615181565b82525050565b6000614b7a826150ee565b614b84818561510a565b9350614b94818560208601615233565b614b9d81615268565b840191505092915050565b6000614bb56002836150f9565b91507f30780000000000000000000000000000000000000000000000000000000000006000830152602082019050919050565b6000614bf5601c8361510a565b91507f4e6577207265636569766572206973207a65726f2061646472657373000000006000830152602082019050919050565b6000614c3560228361510a565b91507f4e65772072656365697665722063616e206e6f7420626520612073757065724160008301527f70700000000000000000000000000000000000000000000000000000000000006020830152604082019050919050565b6000614c9b60308361510a565b91507f4f6e6c79207468652063726561746f72206f6620746865204e465420636f756c60008301527f642073746f702074686520666c6f7720000000000000000000000000000000006020830152604082019050919050565b6000614d0160428361510a565b91507f466c6f7720636f756c642062652063726561746564206f6e6c7920616674657260008301527f20746865204e465420697320626f7567687420627920736f6d656f6e6520656c60208301527f73650000000000000000000000000000000000000000000000000000000000006040830152606082019050919050565b614d89816151ae565b82525050565b6000602082019050614da46000830184614adc565b92915050565b6000602082019050614dbf6000830184614aeb565b92915050565b60006020820190508181036000830152614ddf8184614afa565b905092915050565b6000606082019050614dfc6000830185614b33565b8181036020830152614e0e8184614afa565b90508181036040830152614e2181614ba8565b90509392505050565b6000608082019050614e3f6000830186614b33565b8181036020830152614e518185614afa565b90508181036040830152614e6481614ba8565b90508181036060830152614e788184614afa565b9050949350505050565b6000602082019050614e976000830184614b42565b92915050565b6000604082019050614eb26000830185614b51565b614ebf6020830184614adc565b9392505050565b6000606082019050614edb6000830186614b51565b614ee86020830185614adc565b614ef56040830184614adc565b949350505050565b6000608082019050614f126000830187614b51565b614f1f6020830186614adc565b614f2c6040830185614adc565b8181036060830152614f3e8184614afa565b905095945050505050565b6000608082019050614f5e6000830187614b51565b614f6b6020830186614adc565b614f786040830185614b60565b8181036060830152614f8a8184614afa565b905095945050505050565b60006020820190508181036000830152614faf8184614b6f565b905092915050565b60006020820190508181036000830152614fd081614be8565b9050919050565b60006020820190508181036000830152614ff081614c28565b9050919050565b6000602082019050818103600083015261501081614c8e565b9050919050565b6000602082019050818103600083015261503081614cf4565b9050919050565b600060208201905061504c6000830184614d80565b92915050565b6000604051905081810181811067ffffffffffffffff8211171561507957615078615266565b5b8060405250919050565b600067ffffffffffffffff82111561509e5761509d615266565b5b601f19601f8301169050602081019050919050565b600067ffffffffffffffff8211156150ce576150cd615266565b5b601f19601f8301169050602081019050919050565b600081519050919050565b600081519050919050565b600082825260208201905092915050565b600082825260208201905092915050565b60006151268261518e565b9050919050565b60008115159050919050565b6000819050919050565b60007fffffffff0000000000000000000000000000000000000000000000000000000082169050919050565b600061517a8261511b565b9050919050565b600081600b0b9050919050565b600073ffffffffffffffffffffffffffffffffffffffff82169050919050565b6000819050919050565b60006151c3826151ca565b9050919050565b60006151d58261518e565b9050919050565b60006151e7826151ee565b9050919050565b60006151f98261518e565b9050919050565b600061520b82615212565b9050919050565b600061521d8261518e565b9050919050565b82818337600083830152505050565b60005b83811015615251578082015181840152602081019050615236565b83811115615260576000848401525b50505050565bfe5b6000601f19601f8301169050919050565b6152828161511b565b811461528d57600080fd5b50565b6152998161512d565b81146152a457600080fd5b50565b6152b081615139565b81146152bb57600080fd5b50565b6152c781615143565b81146152d257600080fd5b50565b6152de8161516f565b81146152e957600080fd5b50565b6152f581615181565b811461530057600080fd5b50565b61530c816151ae565b811461531757600080fd5b5056fe456e756d657261626c655365743a20696e646578206f7574206f6620626f756e64734552433732313a207472616e7366657220746f206e6f6e20455243373231526563656976657220696d706c656d656e7465724f776e61626c653a206e6577206f776e657220697320746865207a65726f2061646472657373556e737570706f727465642063616c6c6261636b202d20204265666f72652041677265656d656e74205465726d696e617465644552433732313a207472616e7366657220746f20746865207a65726f20616464726573734552433732313a206f70657261746f7220717565727920666f72206e6f6e6578697374656e7420746f6b656e4552433732313a20617070726f76652063616c6c6572206973206e6f74206f776e6572206e6f7220617070726f76656420666f7220616c6c4552433732313a2062616c616e636520717565727920666f7220746865207a65726f20616464726573734552433732313a206f776e657220717565727920666f72206e6f6e6578697374656e7420746f6b656e456e756d657261626c654d61703a20696e646578206f7574206f6620626f756e64734552433732313a20617070726f76656420717565727920666f72206e6f6e6578697374656e7420746f6b656e4552433732314d657461646174613a2055524920736574206f66206e6f6e6578697374656e7420746f6b656e4552433732313a207472616e73666572206f6620746f6b656e2074686174206973206e6f74206f776e4552433732314d657461646174613a2055524920717565727920666f72206e6f6e6578697374656e7420746f6b656e4552433732313a20617070726f76616c20746f2063757272656e74206f776e6572556e737570706f727465642063616c6c6261636b202d204265666f72652041677265656d656e7420757064617465644552433732313a207472616e736665722063616c6c6572206973206e6f74206f776e6572206e6f7220617070726f766564556e737570706f727465642063616c6c6261636b202d204265666f72652041677265656d656e742043726561746564a264697066735822122069fc80de45e3f4ab3daa14dc5f91c96068fede00a97ba343a25b3bef59cf7d4664736f6c63430007060033",
  "immutableReferences": {},
  "source": "// SPDX-License-Identifier: MIT\npragma solidity ^0.7.0;\npragma abicoder v2;\n\nimport \"@openzeppelin/contracts/token/ERC721/ERC721.sol\";\nimport \"@openzeppelin/contracts/access/Ownable.sol\";\nimport \"@openzeppelin/contracts/utils/Counters.sol\";\nimport \"./ManageFlows.sol\";\n\n//How do we add a flow before it is transferred to someone or the flow starts as soon as it is transferred to someone\ncontract SocialStreamableNFT is ManageFlows,ERC721, Ownable {\n    using Counters for Counters.Counter;\n    mapping (uint256=>address) _nftCreator;\n    mapping (uint256=>address) _nftToken;\n\n    Counters.Counter private _tokenIdCounter;\n\n    constructor(ISuperfluid host,\n        IConstantFlowAgreementV1 cfa) ERC721(\"SocialStreamableNFT\", \"SSSNFT\") ManageFlows(host,cfa) {\n        }\n\n    function safeMint(address to,string memory tokenURI) public {\n        _safeMint(to, _tokenIdCounter.current());\n        _setTokenURI(_tokenIdCounter.current(), tokenURI);\n        _nftCreator[_tokenIdCounter.current()] = msg.sender;\n        _tokenIdCounter.increment();\n    }\n\n    function _burn(uint256 tokenId) internal override(ERC721) {\n        super._burn(tokenId);\n    }\n\n    function createFlow(uint256 tokenId,address token,int96 flowRate) external {\n        require(ownerOf(tokenId)!=msg.sender,\"Flow could be created only after the NFT is bought by someone else\");\n        CreateFlow(token, ownerOf(tokenId), flowRate);\n    }\n\n    function stopFlow(uint256 tokenId,address token) external {\n        require(_nftCreator[tokenId]==msg.sender,\"Only the creator of the NFT could stop the flow \");\n        StopFlow(token, msg.sender, ownerOf(tokenId));\n    }\n\n    function _beforeTokenTransfer(\n        address from,\n        address to,\n        uint256 tokenId\n    ) internal override {\n        //Figure out how to detect when this is called during minting\n        if(from!=address(0))\n        _changeReceiver(from,to,tokenId);\n    }\n\n    function _updateOutflow(bytes calldata ctx,ISuperToken _acceptedToken)\n        private\n        returns (bytes memory newCtx)\n    {\n      newCtx = ctx;\n      address _receiver = ownerOf(0);//TODO: How to make this generalized? Will have to decode the context data to get the tokenID\n      _nftToken[0] = address(_acceptedToken);\n      // @dev This will give me the new flowRate, as it is called in after callbacks\n      int96 netFlowRate = _cfa.getNetFlow(_acceptedToken, address(this));\n      (,int96 outFlowRate,,) = _cfa.getFlow(_acceptedToken, address(this), _receiver); // CHECK: unclear what happens if flow doesn't exist.\n      int96 inFlowRate = netFlowRate + outFlowRate;\n\n      // @dev If inFlowRate === 0, then delete existing flow.\n      if (inFlowRate == int96(0)) {\n        // @dev if inFlowRate is zero, delete outflow.\n          (newCtx, ) = _host.callAgreementWithContext(\n              _cfa,\n              abi.encodeWithSelector(\n                  _cfa.deleteFlow.selector,\n                  _acceptedToken,\n                  address(this),\n                  _receiver,\n                  new bytes(0) // placeholder\n              ),\n              \"0x\",\n              newCtx\n          );\n        } else if (outFlowRate != int96(0)){\n        (newCtx, ) = _host.callAgreementWithContext(\n            _cfa,\n            abi.encodeWithSelector(\n                _cfa.updateFlow.selector,\n                _acceptedToken,\n                _receiver,\n                inFlowRate,\n                new bytes(0) // placeholder\n            ),\n            \"0x\",\n            newCtx\n        );\n      } else {\n      // @dev If there is no existing outflow, then create new flow to equal inflow\n          (newCtx, ) = _host.callAgreementWithContext(\n              _cfa,\n              abi.encodeWithSelector(\n                  _cfa.createFlow.selector,\n                  _acceptedToken,\n                  _receiver,\n                  inFlowRate,\n                  new bytes(0) // placeholder\n              ),\n              \"0x\",\n              newCtx\n          );\n      }\n    }\n\n    // @dev Change the Receiver of the total flow\n    function _changeReceiver( address from,\n        address newReceiver,\n        uint256 tokenId ) internal {\n        require(newReceiver != address(0), \"New receiver is zero address\");\n        // @dev because our app is registered as final, we can't take downstream apps\n        require(!_host.isApp(ISuperApp(newReceiver)), \"New receiver can not be a superApp\");\n        if (newReceiver == ownerOf(tokenId)) return ;\n        // @dev delete flow to old receiver\n        ISuperToken _acceptedToken = ISuperToken(_nftToken[tokenId]);\n        (,int96 outFlowRate,,) = _cfa.getFlow(_acceptedToken, address(this), from); //CHECK: unclear what happens if flow doesn't exist.\n        if(outFlowRate > 0){\n          _host.callAgreement(\n              _cfa,\n              abi.encodeWithSelector(\n                  _cfa.deleteFlow.selector,\n                  _acceptedToken,\n                  address(this),\n                  from,\n                  new bytes(0)\n              ),\n              \"0x\"\n          );\n          // @dev create flow to new receiver\n          _host.callAgreement(\n              _cfa,\n              abi.encodeWithSelector(\n                  _cfa.createFlow.selector,\n                  _acceptedToken,\n                  newReceiver,\n                  _cfa.getNetFlow(_acceptedToken, address(this)),\n                  new bytes(0)\n              ),\n              \"0x\"\n          );\n        }\n        // @dev set global receiver to new receiver\n        \n\n        // emit ReceiverChanged(_receiver);\n    }\n\n    /**************************************************************************\n     * Superapp Callbacks\n     *************************************************************************/\n\n    // function beforeAgreementCreated(\n    //     ISuperToken superToken,\n    //     address agreementClass,\n    //     bytes32 agreementId,\n    //     bytes calldata agreementData,\n    //     bytes calldata ctx\n    // )\n    //     external\n    //     view\n    //     returns (bytes memory cbdata){\n\n    // }\n    \n    function afterAgreementCreated(\n        ISuperToken superToken,\n        address agreementClass,\n        bytes32 agreementId,\n        bytes calldata agreementData,\n        bytes calldata cbdata,\n        bytes calldata ctx\n    )\n    external override\n    returns (bytes memory newCtx){\n        return _updateOutflow(ctx,superToken);\n    }\n    \n    function afterAgreementUpdated(\n        ISuperToken superToken,\n        address agreementClass,\n        bytes32 agreementId,\n        bytes calldata agreementData,\n        bytes calldata cbdata,\n        bytes calldata ctx\n    )\n        external override\n        returns (bytes memory newCtx){\n            return _updateOutflow(ctx,superToken);\n            // return newCtx;\n        }\n    \n    function afterAgreementTerminated(\n        ISuperToken superToken,\n        address agreementClass,\n        bytes32 agreementId,\n        bytes calldata agreementData,\n        bytes calldata cbdata,\n        bytes calldata ctx\n    )\n        external override\n        returns (bytes memory newCtx){\n            newCtx=ctx;\n            return newCtx;\n        }\n}\n",
  "sourcePath": "/Users/praffulsahu/Documents/Crypto/StreamSocialToken/contracts/SocialStreamableNFT.sol",
  "compiler": {
    "name": "solc",
    "version": "0.7.6+commit.7338295f.Emscripten.clang"
  },
  "schemaVersion": "3.3.3",
  "updatedAt": "2021-07-09T14:15:01.069Z",
  "networkType": "ethereum",
  "devdoc": {
    "kind": "dev",
    "methods": {
      "approve(address,uint256)": {
        "details": "See {IERC721-approve}."
      },
      "balanceOf(address)": {
        "details": "See {IERC721-balanceOf}."
      },
      "baseURI()": {
        "details": "Returns the base URI set via {_setBaseURI}. This will be automatically added as a prefix in {tokenURI} to each token's URI, or to the token ID if no specific URI is set for that token ID."
      },
      "getApproved(uint256)": {
        "details": "See {IERC721-getApproved}."
      },
      "isApprovedForAll(address,address)": {
        "details": "See {IERC721-isApprovedForAll}."
      },
      "name()": {
        "details": "See {IERC721Metadata-name}."
      },
      "owner()": {
        "details": "Returns the address of the current owner."
      },
      "ownerOf(uint256)": {
        "details": "See {IERC721-ownerOf}."
      },
      "renounceOwnership()": {
        "details": "Leaves the contract without owner. It will not be possible to call `onlyOwner` functions anymore. Can only be called by the current owner. NOTE: Renouncing ownership will leave the contract without an owner, thereby removing any functionality that is only available to the owner."
      },
      "safeTransferFrom(address,address,uint256)": {
        "details": "See {IERC721-safeTransferFrom}."
      },
      "safeTransferFrom(address,address,uint256,bytes)": {
        "details": "See {IERC721-safeTransferFrom}."
      },
      "setApprovalForAll(address,bool)": {
        "details": "See {IERC721-setApprovalForAll}."
      },
      "supportsInterface(bytes4)": {
        "details": "See {IERC165-supportsInterface}. Time complexity O(1), guaranteed to always use less than 30 000 gas."
      },
      "symbol()": {
        "details": "See {IERC721Metadata-symbol}."
      },
      "tokenByIndex(uint256)": {
        "details": "See {IERC721Enumerable-tokenByIndex}."
      },
      "tokenOfOwnerByIndex(address,uint256)": {
        "details": "See {IERC721Enumerable-tokenOfOwnerByIndex}."
      },
      "tokenURI(uint256)": {
        "details": "See {IERC721Metadata-tokenURI}."
      },
      "totalSupply()": {
        "details": "See {IERC721Enumerable-totalSupply}."
      },
      "transferFrom(address,address,uint256)": {
        "details": "See {IERC721-transferFrom}."
      },
      "transferOwnership(address)": {
        "details": "Transfers ownership of the contract to a new account (`newOwner`). Can only be called by the current owner."
      }
    },
    "version": 1
  },
  "userdoc": {
    "kind": "user",
    "methods": {},
    "version": 1
  }
}