{
  "contractName": "SocialStreamableNFT",
  "abi": [
    {
      "inputs": [
        {
          "internalType": "contract ISuperfluid",
          "name": "host",
          "type": "address"
        },
        {
          "internalType": "contract IConstantFlowAgreementV1",
          "name": "cfa",
          "type": "address"
        }
      ],
      "stateMutability": "nonpayable",
      "type": "constructor"
    },
    {
      "anonymous": false,
      "inputs": [
        {
          "indexed": true,
          "internalType": "address",
          "name": "owner",
          "type": "address"
        },
        {
          "indexed": true,
          "internalType": "address",
          "name": "approved",
          "type": "address"
        },
        {
          "indexed": true,
          "internalType": "uint256",
          "name": "tokenId",
          "type": "uint256"
        }
      ],
      "name": "Approval",
      "type": "event"
    },
    {
      "anonymous": false,
      "inputs": [
        {
          "indexed": true,
          "internalType": "address",
          "name": "owner",
          "type": "address"
        },
        {
          "indexed": true,
          "internalType": "address",
          "name": "operator",
          "type": "address"
        },
        {
          "indexed": false,
          "internalType": "bool",
          "name": "approved",
          "type": "bool"
        }
      ],
      "name": "ApprovalForAll",
      "type": "event"
    },
    {
      "anonymous": false,
      "inputs": [
        {
          "indexed": true,
          "internalType": "address",
          "name": "previousOwner",
          "type": "address"
        },
        {
          "indexed": true,
          "internalType": "address",
          "name": "newOwner",
          "type": "address"
        }
      ],
      "name": "OwnershipTransferred",
      "type": "event"
    },
    {
      "anonymous": false,
      "inputs": [
        {
          "indexed": true,
          "internalType": "address",
          "name": "from",
          "type": "address"
        },
        {
          "indexed": true,
          "internalType": "address",
          "name": "to",
          "type": "address"
        },
        {
          "indexed": true,
          "internalType": "uint256",
          "name": "tokenId",
          "type": "uint256"
        }
      ],
      "name": "Transfer",
      "type": "event"
    },
    {
      "inputs": [
        {
          "internalType": "address",
          "name": "to",
          "type": "address"
        },
        {
          "internalType": "uint256",
          "name": "tokenId",
          "type": "uint256"
        }
      ],
      "name": "approve",
      "outputs": [],
      "stateMutability": "nonpayable",
      "type": "function"
    },
    {
      "inputs": [
        {
          "internalType": "address",
          "name": "owner",
          "type": "address"
        }
      ],
      "name": "balanceOf",
      "outputs": [
        {
          "internalType": "uint256",
          "name": "",
          "type": "uint256"
        }
      ],
      "stateMutability": "view",
      "type": "function",
      "constant": true
    },
    {
      "inputs": [],
      "name": "baseURI",
      "outputs": [
        {
          "internalType": "string",
          "name": "",
          "type": "string"
        }
      ],
      "stateMutability": "view",
      "type": "function",
      "constant": true
    },
    {
      "inputs": [
        {
          "internalType": "contract ISuperToken",
          "name": "",
          "type": "address"
        },
        {
          "internalType": "address",
          "name": "",
          "type": "address"
        },
        {
          "internalType": "bytes32",
          "name": "",
          "type": "bytes32"
        },
        {
          "internalType": "bytes",
          "name": "",
          "type": "bytes"
        },
        {
          "internalType": "bytes",
          "name": "",
          "type": "bytes"
        }
      ],
      "name": "beforeAgreementCreated",
      "outputs": [
        {
          "internalType": "bytes",
          "name": "",
          "type": "bytes"
        }
      ],
      "stateMutability": "view",
      "type": "function",
      "constant": true
    },
    {
      "inputs": [
        {
          "internalType": "contract ISuperToken",
          "name": "",
          "type": "address"
        },
        {
          "internalType": "address",
          "name": "",
          "type": "address"
        },
        {
          "internalType": "bytes32",
          "name": "",
          "type": "bytes32"
        },
        {
          "internalType": "bytes",
          "name": "",
          "type": "bytes"
        },
        {
          "internalType": "bytes",
          "name": "",
          "type": "bytes"
        }
      ],
      "name": "beforeAgreementTerminated",
      "outputs": [
        {
          "internalType": "bytes",
          "name": "",
          "type": "bytes"
        }
      ],
      "stateMutability": "view",
      "type": "function",
      "constant": true
    },
    {
      "inputs": [
        {
          "internalType": "contract ISuperToken",
          "name": "",
          "type": "address"
        },
        {
          "internalType": "address",
          "name": "",
          "type": "address"
        },
        {
          "internalType": "bytes32",
          "name": "",
          "type": "bytes32"
        },
        {
          "internalType": "bytes",
          "name": "",
          "type": "bytes"
        },
        {
          "internalType": "bytes",
          "name": "",
          "type": "bytes"
        }
      ],
      "name": "beforeAgreementUpdated",
      "outputs": [
        {
          "internalType": "bytes",
          "name": "",
          "type": "bytes"
        }
      ],
      "stateMutability": "view",
      "type": "function",
      "constant": true
    },
    {
      "inputs": [
        {
          "internalType": "uint256",
          "name": "tokenId",
          "type": "uint256"
        }
      ],
      "name": "getApproved",
      "outputs": [
        {
          "internalType": "address",
          "name": "",
          "type": "address"
        }
      ],
      "stateMutability": "view",
      "type": "function",
      "constant": true
    },
    {
      "inputs": [
        {
          "internalType": "address",
          "name": "owner",
          "type": "address"
        },
        {
          "internalType": "address",
          "name": "operator",
          "type": "address"
        }
      ],
      "name": "isApprovedForAll",
      "outputs": [
        {
          "internalType": "bool",
          "name": "",
          "type": "bool"
        }
      ],
      "stateMutability": "view",
      "type": "function",
      "constant": true
    },
    {
      "inputs": [],
      "name": "name",
      "outputs": [
        {
          "internalType": "string",
          "name": "",
          "type": "string"
        }
      ],
      "stateMutability": "view",
      "type": "function",
      "constant": true
    },
    {
      "inputs": [],
      "name": "owner",
      "outputs": [
        {
          "internalType": "address",
          "name": "",
          "type": "address"
        }
      ],
      "stateMutability": "view",
      "type": "function",
      "constant": true
    },
    {
      "inputs": [
        {
          "internalType": "uint256",
          "name": "tokenId",
          "type": "uint256"
        }
      ],
      "name": "ownerOf",
      "outputs": [
        {
          "internalType": "address",
          "name": "",
          "type": "address"
        }
      ],
      "stateMutability": "view",
      "type": "function",
      "constant": true
    },
    {
      "inputs": [],
      "name": "renounceOwnership",
      "outputs": [],
      "stateMutability": "nonpayable",
      "type": "function"
    },
    {
      "inputs": [
        {
          "internalType": "address",
          "name": "from",
          "type": "address"
        },
        {
          "internalType": "address",
          "name": "to",
          "type": "address"
        },
        {
          "internalType": "uint256",
          "name": "tokenId",
          "type": "uint256"
        }
      ],
      "name": "safeTransferFrom",
      "outputs": [],
      "stateMutability": "nonpayable",
      "type": "function"
    },
    {
      "inputs": [
        {
          "internalType": "address",
          "name": "from",
          "type": "address"
        },
        {
          "internalType": "address",
          "name": "to",
          "type": "address"
        },
        {
          "internalType": "uint256",
          "name": "tokenId",
          "type": "uint256"
        },
        {
          "internalType": "bytes",
          "name": "_data",
          "type": "bytes"
        }
      ],
      "name": "safeTransferFrom",
      "outputs": [],
      "stateMutability": "nonpayable",
      "type": "function"
    },
    {
      "inputs": [
        {
          "internalType": "address",
          "name": "operator",
          "type": "address"
        },
        {
          "internalType": "bool",
          "name": "approved",
          "type": "bool"
        }
      ],
      "name": "setApprovalForAll",
      "outputs": [],
      "stateMutability": "nonpayable",
      "type": "function"
    },
    {
      "inputs": [
        {
          "internalType": "bytes4",
          "name": "interfaceId",
          "type": "bytes4"
        }
      ],
      "name": "supportsInterface",
      "outputs": [
        {
          "internalType": "bool",
          "name": "",
          "type": "bool"
        }
      ],
      "stateMutability": "view",
      "type": "function",
      "constant": true
    },
    {
      "inputs": [],
      "name": "symbol",
      "outputs": [
        {
          "internalType": "string",
          "name": "",
          "type": "string"
        }
      ],
      "stateMutability": "view",
      "type": "function",
      "constant": true
    },
    {
      "inputs": [
        {
          "internalType": "uint256",
          "name": "index",
          "type": "uint256"
        }
      ],
      "name": "tokenByIndex",
      "outputs": [
        {
          "internalType": "uint256",
          "name": "",
          "type": "uint256"
        }
      ],
      "stateMutability": "view",
      "type": "function",
      "constant": true
    },
    {
      "inputs": [
        {
          "internalType": "address",
          "name": "owner",
          "type": "address"
        },
        {
          "internalType": "uint256",
          "name": "index",
          "type": "uint256"
        }
      ],
      "name": "tokenOfOwnerByIndex",
      "outputs": [
        {
          "internalType": "uint256",
          "name": "",
          "type": "uint256"
        }
      ],
      "stateMutability": "view",
      "type": "function",
      "constant": true
    },
    {
      "inputs": [
        {
          "internalType": "uint256",
          "name": "tokenId",
          "type": "uint256"
        }
      ],
      "name": "tokenURI",
      "outputs": [
        {
          "internalType": "string",
          "name": "",
          "type": "string"
        }
      ],
      "stateMutability": "view",
      "type": "function",
      "constant": true
    },
    {
      "inputs": [],
      "name": "totalSupply",
      "outputs": [
        {
          "internalType": "uint256",
          "name": "",
          "type": "uint256"
        }
      ],
      "stateMutability": "view",
      "type": "function",
      "constant": true
    },
    {
      "inputs": [
        {
          "internalType": "address",
          "name": "from",
          "type": "address"
        },
        {
          "internalType": "address",
          "name": "to",
          "type": "address"
        },
        {
          "internalType": "uint256",
          "name": "tokenId",
          "type": "uint256"
        }
      ],
      "name": "transferFrom",
      "outputs": [],
      "stateMutability": "nonpayable",
      "type": "function"
    },
    {
      "inputs": [
        {
          "internalType": "address",
          "name": "newOwner",
          "type": "address"
        }
      ],
      "name": "transferOwnership",
      "outputs": [],
      "stateMutability": "nonpayable",
      "type": "function"
    },
    {
      "inputs": [
        {
          "internalType": "address",
          "name": "to",
          "type": "address"
        },
        {
          "internalType": "string",
          "name": "tokenURI",
          "type": "string"
        }
      ],
      "name": "safeMint",
      "outputs": [],
      "stateMutability": "nonpayable",
      "type": "function"
    },
    {
      "inputs": [
        {
          "internalType": "uint256",
          "name": "tokenId",
          "type": "uint256"
        },
        {
          "internalType": "address",
          "name": "token",
          "type": "address"
        },
        {
          "internalType": "int96",
          "name": "flowRate",
          "type": "int96"
        }
      ],
      "name": "createFlow",
      "outputs": [],
      "stateMutability": "nonpayable",
      "type": "function"
    },
    {
      "inputs": [
        {
          "internalType": "uint256",
          "name": "tokenId",
          "type": "uint256"
        },
        {
          "internalType": "address",
          "name": "token",
          "type": "address"
        }
      ],
      "name": "stopFlow",
      "outputs": [],
      "stateMutability": "nonpayable",
      "type": "function"
    },
    {
      "inputs": [
        {
          "internalType": "contract ISuperToken",
          "name": "superToken",
          "type": "address"
        },
        {
          "internalType": "address",
          "name": "agreementClass",
          "type": "address"
        },
        {
          "internalType": "bytes32",
          "name": "agreementId",
          "type": "bytes32"
        },
        {
          "internalType": "bytes",
          "name": "agreementData",
          "type": "bytes"
        },
        {
          "internalType": "bytes",
          "name": "cbdata",
          "type": "bytes"
        },
        {
          "internalType": "bytes",
          "name": "ctx",
          "type": "bytes"
        }
      ],
      "name": "afterAgreementCreated",
      "outputs": [
        {
          "internalType": "bytes",
          "name": "newCtx",
          "type": "bytes"
        }
      ],
      "stateMutability": "nonpayable",
      "type": "function"
    },
    {
      "inputs": [
        {
          "internalType": "contract ISuperToken",
          "name": "superToken",
          "type": "address"
        },
        {
          "internalType": "address",
          "name": "agreementClass",
          "type": "address"
        },
        {
          "internalType": "bytes32",
          "name": "agreementId",
          "type": "bytes32"
        },
        {
          "internalType": "bytes",
          "name": "agreementData",
          "type": "bytes"
        },
        {
          "internalType": "bytes",
          "name": "cbdata",
          "type": "bytes"
        },
        {
          "internalType": "bytes",
          "name": "ctx",
          "type": "bytes"
        }
      ],
      "name": "afterAgreementUpdated",
      "outputs": [
        {
          "internalType": "bytes",
          "name": "newCtx",
          "type": "bytes"
        }
      ],
      "stateMutability": "nonpayable",
      "type": "function"
    },
    {
      "inputs": [
        {
          "internalType": "contract ISuperToken",
          "name": "superToken",
          "type": "address"
        },
        {
          "internalType": "address",
          "name": "agreementClass",
          "type": "address"
        },
        {
          "internalType": "bytes32",
          "name": "agreementId",
          "type": "bytes32"
        },
        {
          "internalType": "bytes",
          "name": "agreementData",
          "type": "bytes"
        },
        {
          "internalType": "bytes",
          "name": "cbdata",
          "type": "bytes"
        },
        {
          "internalType": "bytes",
          "name": "ctx",
          "type": "bytes"
        }
      ],
      "name": "afterAgreementTerminated",
      "outputs": [
        {
          "internalType": "bytes",
          "name": "newCtx",
          "type": "bytes"
        }
      ],
      "stateMutability": "nonpayable",
      "type": "function"
    }
  ],
  "bytecode": "0x60806040523480156200001157600080fd5b50604051620060c5380380620060c583398181016040528101906200003791906200065f565b6040518060400160405280601381526020017f536f6369616c53747265616d61626c654e4654000000000000000000000000008152506040518060400160405280600681526020017f5353534e465400000000000000000000000000000000000000000000000000008152508383600073ffffffffffffffffffffffffffffffffffffffff168273ffffffffffffffffffffffffffffffffffffffff16141562000149576040517f08c379a00000000000000000000000000000000000000000000000000000000081526004018080602001828103825260148152602001807f686f7374206973207a65726f206164647265737300000000000000000000000081525060200191505060405180910390fd5b600073ffffffffffffffffffffffffffffffffffffffff168173ffffffffffffffffffffffffffffffffffffffff161415620001ed576040517f08c379a00000000000000000000000000000000000000000000000000000000081526004018080602001828103825260138152602001807f636661206973207a65726f20616464726573730000000000000000000000000081525060200191505060405180910390fd5b81600260006101000a81548173ffffffffffffffffffffffffffffffffffffffff021916908373ffffffffffffffffffffffffffffffffffffffff16021790555080600360006101000a81548173ffffffffffffffffffffffffffffffffffffffff021916908373ffffffffffffffffffffffffffffffffffffffff160217905550600064100000000064040000000064010000000060011717179050600260009054906101000a900473ffffffffffffffffffffffffffffffffffffffff1673ffffffffffffffffffffffffffffffffffffffff1663ad3915c8826040518263ffffffff1660e01b815260040180828152602001915050600060405180830381600087803b1580156200030057600080fd5b505af115801562000315573d6000803e3d6000fd5b50505050505050620003346301ffc9a760e01b6200046960201b60201c565b81600a90805190602001906200034c9291906200057b565b5080600b9080519060200190620003659291906200057b565b506200037e6380ac58cd60e01b6200046960201b60201c565b62000396635b5e139f60e01b6200046960201b60201c565b620003ae63780e9d6360e01b6200046960201b60201c565b50506000620003c26200057360201b60201c565b905080600e60006101000a81548173ffffffffffffffffffffffffffffffffffffffff021916908373ffffffffffffffffffffffffffffffffffffffff1602179055508073ffffffffffffffffffffffffffffffffffffffff16600073ffffffffffffffffffffffffffffffffffffffff167f8be0079c531659141344cd1fd0a4f28419497f9722a3daafe3b4186f6b6457e060405160405180910390a350505062000730565b63ffffffff60e01b817bffffffffffffffffffffffffffffffffffffffffffffffffffffffff1916141562000506576040517f08c379a000000000000000000000000000000000000000000000000000000000815260040180806020018281038252601c8152602001807f4552433136353a20696e76616c696420696e746572666163652069640000000081525060200191505060405180910390fd5b600160046000837bffffffffffffffffffffffffffffffffffffffffffffffffffffffff19167bffffffffffffffffffffffffffffffffffffffffffffffffffffffff1916815260200190815260200160002060006101000a81548160ff02191690831515021790555050565b600033905090565b828054600181600116156101000203166002900490600052602060002090601f016020900481019282620005b35760008555620005ff565b82601f10620005ce57805160ff1916838001178555620005ff565b82800160010185558215620005ff579182015b82811115620005fe578251825591602001919060010190620005e1565b5b5090506200060e919062000612565b5090565b5b808211156200062d57600081600090555060010162000613565b5090565b6000815190506200064281620006fc565b92915050565b600081519050620006598162000716565b92915050565b600080604083850312156200067357600080fd5b6000620006838582860162000648565b9250506020620006968582860162000631565b9150509250929050565b6000620006ad82620006dc565b9050919050565b6000620006c182620006a0565b9050919050565b6000620006d582620006a0565b9050919050565b600073ffffffffffffffffffffffffffffffffffffffff82169050919050565b6200070781620006b4565b81146200071357600080fd5b50565b6200072181620006c8565b81146200072d57600080fd5b50565b61598580620007406000396000f3fe608060405234801561001057600080fd5b50600436106101cf5760003560e01c80636352211e11610104578063a22cb465116100a2578063d86ed3e511610071578063d86ed3e514610578578063e985e9c5146105a8578063f2fde38b146105d8578063fa47c75e146105f4576101cf565b8063a22cb465146104f4578063b88d4fde14610510578063c87b56dd1461052c578063d204c45e1461055c576101cf565b8063715018a6116100de578063715018a61461047e578063884d1f40146104885780638da5cb5b146104b857806395d89b41146104d6576101cf565b80636352211e146104005780636c0360eb1461043057806370a082311461044e576101cf565b806323b872dd1161017157806342842e0e1161014b57806342842e0e146103545780634f6ccce71461037057806353c11f99146103a05780635f9e7d77146103d0576101cf565b806323b872dd146102d85780632f745c59146102f457806330d9c91514610324576101cf565b8063081812fc116101ad578063081812fc1461023e578063095ea7b31461026e57806318160ddd1461028a578063230dbd29146102a8576101cf565b806301ffc9a7146101d45780630637de251461020457806306fdde0314610220575b600080fd5b6101ee60048036038101906101e99190614962565b610610565b6040516101fb919061506c565b60405180910390f35b61021e60048036038101906102199190614cbf565b610678565b005b610228610707565b604051610235919061527b565b60405180910390f35b61025860048036038101906102539190614c31565b6107a9565b6040516102659190615051565b60405180910390f35b610288600480360381019061028391906148fd565b610844565b005b610292610988565b60405161029f919061531d565b60405180910390f35b6102c260048036038101906102bd9190614ae8565b610999565b6040516102cf91906150ab565b60405180910390f35b6102f260048036038101906102ed91906147a3565b6109b5565b005b61030e600480360381019061030991906148fd565b610a2b565b60405161031b919061531d565b60405180910390f35b61033e60048036038101906103399190614a38565b610a86565b60405161034b91906150ab565b60405180910390f35b61036e600480360381019061036991906147a3565b610ad9565b005b61038a60048036038101906103859190614c31565b610af9565b604051610397919061531d565b60405180910390f35b6103ba60048036038101906103b59190614ae8565b610b1c565b6040516103c791906150ab565b60405180910390f35b6103ea60048036038101906103e59190614a38565b610b72565b6040516103f791906150ab565b60405180910390f35b61041a60048036038101906104159190614c31565b610bc5565b6040516104279190615051565b60405180910390f35b610438610bfc565b604051610445919061527b565b60405180910390f35b6104686004803603810190610463919061473e565b610c9e565b604051610475919061531d565b60405180910390f35b610486610d73565b005b6104a2600480360381019061049d9190614a38565b610efe565b6040516104af91906150ab565b60405180910390f35b6104c0610f51565b6040516104cd9190615051565b60405180910390f35b6104de610f7b565b6040516104eb919061527b565b60405180910390f35b61050e6004803603810190610509919061486d565b61101d565b005b61052a600480360381019061052591906147f2565b6111d3565b005b61054660048036038101906105419190614c31565b61124b565b604051610553919061527b565b60405180910390f35b610576600480360381019061057191906148a9565b611534565b005b610592600480360381019061058d9190614ae8565b6115c3565b60405161059f91906150ab565b60405180910390f35b6105c260048036038101906105bd9190614767565b6115df565b6040516105cf919061506c565b60405180910390f35b6105f260048036038101906105ed919061473e565b611673565b005b61060e60048036038101906106099190614c83565b611883565b005b600060046000837bffffffffffffffffffffffffffffffffffffffffffffffffffffffff19167bffffffffffffffffffffffffffffffffffffffffffffffffffffffff1916815260200190815260200160002060009054906101000a900460ff169050919050565b3373ffffffffffffffffffffffffffffffffffffffff1661069884610bc5565b73ffffffffffffffffffffffffffffffffffffffff1614156106ef576040517f08c379a00000000000000000000000000000000000000000000000000000000081526004016106e6906152fd565b60405180910390fd5b610702826106fc85610bc5565b8361193b565b505050565b6060600a8054600181600116156101000203166002900480601f01602080910402602001604051908101604052809291908181526020018280546001816001161561010002031660029004801561079f5780601f106107745761010080835404028352916020019161079f565b820191906000526020600020905b81548152906001019060200180831161078257829003601f168201915b5050505050905090565b60006107b482611cff565b610809576040517f08c379a000000000000000000000000000000000000000000000000000000000815260040180806020018281038252602c8152602001806157f0602c913960400191505060405180910390fd5b6008600083815260200190815260200160002060009054906101000a900473ffffffffffffffffffffffffffffffffffffffff169050919050565b600061084f82610bc5565b90508073ffffffffffffffffffffffffffffffffffffffff168373ffffffffffffffffffffffffffffffffffffffff1614156108d6576040517f08c379a00000000000000000000000000000000000000000000000000000000081526004018080602001828103825260218152602001806158a06021913960400191505060405180910390fd5b8073ffffffffffffffffffffffffffffffffffffffff166108f5611d1c565b73ffffffffffffffffffffffffffffffffffffffff16148061092457506109238161091e611d1c565b6115df565b5b610979576040517f08c379a00000000000000000000000000000000000000000000000000000000081526004018080602001828103825260388152602001806157436038913960400191505060405180910390fd5b6109838383611d24565b505050565b60006109946006611ddd565b905090565b60606109a683838c611df2565b90509998505050505050505050565b6109c66109c0611d1c565b826125f3565b610a1b576040517f08c379a00000000000000000000000000000000000000000000000000000000081526004018080602001828103825260318152602001806158f06031913960400191505060405180910390fd5b610a268383836126e7565b505050565b6000610a7e82600560008673ffffffffffffffffffffffffffffffffffffffff1673ffffffffffffffffffffffffffffffffffffffff16815260200190815260200160002061292a90919063ffffffff16565b905092915050565b60606040517f08c379a000000000000000000000000000000000000000000000000000000000815260040180806020018281038252602f815260200180615921602f913960400191505060405180910390fd5b610af4838383604051806020016040528060008152506111d3565b505050565b600080610b1083600661294490919063ffffffff16565b50905080915050919050565b606082828080601f016020809104026020016040519081016040528093929190818152602001838380828437600081840152601f19601f8201169050808301925050505050505090509998505050505050505050565b60606040517f08c379a00000000000000000000000000000000000000000000000000000000081526004018080602001828103825260338152602001806156c06033913960400191505060405180910390fd5b6000610bf5826040518060600160405280602981526020016157a56029913960066129709092919063ffffffff16565b9050919050565b6060600d8054600181600116156101000203166002900480601f016020809104026020016040519081016040528092919081815260200182805460018160011615610100020316600290048015610c945780601f10610c6957610100808354040283529160200191610c94565b820191906000526020600020905b815481529060010190602001808311610c7757829003601f168201915b5050505050905090565b60008073ffffffffffffffffffffffffffffffffffffffff168273ffffffffffffffffffffffffffffffffffffffff161415610d25576040517f08c379a000000000000000000000000000000000000000000000000000000000815260040180806020018281038252602a81526020018061577b602a913960400191505060405180910390fd5b610d6c600560008473ffffffffffffffffffffffffffffffffffffffff1673ffffffffffffffffffffffffffffffffffffffff16815260200190815260200160002061298f565b9050919050565b610d7b611d1c565b73ffffffffffffffffffffffffffffffffffffffff16600e60009054906101000a900473ffffffffffffffffffffffffffffffffffffffff1673ffffffffffffffffffffffffffffffffffffffff1614610e3d576040517f08c379a00000000000000000000000000000000000000000000000000000000081526004018080602001828103825260208152602001807f4f776e61626c653a2063616c6c6572206973206e6f7420746865206f776e657281525060200191505060405180910390fd5b600073ffffffffffffffffffffffffffffffffffffffff16600e60009054906101000a900473ffffffffffffffffffffffffffffffffffffffff1673ffffffffffffffffffffffffffffffffffffffff167f8be0079c531659141344cd1fd0a4f28419497f9722a3daafe3b4186f6b6457e060405160405180910390a36000600e60006101000a81548173ffffffffffffffffffffffffffffffffffffffff021916908373ffffffffffffffffffffffffffffffffffffffff160217905550565b60606040517f08c379a000000000000000000000000000000000000000000000000000000000815260040180806020018281038252602f8152602001806158c1602f913960400191505060405180910390fd5b6000600e60009054906101000a900473ffffffffffffffffffffffffffffffffffffffff16905090565b6060600b8054600181600116156101000203166002900480601f0160208091040260200160405190810160405280929190818152602001828054600181600116156101000203166002900480156110135780601f10610fe857610100808354040283529160200191611013565b820191906000526020600020905b815481529060010190602001808311610ff657829003601f168201915b5050505050905090565b611025611d1c565b73ffffffffffffffffffffffffffffffffffffffff168273ffffffffffffffffffffffffffffffffffffffff1614156110c6576040517f08c379a00000000000000000000000000000000000000000000000000000000081526004018080602001828103825260198152602001807f4552433732313a20617070726f766520746f2063616c6c65720000000000000081525060200191505060405180910390fd5b80600960006110d3611d1c565b73ffffffffffffffffffffffffffffffffffffffff1673ffffffffffffffffffffffffffffffffffffffff16815260200190815260200160002060008473ffffffffffffffffffffffffffffffffffffffff1673ffffffffffffffffffffffffffffffffffffffff16815260200190815260200160002060006101000a81548160ff0219169083151502179055508173ffffffffffffffffffffffffffffffffffffffff16611180611d1c565b73ffffffffffffffffffffffffffffffffffffffff167f17307eab39ab6107e8899845ad3d59bd9653f200f220920489ca2b5937696c318360405180821515815260200191505060405180910390a35050565b6111e46111de611d1c565b836125f3565b611239576040517f08c379a00000000000000000000000000000000000000000000000000000000081526004018080602001828103825260318152602001806158f06031913960400191505060405180910390fd5b611245848484846129a4565b50505050565b606061125682611cff565b6112ab576040517f08c379a000000000000000000000000000000000000000000000000000000000815260040180806020018281038252602f815260200180615871602f913960400191505060405180910390fd5b6000600c60008481526020019081526020016000208054600181600116156101000203166002900480601f0160208091040260200160405190810160405280929190818152602001828054600181600116156101000203166002900480156113545780601f1061132957610100808354040283529160200191611354565b820191906000526020600020905b81548152906001019060200180831161133757829003601f168201915b505050505090506000600d8054600181600116156101000203166002900490501415611383578091505061152f565b60008151111561145c57600d8160405160200180838054600181600116156101000203166002900480156113ee5780601f106113cc5761010080835404028352918201916113ee565b820191906000526020600020905b8154815290600101906020018083116113da575b505082805190602001908083835b6020831061141f57805182526020820191506020810190506020830392506113fc565b6001836020036101000a0380198251168184511680821785525050505050509050019250505060405160208183030381529060405291505061152f565b600d61146784612a16565b60405160200180838054600181600116156101000203166002900480156114c55780601f106114a35761010080835404028352918201916114c5565b820191906000526020600020905b8154815290600101906020018083116114b1575b505082805190602001908083835b602083106114f657805182526020820191506020810190506020830392506114d3565b6001836020036101000a038019825116818451168082178552505050505050905001925050506040516020818303038152906040529150505b919050565b611547826115426011612b5d565b612b6b565b61155a6115546011612b5d565b82612b89565b33600f60006115696011612b5d565b815260200190815260200160002060006101000a81548173ffffffffffffffffffffffffffffffffffffffff021916908373ffffffffffffffffffffffffffffffffffffffff1602179055506115bf6011612c13565b5050565b60606115d083838c611df2565b90509998505050505050505050565b6000600960008473ffffffffffffffffffffffffffffffffffffffff1673ffffffffffffffffffffffffffffffffffffffff16815260200190815260200160002060008373ffffffffffffffffffffffffffffffffffffffff1673ffffffffffffffffffffffffffffffffffffffff16815260200190815260200160002060009054906101000a900460ff16905092915050565b61167b611d1c565b73ffffffffffffffffffffffffffffffffffffffff16600e60009054906101000a900473ffffffffffffffffffffffffffffffffffffffff1673ffffffffffffffffffffffffffffffffffffffff161461173d576040517f08c379a00000000000000000000000000000000000000000000000000000000081526004018080602001828103825260208152602001807f4f776e61626c653a2063616c6c6572206973206e6f7420746865206f776e657281525060200191505060405180910390fd5b600073ffffffffffffffffffffffffffffffffffffffff168173ffffffffffffffffffffffffffffffffffffffff1614156117c3576040517f08c379a000000000000000000000000000000000000000000000000000000000815260040180806020018281038252602681526020018061569a6026913960400191505060405180910390fd5b8073ffffffffffffffffffffffffffffffffffffffff16600e60009054906101000a900473ffffffffffffffffffffffffffffffffffffffff1673ffffffffffffffffffffffffffffffffffffffff167f8be0079c531659141344cd1fd0a4f28419497f9722a3daafe3b4186f6b6457e060405160405180910390a380600e60006101000a81548173ffffffffffffffffffffffffffffffffffffffff021916908373ffffffffffffffffffffffffffffffffffffffff16021790555050565b3373ffffffffffffffffffffffffffffffffffffffff16600f600084815260200190815260200160002060009054906101000a900473ffffffffffffffffffffffffffffffffffffffff1673ffffffffffffffffffffffffffffffffffffffff1614611924576040517f08c379a000000000000000000000000000000000000000000000000000000000815260040161191b906152dd565b60405180910390fd5b611937813361193285610bc5565b612c29565b5050565b6000839050600260009054906101000a900473ffffffffffffffffffffffffffffffffffffffff1673ffffffffffffffffffffffffffffffffffffffff166339255d5b600360009054906101000a900473ffffffffffffffffffffffffffffffffffffffff166362fc305e60e01b848787600067ffffffffffffffff811180156119c457600080fd5b506040519080825280601f01601f1916602001820160405280156119f75781602001600182028036833780820191505090505b50604051602401808573ffffffffffffffffffffffffffffffffffffffff1681526020018473ffffffffffffffffffffffffffffffffffffffff16815260200183600b0b815260200180602001828103825283818151815260200191508051906020019080838360005b83811015611a7c578082015181840152602081019050611a61565b50505050905090810190601f168015611aa95780820380516001836020036101000a031916815260200191505b5095505050505050604051602081830303815290604052907bffffffffffffffffffffffffffffffffffffffffffffffffffffffff19166020820180517bffffffffffffffffffffffffffffffffffffffffffffffffffffffff83818316178352505050506040518363ffffffff1660e01b8152600401808373ffffffffffffffffffffffffffffffffffffffff1681526020018060200180602001838103835284818151815260200191508051906020019080838360005b83811015611b7d578082015181840152602081019050611b62565b50505050905090810190601f168015611baa5780820380516001836020036101000a031916815260200191505b50838103825260028152602001807f3078000000000000000000000000000000000000000000000000000000000000815250602001945050505050600060405180830381600087803b158015611bff57600080fd5b505af1158015611c13573d6000803e3d6000fd5b505050506040513d6000823e3d601f19601f820116820180604052506020811015611c3d57600080fd5b8101908080516040519392919084640100000000821115611c5d57600080fd5b83820191506020820185811115611c7357600080fd5b8251866001820283011164010000000082111715611c9057600080fd5b8083526020830192505050908051906020019080838360005b83811015611cc4578082015181840152602081019050611ca9565b50505050905090810190601f168015611cf15780820380516001836020036101000a031916815260200191505b506040525050505050505050565b6000611d1582600661300090919063ffffffff16565b9050919050565b600033905090565b816008600083815260200190815260200160002060006101000a81548173ffffffffffffffffffffffffffffffffffffffff021916908373ffffffffffffffffffffffffffffffffffffffff160217905550808273ffffffffffffffffffffffffffffffffffffffff16611d9783610bc5565b73ffffffffffffffffffffffffffffffffffffffff167f8c5be1e5ebec7d5bd14f71427d1e84f3dd0314c0f7b2291e5b200ac8c7c3b92560405160405180910390a45050565b6000611deb8260000161301a565b9050919050565b606083838080601f016020809104026020016040519081016040528093929190818152602001838380828437600081840152601f19601f8201169050808301925050505050505090506000600260009054906101000a900473ffffffffffffffffffffffffffffffffffffffff1673ffffffffffffffffffffffffffffffffffffffff16633f6c923a86866040518363ffffffff1660e01b8152600401611e9a929190615087565b60006040518083038186803b158015611eb257600080fd5b505afa158015611ec6573d6000803e3d6000fd5b505050506040513d6000823e3d601f19601f82011682018060405250810190611eef9190614bf0565b60a00151806020019051810190611f069190614c5a565b90506000611f1382610bc5565b9050836010600084815260200190815260200160002060006101000a81548173ffffffffffffffffffffffffffffffffffffffff021916908373ffffffffffffffffffffffffffffffffffffffff1602179055506000600360009054906101000a900473ffffffffffffffffffffffffffffffffffffffff1673ffffffffffffffffffffffffffffffffffffffff1663e8e7e2d186306040518363ffffffff1660e01b8152600401611fc6929190615183565b60206040518083038186803b158015611fde57600080fd5b505afa158015611ff2573d6000803e3d6000fd5b505050506040513d601f19601f820116820180604052508101906120169190614bc7565b90506000600360009054906101000a900473ffffffffffffffffffffffffffffffffffffffff1673ffffffffffffffffffffffffffffffffffffffff1663e6a1e8888730866040518463ffffffff1660e01b8152600401612079939291906151ac565b60806040518083038186803b15801561209157600080fd5b505afa1580156120a5573d6000803e3d6000fd5b505050506040513d601f19601f820116820180604052508101906120c99190614d0e565b5050915050600081830190506000600b0b81600b0b141561228c57600260009054906101000a900473ffffffffffffffffffffffffffffffffffffffff1673ffffffffffffffffffffffffffffffffffffffff16634329d293600360009054906101000a900473ffffffffffffffffffffffffffffffffffffffff1663b4b333c660e01b8a3089600067ffffffffffffffff8111801561216857600080fd5b506040519080825280601f01601f19166020018201604052801561219b5781602001600182028036833780820191505090505b506040516024016121af94939291906151e3565b604051602081830303815290604052907bffffffffffffffffffffffffffffffffffffffffffffffffffffffff19166020820180517bffffffffffffffffffffffffffffffffffffffffffffffffffffffff8381831617835250505050896040518463ffffffff1660e01b815260040161222b93929190615110565b600060405180830381600087803b15801561224557600080fd5b505af1158015612259573d6000803e3d6000fd5b505050506040513d6000823e3d601f19601f8201168201806040525081019061228291906149cc565b50809650506125e7565b6000600b0b82600b0b1461244257600260009054906101000a900473ffffffffffffffffffffffffffffffffffffffff1673ffffffffffffffffffffffffffffffffffffffff16634329d293600360009054906101000a900473ffffffffffffffffffffffffffffffffffffffff166350209a6260e01b8a8886600067ffffffffffffffff8111801561231e57600080fd5b506040519080825280601f01601f1916602001820160405280156123515781602001600182028036833780820191505090505b50604051602401612365949392919061522f565b604051602081830303815290604052907bffffffffffffffffffffffffffffffffffffffffffffffffffffffff19166020820180517bffffffffffffffffffffffffffffffffffffffffffffffffffffffff8381831617835250505050896040518463ffffffff1660e01b81526004016123e193929190615110565b600060405180830381600087803b1580156123fb57600080fd5b505af115801561240f573d6000803e3d6000fd5b505050506040513d6000823e3d601f19601f8201168201806040525081019061243891906149cc565b50809650506125e6565b600260009054906101000a900473ffffffffffffffffffffffffffffffffffffffff1673ffffffffffffffffffffffffffffffffffffffff16634329d293600360009054906101000a900473ffffffffffffffffffffffffffffffffffffffff166362fc305e60e01b8a8886600067ffffffffffffffff811180156124c657600080fd5b506040519080825280601f01601f1916602001820160405280156124f95781602001600182028036833780820191505090505b5060405160240161250d949392919061522f565b604051602081830303815290604052907bffffffffffffffffffffffffffffffffffffffffffffffffffffffff19166020820180517bffffffffffffffffffffffffffffffffffffffffffffffffffffffff8381831617835250505050896040518463ffffffff1660e01b815260040161258993929190615110565b600060405180830381600087803b1580156125a357600080fd5b505af11580156125b7573d6000803e3d6000fd5b505050506040513d6000823e3d601f19601f820116820180604052508101906125e091906149cc565b50809650505b5b50505050509392505050565b60006125fe82611cff565b612653576040517f08c379a000000000000000000000000000000000000000000000000000000000815260040180806020018281038252602c815260200180615717602c913960400191505060405180910390fd5b600061265e83610bc5565b90508073ffffffffffffffffffffffffffffffffffffffff168473ffffffffffffffffffffffffffffffffffffffff1614806126cd57508373ffffffffffffffffffffffffffffffffffffffff166126b5846107a9565b73ffffffffffffffffffffffffffffffffffffffff16145b806126de57506126dd81856115df565b5b91505092915050565b8273ffffffffffffffffffffffffffffffffffffffff1661270782610bc5565b73ffffffffffffffffffffffffffffffffffffffff1614612773576040517f08c379a00000000000000000000000000000000000000000000000000000000081526004018080602001828103825260298152602001806158486029913960400191505060405180910390fd5b600073ffffffffffffffffffffffffffffffffffffffff168273ffffffffffffffffffffffffffffffffffffffff1614156127f9576040517f08c379a00000000000000000000000000000000000000000000000000000000081526004018080602001828103825260248152602001806156f36024913960400191505060405180910390fd5b61280483838361302b565b61280f600082611d24565b61286081600560008673ffffffffffffffffffffffffffffffffffffffff1673ffffffffffffffffffffffffffffffffffffffff16815260200190815260200160002061307090919063ffffffff16565b506128b281600560008573ffffffffffffffffffffffffffffffffffffffff1673ffffffffffffffffffffffffffffffffffffffff16815260200190815260200160002061308a90919063ffffffff16565b506128c9818360066130a49092919063ffffffff16565b50808273ffffffffffffffffffffffffffffffffffffffff168473ffffffffffffffffffffffffffffffffffffffff167fddf252ad1be2c89b69c2b068fc378daa952ba7f163c4a11628f55a4df523b3ef60405160405180910390a4505050565b600061293983600001836130d9565b60001c905092915050565b600080600080612957866000018661315c565b915091508160001c8160001c9350935050509250929050565b6000612983846000018460001b846131f5565b60001c90509392505050565b600061299d826000016132eb565b9050919050565b6129af8484846126e7565b6129bb848484846132fc565b612a10576040517f08c379a00000000000000000000000000000000000000000000000000000000081526004018080602001828103825260328152602001806156686032913960400191505060405180910390fd5b50505050565b60606000821415612a5e576040518060400160405280600181526020017f30000000000000000000000000000000000000000000000000000000000000008152509050612b58565b600082905060005b60008214612a88578080600101915050600a8281612a8057fe5b049150612a66565b60008167ffffffffffffffff81118015612aa157600080fd5b506040519080825280601f01601f191660200182016040528015612ad45781602001600182028036833780820191505090505b50905060006001830390508593505b60008414612b5057600a8481612af557fe5b0660300160f81b82828060019003935081518110612b0f57fe5b60200101907effffffffffffffffffffffffffffffffffffffffffffffffffffffffffffff1916908160001a905350600a8481612b4857fe5b049350612ae3565b819450505050505b919050565b600081600001549050919050565b612b85828260405180602001604052806000815250613515565b5050565b612b9282611cff565b612be7576040517f08c379a000000000000000000000000000000000000000000000000000000000815260040180806020018281038252602c81526020018061581c602c913960400191505060405180910390fd5b80600c60008481526020019081526020016000209080519060200190612c0e9291906142e1565b505050565b6001816000016000828254019250508190555050565b6000839050600260009054906101000a900473ffffffffffffffffffffffffffffffffffffffff1673ffffffffffffffffffffffffffffffffffffffff166339255d5b600360009054906101000a900473ffffffffffffffffffffffffffffffffffffffff1663b4b333c660e01b848787600067ffffffffffffffff81118015612cb257600080fd5b506040519080825280601f01601f191660200182016040528015612ce55781602001600182028036833780820191505090505b50604051602401808573ffffffffffffffffffffffffffffffffffffffff1681526020018473ffffffffffffffffffffffffffffffffffffffff1681526020018373ffffffffffffffffffffffffffffffffffffffff16815260200180602001828103825283818151815260200191508051906020019080838360005b83811015612d7d578082015181840152602081019050612d62565b50505050905090810190601f168015612daa5780820380516001836020036101000a031916815260200191505b5095505050505050604051602081830303815290604052907bffffffffffffffffffffffffffffffffffffffffffffffffffffffff19166020820180517bffffffffffffffffffffffffffffffffffffffffffffffffffffffff83818316178352505050506040518363ffffffff1660e01b8152600401808373ffffffffffffffffffffffffffffffffffffffff1681526020018060200180602001838103835284818151815260200191508051906020019080838360005b83811015612e7e578082015181840152602081019050612e63565b50505050905090810190601f168015612eab5780820380516001836020036101000a031916815260200191505b50838103825260028152602001807f3078000000000000000000000000000000000000000000000000000000000000815250602001945050505050600060405180830381600087803b158015612f0057600080fd5b505af1158015612f14573d6000803e3d6000fd5b505050506040513d6000823e3d601f19601f820116820180604052506020811015612f3e57600080fd5b8101908080516040519392919084640100000000821115612f5e57600080fd5b83820191506020820185811115612f7457600080fd5b8251866001820283011164010000000082111715612f9157600080fd5b8083526020830192505050908051906020019080838360005b83811015612fc5578082015181840152602081019050612faa565b50505050905090810190601f168015612ff25780820380516001836020036101000a031916815260200191505b506040525050505050505050565b6000613012836000018360001b613586565b905092915050565b600081600001805490509050919050565b600073ffffffffffffffffffffffffffffffffffffffff168373ffffffffffffffffffffffffffffffffffffffff161461306b5761306a8383836135a9565b5b505050565b6000613082836000018360001b613c2e565b905092915050565b600061309c836000018360001b613d16565b905092915050565b60006130d0846000018460001b8473ffffffffffffffffffffffffffffffffffffffff1660001b613d86565b90509392505050565b60008183600001805490501161313a576040517f08c379a00000000000000000000000000000000000000000000000000000000081526004018080602001828103825260228152602001806156466022913960400191505060405180910390fd5b82600001828154811061314957fe5b9060005260206000200154905092915050565b600080828460000180549050116131be576040517f08c379a00000000000000000000000000000000000000000000000000000000081526004018080602001828103825260228152602001806157ce6022913960400191505060405180910390fd5b60008460000184815481106131cf57fe5b906000526020600020906002020190508060000154816001015492509250509250929050565b600080846001016000858152602001908152602001600020549050600081141583906132bc576040517f08c379a00000000000000000000000000000000000000000000000000000000081526004018080602001828103825283818151815260200191508051906020019080838360005b83811015613281578082015181840152602081019050613266565b50505050905090810190601f1680156132ae5780820380516001836020036101000a031916815260200191505b509250505060405180910390fd5b508460000160018203815481106132cf57fe5b9060005260206000209060020201600101549150509392505050565b600081600001805490509050919050565b600061331d8473ffffffffffffffffffffffffffffffffffffffff16613e62565b61332a576001905061350d565b600061349463150b7a0260e01b61333f611d1c565b888787604051602401808573ffffffffffffffffffffffffffffffffffffffff1681526020018473ffffffffffffffffffffffffffffffffffffffff16815260200183815260200180602001828103825283818151815260200191508051906020019080838360005b838110156133c35780820151818401526020810190506133a8565b50505050905090810190601f1680156133f05780820380516001836020036101000a031916815260200191505b5095505050505050604051602081830303815290604052907bffffffffffffffffffffffffffffffffffffffffffffffffffffffff19166020820180517bffffffffffffffffffffffffffffffffffffffffffffffffffffffff8381831617835250505050604051806060016040528060328152602001615668603291398773ffffffffffffffffffffffffffffffffffffffff16613ead9092919063ffffffff16565b905060008180602001905160208110156134ad57600080fd5b8101908080519060200190929190505050905063150b7a0260e01b7bffffffffffffffffffffffffffffffffffffffffffffffffffffffff1916817bffffffffffffffffffffffffffffffffffffffffffffffffffffffff191614925050505b949350505050565b61351f8383613ec5565b61352c60008484846132fc565b613581576040517f08c379a00000000000000000000000000000000000000000000000000000000081526004018080602001828103825260328152602001806156686032913960400191505060405180910390fd5b505050565b600080836001016000848152602001908152602001600020541415905092915050565b600073ffffffffffffffffffffffffffffffffffffffff168273ffffffffffffffffffffffffffffffffffffffff161415613619576040517f08c379a00000000000000000000000000000000000000000000000000000000081526004016136109061529d565b60405180910390fd5b600260009054906101000a900473ffffffffffffffffffffffffffffffffffffffff1673ffffffffffffffffffffffffffffffffffffffff16633ca3ad4e836040518263ffffffff1660e01b81526004016136749190615168565b60206040518083038186803b15801561368c57600080fd5b505afa1580156136a0573d6000803e3d6000fd5b505050506040513d601f19601f820116820180604052508101906136c49190614939565b15613704576040517f08c379a00000000000000000000000000000000000000000000000000000000081526004016136fb906152bd565b60405180910390fd5b61370d81610bc5565b73ffffffffffffffffffffffffffffffffffffffff168273ffffffffffffffffffffffffffffffffffffffff16141561374557613c29565b60006010600083815260200190815260200160002060009054906101000a900473ffffffffffffffffffffffffffffffffffffffff1690506000600360009054906101000a900473ffffffffffffffffffffffffffffffffffffffff1673ffffffffffffffffffffffffffffffffffffffff1663e6a1e8888330886040518463ffffffff1660e01b81526004016137de939291906151ac565b60806040518083038186803b1580156137f657600080fd5b505afa15801561380a573d6000803e3d6000fd5b505050506040513d601f19601f8201168201806040525081019061382e9190614d0e565b5050915050600081600b0b1315613c2657600260009054906101000a900473ffffffffffffffffffffffffffffffffffffffff1673ffffffffffffffffffffffffffffffffffffffff166339255d5b600360009054906101000a900473ffffffffffffffffffffffffffffffffffffffff1663b4b333c660e01b85308a600067ffffffffffffffff811180156138c357600080fd5b506040519080825280601f01601f1916602001820160405280156138f65781602001600182028036833780820191505090505b5060405160240161390a94939291906151e3565b604051602081830303815290604052907bffffffffffffffffffffffffffffffffffffffffffffffffffffffff19166020820180517bffffffffffffffffffffffffffffffffffffffffffffffffffffffff83818316178352505050506040518363ffffffff1660e01b81526004016139849291906150cd565b600060405180830381600087803b15801561399e57600080fd5b505af11580156139b2573d6000803e3d6000fd5b505050506040513d6000823e3d601f19601f820116820180604052508101906139db919061498b565b50600260009054906101000a900473ffffffffffffffffffffffffffffffffffffffff1673ffffffffffffffffffffffffffffffffffffffff166339255d5b600360009054906101000a900473ffffffffffffffffffffffffffffffffffffffff166362fc305e60e01b8588600360009054906101000a900473ffffffffffffffffffffffffffffffffffffffff1673ffffffffffffffffffffffffffffffffffffffff1663e8e7e2d189306040518363ffffffff1660e01b8152600401613aa4929190615183565b60206040518083038186803b158015613abc57600080fd5b505afa158015613ad0573d6000803e3d6000fd5b505050506040513d601f19601f82011682018060405250810190613af49190614bc7565b600067ffffffffffffffff81118015613b0c57600080fd5b506040519080825280601f01601f191660200182016040528015613b3f5781602001600182028036833780820191505090505b50604051602401613b53949392919061522f565b604051602081830303815290604052907bffffffffffffffffffffffffffffffffffffffffffffffffffffffff19166020820180517bffffffffffffffffffffffffffffffffffffffffffffffffffffffff83818316178352505050506040518363ffffffff1660e01b8152600401613bcd9291906150cd565b600060405180830381600087803b158015613be757600080fd5b505af1158015613bfb573d6000803e3d6000fd5b505050506040513d6000823e3d601f19601f82011682018060405250810190613c24919061498b565b505b50505b505050565b60008083600101600084815260200190815260200160002054905060008114613d0a5760006001820390506000600186600001805490500390506000866000018281548110613c7957fe5b9060005260206000200154905080876000018481548110613c9657fe5b9060005260206000200181905550600183018760010160008381526020019081526020016000208190555086600001805480613cce57fe5b60019003818190600052602060002001600090559055866001016000878152602001908152602001600020600090556001945050505050613d10565b60009150505b92915050565b6000613d2283836140b9565b613d7b578260000182908060018154018082558091505060019003906000526020600020016000909190919091505582600001805490508360010160008481526020019081526020016000208190555060019050613d80565b600090505b92915050565b6000808460010160008581526020019081526020016000205490506000811415613e2d57846000016040518060400160405280868152602001858152509080600181540180825580915050600190039060005260206000209060020201600090919091909150600082015181600001556020820151816001015550508460000180549050856001016000868152602001908152602001600020819055506001915050613e5b565b82856000016001830381548110613e4057fe5b90600052602060002090600202016001018190555060009150505b9392505050565b60008060007fc5d2460186f7233c927e7db2dcc703c0e500b653ca82273b7bfad8045d85a47060001b9050833f9150808214158015613ea457506000801b8214155b92505050919050565b6060613ebc84846000856140dc565b90509392505050565b600073ffffffffffffffffffffffffffffffffffffffff168273ffffffffffffffffffffffffffffffffffffffff161415613f68576040517f08c379a00000000000000000000000000000000000000000000000000000000081526004018080602001828103825260208152602001807f4552433732313a206d696e7420746f20746865207a65726f206164647265737381525060200191505060405180910390fd5b613f7181611cff565b15613fe4576040517f08c379a000000000000000000000000000000000000000000000000000000000815260040180806020018281038252601c8152602001807f4552433732313a20746f6b656e20616c7265616479206d696e7465640000000081525060200191505060405180910390fd5b613ff06000838361302b565b61404181600560008573ffffffffffffffffffffffffffffffffffffffff1673ffffffffffffffffffffffffffffffffffffffff16815260200190815260200160002061308a90919063ffffffff16565b50614058818360066130a49092919063ffffffff16565b50808273ffffffffffffffffffffffffffffffffffffffff16600073ffffffffffffffffffffffffffffffffffffffff167fddf252ad1be2c89b69c2b068fc378daa952ba7f163c4a11628f55a4df523b3ef60405160405180910390a45050565b600080836001016000848152602001908152602001600020541415905092915050565b60606140e785613e62565b614159576040517f08c379a000000000000000000000000000000000000000000000000000000000815260040180806020018281038252601d8152602001807f416464726573733a2063616c6c20746f206e6f6e2d636f6e747261637400000081525060200191505060405180910390fd5b6000808673ffffffffffffffffffffffffffffffffffffffff1685876040518082805190602001908083835b602083106141a85780518252602082019150602081019050602083039250614185565b6001836020036101000a03801982511681845116808217855250505050505090500191505060006040518083038185875af1925050503d806000811461420a576040519150601f19603f3d011682016040523d82523d6000602084013e61420f565b606091505b509150915081156142245780925050506142d9565b6000815111156142375780518082602001fd5b836040517f08c379a00000000000000000000000000000000000000000000000000000000081526004018080602001828103825283818151815260200191508051906020019080838360005b8381101561429e578082015181840152602081019050614283565b50505050905090810190601f1680156142cb5780820380516001836020036101000a031916815260200191505b509250505060405180910390fd5b949350505050565b828054600181600116156101000203166002900490600052602060002090601f016020900481019282614317576000855561435e565b82601f1061433057805160ff191683800117855561435e565b8280016001018555821561435e579182015b8281111561435d578251825591602001919060010190614342565b5b50905061436b919061436f565b5090565b5b80821115614388576000816000905550600101614370565b5090565b600061439f61439a84615369565b615338565b9050828152602081018484840111156143b757600080fd5b6143c2848285615521565b509392505050565b60006143dd6143d884615369565b615338565b9050828152602081018484840111156143f557600080fd5b614400848285615530565b509392505050565b600061441b61441684615399565b615338565b90508281526020810184848401111561443357600080fd5b61443e848285615521565b509392505050565b60008135905061445581615576565b92915050565b60008151905061446a81615576565b92915050565b60008135905061447f8161558d565b92915050565b6000815190506144948161558d565b92915050565b6000813590506144a9816155a4565b92915050565b6000813590506144be816155bb565b92915050565b6000815190506144d3816155bb565b92915050565b60008083601f8401126144eb57600080fd5b8235905067ffffffffffffffff81111561450457600080fd5b60208301915083600182028301111561451c57600080fd5b9250929050565b600082601f83011261453457600080fd5b813561454484826020860161438c565b91505092915050565b600082601f83011261455e57600080fd5b815161456e8482602086016143ca565b91505092915050565b600081359050614586816155d2565b92915050565b60008151905061459b816155e9565b92915050565b6000813590506145b081615600565b92915050565b6000815190506145c581615600565b92915050565b600082601f8301126145dc57600080fd5b81356145ec848260208601614408565b91505092915050565b6000610140828403121561460857600080fd5b614613610140615338565b9050600061462384828501614729565b600083015250602061463784828501614729565b602083015250604061464b84828501614714565b604083015250606061465f8482850161445b565b6060830152506080614673848285016144c4565b60808301525060a082015167ffffffffffffffff81111561469357600080fd5b61469f8482850161454d565b60a08301525060c06146b384828501614714565b60c08301525060e06146c784828501614714565b60e0830152506101006146dc8482850161458c565b610100830152506101206146f28482850161445b565b6101208301525092915050565b60008135905061470e81615617565b92915050565b60008151905061472381615617565b92915050565b6000815190506147388161562e565b92915050565b60006020828403121561475057600080fd5b600061475e84828501614446565b91505092915050565b6000806040838503121561477a57600080fd5b600061478885828601614446565b925050602061479985828601614446565b9150509250929050565b6000806000606084860312156147b857600080fd5b60006147c686828701614446565b93505060206147d786828701614446565b92505060406147e8868287016146ff565b9150509250925092565b6000806000806080858703121561480857600080fd5b600061481687828801614446565b945050602061482787828801614446565b9350506040614838878288016146ff565b925050606085013567ffffffffffffffff81111561485557600080fd5b61486187828801614523565b91505092959194509250565b6000806040838503121561488057600080fd5b600061488e85828601614446565b925050602061489f85828601614470565b9150509250929050565b600080604083850312156148bc57600080fd5b60006148ca85828601614446565b925050602083013567ffffffffffffffff8111156148e757600080fd5b6148f3858286016145cb565b9150509250929050565b6000806040838503121561491057600080fd5b600061491e85828601614446565b925050602061492f858286016146ff565b9150509250929050565b60006020828403121561494b57600080fd5b600061495984828501614485565b91505092915050565b60006020828403121561497457600080fd5b6000614982848285016144af565b91505092915050565b60006020828403121561499d57600080fd5b600082015167ffffffffffffffff8111156149b757600080fd5b6149c38482850161454d565b91505092915050565b600080604083850312156149df57600080fd5b600083015167ffffffffffffffff8111156149f957600080fd5b614a058582860161454d565b925050602083015167ffffffffffffffff811115614a2257600080fd5b614a2e8582860161454d565b9150509250929050565b600080600080600080600060a0888a031215614a5357600080fd5b6000614a618a828b01614577565b9750506020614a728a828b01614446565b9650506040614a838a828b0161449a565b955050606088013567ffffffffffffffff811115614aa057600080fd5b614aac8a828b016144d9565b9450945050608088013567ffffffffffffffff811115614acb57600080fd5b614ad78a828b016144d9565b925092505092959891949750929550565b600080600080600080600080600060c08a8c031215614b0657600080fd5b6000614b148c828d01614577565b9950506020614b258c828d01614446565b9850506040614b368c828d0161449a565b97505060608a013567ffffffffffffffff811115614b5357600080fd5b614b5f8c828d016144d9565b965096505060808a013567ffffffffffffffff811115614b7e57600080fd5b614b8a8c828d016144d9565b945094505060a08a013567ffffffffffffffff811115614ba957600080fd5b614bb58c828d016144d9565b92509250509295985092959850929598565b600060208284031215614bd957600080fd5b6000614be7848285016145b6565b91505092915050565b600060208284031215614c0257600080fd5b600082015167ffffffffffffffff811115614c1c57600080fd5b614c28848285016145f5565b91505092915050565b600060208284031215614c4357600080fd5b6000614c51848285016146ff565b91505092915050565b600060208284031215614c6c57600080fd5b6000614c7a84828501614714565b91505092915050565b60008060408385031215614c9657600080fd5b6000614ca4858286016146ff565b9250506020614cb585828601614446565b9150509250929050565b600080600060608486031215614cd457600080fd5b6000614ce2868287016146ff565b9350506020614cf386828701614446565b9250506040614d04868287016145a1565b9150509250925092565b60008060008060808587031215614d2457600080fd5b6000614d3287828801614714565b9450506020614d43878288016145b6565b9350506040614d5487828801614714565b9250506060614d6587828801614714565b91505092959194509250565b614d7a81615401565b82525050565b614d8981615413565b82525050565b6000614d9b83856153df565b9350614da8838584615521565b614db183615565565b840190509392505050565b6000614dc7826153c9565b614dd181856153df565b9350614de1818560208601615530565b614dea81615565565b840191505092915050565b614dfe816154b5565b82525050565b614e0d816154d9565b82525050565b614e1c816154fd565b82525050565b614e2b81615471565b82525050565b6000614e3c826153d4565b614e4681856153f0565b9350614e56818560208601615530565b614e5f81615565565b840191505092915050565b6000614e776002836153df565b91507f30780000000000000000000000000000000000000000000000000000000000006000830152602082019050919050565b6000614eb7601c836153f0565b91507f4e6577207265636569766572206973207a65726f2061646472657373000000006000830152602082019050919050565b6000614ef76022836153f0565b91507f4e65772072656365697665722063616e206e6f7420626520612073757065724160008301527f70700000000000000000000000000000000000000000000000000000000000006020830152604082019050919050565b6000614f5d6030836153f0565b91507f4f6e6c79207468652063726561746f72206f6620746865204e465420636f756c60008301527f642073746f702074686520666c6f7720000000000000000000000000000000006020830152604082019050919050565b6000614fc36042836153f0565b91507f466c6f7720636f756c642062652063726561746564206f6e6c7920616674657260008301527f20746865204e465420697320626f7567687420627920736f6d656f6e6520656c60208301527f73650000000000000000000000000000000000000000000000000000000000006040830152606082019050919050565b61504b8161549e565b82525050565b60006020820190506150666000830184614d71565b92915050565b60006020820190506150816000830184614d80565b92915050565b600060208201905081810360008301526150a2818486614d8f565b90509392505050565b600060208201905081810360008301526150c58184614dbc565b905092915050565b60006060820190506150e26000830185614df5565b81810360208301526150f48184614dbc565b9050818103604083015261510781614e6a565b90509392505050565b60006080820190506151256000830186614df5565b81810360208301526151378185614dbc565b9050818103604083015261514a81614e6a565b9050818103606083015261515e8184614dbc565b9050949350505050565b600060208201905061517d6000830184614e04565b92915050565b60006040820190506151986000830185614e13565b6151a56020830184614d71565b9392505050565b60006060820190506151c16000830186614e13565b6151ce6020830185614d71565b6151db6040830184614d71565b949350505050565b60006080820190506151f86000830187614e13565b6152056020830186614d71565b6152126040830185614d71565b81810360608301526152248184614dbc565b905095945050505050565b60006080820190506152446000830187614e13565b6152516020830186614d71565b61525e6040830185614e22565b81810360608301526152708184614dbc565b905095945050505050565b600060208201905081810360008301526152958184614e31565b905092915050565b600060208201905081810360008301526152b681614eaa565b9050919050565b600060208201905081810360008301526152d681614eea565b9050919050565b600060208201905081810360008301526152f681614f50565b9050919050565b6000602082019050818103600083015261531681614fb6565b9050919050565b60006020820190506153326000830184615042565b92915050565b6000604051905081810181811067ffffffffffffffff8211171561535f5761535e615563565b5b8060405250919050565b600067ffffffffffffffff82111561538457615383615563565b5b601f19601f8301169050602081019050919050565b600067ffffffffffffffff8211156153b4576153b3615563565b5b601f19601f8301169050602081019050919050565b600081519050919050565b600081519050919050565b600082825260208201905092915050565b600082825260208201905092915050565b600061540c8261547e565b9050919050565b60008115159050919050565b6000819050919050565b60007fffffffff0000000000000000000000000000000000000000000000000000000082169050919050565b600061546082615401565b9050919050565b6000819050919050565b600081600b0b9050919050565b600073ffffffffffffffffffffffffffffffffffffffff82169050919050565b6000819050919050565b600060ff82169050919050565b60006154c0826154c7565b9050919050565b60006154d28261547e565b9050919050565b60006154e4826154eb565b9050919050565b60006154f68261547e565b9050919050565b60006155088261550f565b9050919050565b600061551a8261547e565b9050919050565b82818337600083830152505050565b60005b8381101561554e578082015181840152602081019050615533565b8381111561555d576000848401525b50505050565bfe5b6000601f19601f8301169050919050565b61557f81615401565b811461558a57600080fd5b50565b61559681615413565b81146155a157600080fd5b50565b6155ad8161541f565b81146155b857600080fd5b50565b6155c481615429565b81146155cf57600080fd5b50565b6155db81615455565b81146155e657600080fd5b50565b6155f281615467565b81146155fd57600080fd5b50565b61560981615471565b811461561457600080fd5b50565b6156208161549e565b811461562b57600080fd5b50565b615637816154a8565b811461564257600080fd5b5056fe456e756d657261626c655365743a20696e646578206f7574206f6620626f756e64734552433732313a207472616e7366657220746f206e6f6e20455243373231526563656976657220696d706c656d656e7465724f776e61626c653a206e6577206f776e657220697320746865207a65726f2061646472657373556e737570706f727465642063616c6c6261636b202d20204265666f72652041677265656d656e74205465726d696e617465644552433732313a207472616e7366657220746f20746865207a65726f20616464726573734552433732313a206f70657261746f7220717565727920666f72206e6f6e6578697374656e7420746f6b656e4552433732313a20617070726f76652063616c6c6572206973206e6f74206f776e6572206e6f7220617070726f76656420666f7220616c6c4552433732313a2062616c616e636520717565727920666f7220746865207a65726f20616464726573734552433732313a206f776e657220717565727920666f72206e6f6e6578697374656e7420746f6b656e456e756d657261626c654d61703a20696e646578206f7574206f6620626f756e64734552433732313a20617070726f76656420717565727920666f72206e6f6e6578697374656e7420746f6b656e4552433732314d657461646174613a2055524920736574206f66206e6f6e6578697374656e7420746f6b656e4552433732313a207472616e73666572206f6620746f6b656e2074686174206973206e6f74206f776e4552433732314d657461646174613a2055524920717565727920666f72206e6f6e6578697374656e7420746f6b656e4552433732313a20617070726f76616c20746f2063757272656e74206f776e6572556e737570706f727465642063616c6c6261636b202d204265666f72652041677265656d656e7420757064617465644552433732313a207472616e736665722063616c6c6572206973206e6f74206f776e6572206e6f7220617070726f766564556e737570706f727465642063616c6c6261636b202d204265666f72652041677265656d656e742043726561746564a2646970667358221220830a0f2959373c3834e51fe075680b80ea3874656d1703350ce24d04020b3c5b64736f6c63430007060033",
  "immutableReferences": {},
  "source": "// SPDX-License-Identifier: MIT\npragma solidity ^0.7.0;\npragma abicoder v2;\n\nimport \"@openzeppelin/contracts/token/ERC721/ERC721.sol\";\nimport \"@openzeppelin/contracts/access/Ownable.sol\";\nimport \"@openzeppelin/contracts/utils/Counters.sol\";\nimport \"./ManageFlows.sol\";\n\n//How do we add a flow before it is transferred to someone or the flow starts as soon as it is transferred to someone\ncontract SocialStreamableNFT is ManageFlows,ERC721, Ownable {\n    using Counters for Counters.Counter;\n    mapping (uint256=>address) _nftCreator;\n    mapping (uint256=>address) _nftToken;\n\n    Counters.Counter private _tokenIdCounter;\n\n    constructor(ISuperfluid host,\n        IConstantFlowAgreementV1 cfa) ERC721(\"SocialStreamableNFT\", \"SSSNFT\") ManageFlows(host,cfa) {\n        }\n\n    function safeMint(address to,string memory tokenURI) public {\n        _safeMint(to, _tokenIdCounter.current());\n        _setTokenURI(_tokenIdCounter.current(), tokenURI);\n        _nftCreator[_tokenIdCounter.current()] = msg.sender;\n        _tokenIdCounter.increment();\n    }\n\n    function _burn(uint256 tokenId) internal override(ERC721) {\n        super._burn(tokenId);\n    }\n\n    function createFlow(uint256 tokenId,address token,int96 flowRate) external {\n        require(ownerOf(tokenId)!=msg.sender,\"Flow could be created only after the NFT is bought by someone else\");\n        CreateFlow(token, ownerOf(tokenId), flowRate);\n    }\n\n    function stopFlow(uint256 tokenId,address token) external {\n        require(_nftCreator[tokenId]==msg.sender,\"Only the creator of the NFT could stop the flow \");\n        StopFlow(token, msg.sender, ownerOf(tokenId));\n    }\n\n    function _beforeTokenTransfer(\n        address from,\n        address to,\n        uint256 tokenId\n    ) internal override {\n        //Figure out how to detect when this is called during minting\n        if(from!=address(0))\n        _changeReceiver(from,to,tokenId);\n    }\n\n    function _updateOutflow(bytes calldata ctx,ISuperToken _acceptedToken)\n        private\n        returns (bytes memory newCtx)\n    {\n      newCtx = ctx;\n      //(std.itemsOrdered,std.units) = abi.decode(_host.decodeCtx(ctx).userData, (uint[3], uint[3]));\n      uint256 tokId = abi.decode(_host.decodeCtx(ctx).userData, (uint256));//Solidity\n      address _receiver = ownerOf(tokId);//TODO: How to make this generalized? Will have to decode the context data to get the tokenID\n      _nftToken[tokId] = address(_acceptedToken);\n      // @dev This will give me the new flowRate, as it is called in after callbacks\n      int96 netFlowRate = _cfa.getNetFlow(_acceptedToken, address(this));\n      (,int96 outFlowRate,,) = _cfa.getFlow(_acceptedToken, address(this), _receiver); // CHECK: unclear what happens if flow doesn't exist.\n      int96 inFlowRate = netFlowRate + outFlowRate;\n\n      // @dev If inFlowRate === 0, then delete existing flow.\n      if (inFlowRate == int96(0)) {\n        // @dev if inFlowRate is zero, delete outflow.\n          (newCtx, ) = _host.callAgreementWithContext(\n              _cfa,\n              abi.encodeWithSelector(\n                  _cfa.deleteFlow.selector,\n                  _acceptedToken,\n                  address(this),\n                  _receiver,\n                  new bytes(0) // placeholder\n              ),\n              \"0x\",\n              newCtx\n          );\n        } else if (outFlowRate != int96(0)){\n        (newCtx, ) = _host.callAgreementWithContext(\n            _cfa,\n            abi.encodeWithSelector(\n                _cfa.updateFlow.selector,\n                _acceptedToken,\n                _receiver,\n                inFlowRate,\n                new bytes(0) // placeholder\n            ),\n            \"0x\",\n            newCtx\n        );\n      } else {\n      // @dev If there is no existing outflow, then create new flow to equal inflow\n          (newCtx, ) = _host.callAgreementWithContext(\n              _cfa,\n              abi.encodeWithSelector(\n                  _cfa.createFlow.selector,\n                  _acceptedToken,\n                  _receiver,\n                  inFlowRate,\n                  new bytes(0) // placeholder\n              ),\n              \"0x\",\n              newCtx\n          );\n      }\n    }\n\n    // @dev Change the Receiver of the total flow\n    function _changeReceiver( address from,\n        address newReceiver,\n        uint256 tokenId ) internal {\n        require(newReceiver != address(0), \"New receiver is zero address\");\n        // @dev because our app is registered as final, we can't take downstream apps\n        require(!_host.isApp(ISuperApp(newReceiver)), \"New receiver can not be a superApp\");\n        if (newReceiver == ownerOf(tokenId)) return ;\n        // @dev delete flow to old receiver\n        ISuperToken _acceptedToken = ISuperToken(_nftToken[tokenId]);\n        (,int96 outFlowRate,,) = _cfa.getFlow(_acceptedToken, address(this), from); //CHECK: unclear what happens if flow doesn't exist.\n        if(outFlowRate > 0){\n          _host.callAgreement(\n              _cfa,\n              abi.encodeWithSelector(\n                  _cfa.deleteFlow.selector,\n                  _acceptedToken,\n                  address(this),\n                  from,\n                  new bytes(0)\n              ),\n              \"0x\"\n          );\n          // @dev create flow to new receiver\n          _host.callAgreement(\n              _cfa,\n              abi.encodeWithSelector(\n                  _cfa.createFlow.selector,\n                  _acceptedToken,\n                  newReceiver,\n                  _cfa.getNetFlow(_acceptedToken, address(this)),\n                  new bytes(0)\n              ),\n              \"0x\"\n          );\n        }\n        // @dev set global receiver to new receiver\n        \n\n        // emit ReceiverChanged(_receiver);\n    }\n\n    /**************************************************************************\n     * Superapp Callbacks\n     *************************************************************************/\n\n    // function beforeAgreementCreated(\n    //     ISuperToken superToken,\n    //     address agreementClass,\n    //     bytes32 agreementId,\n    //     bytes calldata agreementData,\n    //     bytes calldata ctx\n    // )\n    //     external\n    //     view\n    //     returns (bytes memory cbdata){\n\n    // }\n    \n    function afterAgreementCreated(\n        ISuperToken superToken,\n        address agreementClass,\n        bytes32 agreementId,\n        bytes calldata agreementData,\n        bytes calldata cbdata,\n        bytes calldata ctx\n    )\n    external override\n    returns (bytes memory newCtx){\n        return _updateOutflow(ctx,superToken);\n    }\n    \n    function afterAgreementUpdated(\n        ISuperToken superToken,\n        address agreementClass,\n        bytes32 agreementId,\n        bytes calldata agreementData,\n        bytes calldata cbdata,\n        bytes calldata ctx\n    )\n        external override\n        returns (bytes memory newCtx){\n            return _updateOutflow(ctx,superToken);\n            // return newCtx;\n        }\n    \n    function afterAgreementTerminated(\n        ISuperToken superToken,\n        address agreementClass,\n        bytes32 agreementId,\n        bytes calldata agreementData,\n        bytes calldata cbdata,\n        bytes calldata ctx\n    )\n        external override\n        returns (bytes memory newCtx){\n            newCtx=ctx;\n            return newCtx;\n        }\n}\n",
  "sourcePath": "/Users/praffulsahu/Documents/Crypto/StreamSocialToken/contracts/SocialStreamableNFT.sol",
  "compiler": {
    "name": "solc",
    "version": "0.7.6+commit.7338295f.Emscripten.clang"
  },
  "schemaVersion": "3.3.3",
  "updatedAt": "2021-07-15T17:53:47.268Z",
  "networkType": "ethereum",
  "devdoc": {
    "kind": "dev",
    "methods": {
      "approve(address,uint256)": {
        "details": "See {IERC721-approve}."
      },
      "balanceOf(address)": {
        "details": "See {IERC721-balanceOf}."
      },
      "baseURI()": {
        "details": "Returns the base URI set via {_setBaseURI}. This will be automatically added as a prefix in {tokenURI} to each token's URI, or to the token ID if no specific URI is set for that token ID."
      },
      "getApproved(uint256)": {
        "details": "See {IERC721-getApproved}."
      },
      "isApprovedForAll(address,address)": {
        "details": "See {IERC721-isApprovedForAll}."
      },
      "name()": {
        "details": "See {IERC721Metadata-name}."
      },
      "owner()": {
        "details": "Returns the address of the current owner."
      },
      "ownerOf(uint256)": {
        "details": "See {IERC721-ownerOf}."
      },
      "renounceOwnership()": {
        "details": "Leaves the contract without owner. It will not be possible to call `onlyOwner` functions anymore. Can only be called by the current owner. NOTE: Renouncing ownership will leave the contract without an owner, thereby removing any functionality that is only available to the owner."
      },
      "safeTransferFrom(address,address,uint256)": {
        "details": "See {IERC721-safeTransferFrom}."
      },
      "safeTransferFrom(address,address,uint256,bytes)": {
        "details": "See {IERC721-safeTransferFrom}."
      },
      "setApprovalForAll(address,bool)": {
        "details": "See {IERC721-setApprovalForAll}."
      },
      "supportsInterface(bytes4)": {
        "details": "See {IERC165-supportsInterface}. Time complexity O(1), guaranteed to always use less than 30 000 gas."
      },
      "symbol()": {
        "details": "See {IERC721Metadata-symbol}."
      },
      "tokenByIndex(uint256)": {
        "details": "See {IERC721Enumerable-tokenByIndex}."
      },
      "tokenOfOwnerByIndex(address,uint256)": {
        "details": "See {IERC721Enumerable-tokenOfOwnerByIndex}."
      },
      "tokenURI(uint256)": {
        "details": "See {IERC721Metadata-tokenURI}."
      },
      "totalSupply()": {
        "details": "See {IERC721Enumerable-totalSupply}."
      },
      "transferFrom(address,address,uint256)": {
        "details": "See {IERC721-transferFrom}."
      },
      "transferOwnership(address)": {
        "details": "Transfers ownership of the contract to a new account (`newOwner`). Can only be called by the current owner."
      }
    },
    "version": 1
  },
  "userdoc": {
    "kind": "user",
    "methods": {},
    "version": 1
  }
}