{
  "contractName": "SocialStreamableNFT",
  "abi": [
    {
      "inputs": [
        {
          "internalType": "contract ISuperfluid",
          "name": "host",
          "type": "address"
        },
        {
          "internalType": "contract IConstantFlowAgreementV1",
          "name": "cfa",
          "type": "address"
        }
      ],
      "stateMutability": "nonpayable",
      "type": "constructor"
    },
    {
      "anonymous": false,
      "inputs": [
        {
          "indexed": true,
          "internalType": "address",
          "name": "owner",
          "type": "address"
        },
        {
          "indexed": true,
          "internalType": "address",
          "name": "approved",
          "type": "address"
        },
        {
          "indexed": true,
          "internalType": "uint256",
          "name": "tokenId",
          "type": "uint256"
        }
      ],
      "name": "Approval",
      "type": "event"
    },
    {
      "anonymous": false,
      "inputs": [
        {
          "indexed": true,
          "internalType": "address",
          "name": "owner",
          "type": "address"
        },
        {
          "indexed": true,
          "internalType": "address",
          "name": "operator",
          "type": "address"
        },
        {
          "indexed": false,
          "internalType": "bool",
          "name": "approved",
          "type": "bool"
        }
      ],
      "name": "ApprovalForAll",
      "type": "event"
    },
    {
      "anonymous": false,
      "inputs": [
        {
          "indexed": true,
          "internalType": "address",
          "name": "previousOwner",
          "type": "address"
        },
        {
          "indexed": true,
          "internalType": "address",
          "name": "newOwner",
          "type": "address"
        }
      ],
      "name": "OwnershipTransferred",
      "type": "event"
    },
    {
      "anonymous": false,
      "inputs": [
        {
          "indexed": true,
          "internalType": "address",
          "name": "from",
          "type": "address"
        },
        {
          "indexed": true,
          "internalType": "address",
          "name": "to",
          "type": "address"
        },
        {
          "indexed": true,
          "internalType": "uint256",
          "name": "tokenId",
          "type": "uint256"
        }
      ],
      "name": "Transfer",
      "type": "event"
    },
    {
      "inputs": [
        {
          "internalType": "address",
          "name": "_acceptedToken",
          "type": "address"
        },
        {
          "internalType": "address",
          "name": "sender",
          "type": "address"
        },
        {
          "internalType": "address",
          "name": "receiver",
          "type": "address"
        }
      ],
      "name": "StopFlow",
      "outputs": [],
      "stateMutability": "nonpayable",
      "type": "function"
    },
    {
      "inputs": [
        {
          "internalType": "contract ISuperToken",
          "name": "",
          "type": "address"
        },
        {
          "internalType": "address",
          "name": "",
          "type": "address"
        },
        {
          "internalType": "bytes32",
          "name": "",
          "type": "bytes32"
        },
        {
          "internalType": "bytes",
          "name": "",
          "type": "bytes"
        },
        {
          "internalType": "bytes",
          "name": "",
          "type": "bytes"
        },
        {
          "internalType": "bytes",
          "name": "",
          "type": "bytes"
        }
      ],
      "name": "afterAgreementCreated",
      "outputs": [
        {
          "internalType": "bytes",
          "name": "",
          "type": "bytes"
        }
      ],
      "stateMutability": "nonpayable",
      "type": "function"
    },
    {
      "inputs": [
        {
          "internalType": "contract ISuperToken",
          "name": "",
          "type": "address"
        },
        {
          "internalType": "address",
          "name": "",
          "type": "address"
        },
        {
          "internalType": "bytes32",
          "name": "",
          "type": "bytes32"
        },
        {
          "internalType": "bytes",
          "name": "",
          "type": "bytes"
        },
        {
          "internalType": "bytes",
          "name": "",
          "type": "bytes"
        },
        {
          "internalType": "bytes",
          "name": "",
          "type": "bytes"
        }
      ],
      "name": "afterAgreementTerminated",
      "outputs": [
        {
          "internalType": "bytes",
          "name": "",
          "type": "bytes"
        }
      ],
      "stateMutability": "nonpayable",
      "type": "function"
    },
    {
      "inputs": [
        {
          "internalType": "contract ISuperToken",
          "name": "",
          "type": "address"
        },
        {
          "internalType": "address",
          "name": "",
          "type": "address"
        },
        {
          "internalType": "bytes32",
          "name": "",
          "type": "bytes32"
        },
        {
          "internalType": "bytes",
          "name": "",
          "type": "bytes"
        },
        {
          "internalType": "bytes",
          "name": "",
          "type": "bytes"
        },
        {
          "internalType": "bytes",
          "name": "",
          "type": "bytes"
        }
      ],
      "name": "afterAgreementUpdated",
      "outputs": [
        {
          "internalType": "bytes",
          "name": "",
          "type": "bytes"
        }
      ],
      "stateMutability": "nonpayable",
      "type": "function"
    },
    {
      "inputs": [
        {
          "internalType": "address",
          "name": "to",
          "type": "address"
        },
        {
          "internalType": "uint256",
          "name": "tokenId",
          "type": "uint256"
        }
      ],
      "name": "approve",
      "outputs": [],
      "stateMutability": "nonpayable",
      "type": "function"
    },
    {
      "inputs": [
        {
          "internalType": "address",
          "name": "owner",
          "type": "address"
        }
      ],
      "name": "balanceOf",
      "outputs": [
        {
          "internalType": "uint256",
          "name": "",
          "type": "uint256"
        }
      ],
      "stateMutability": "view",
      "type": "function",
      "constant": true
    },
    {
      "inputs": [],
      "name": "baseURI",
      "outputs": [
        {
          "internalType": "string",
          "name": "",
          "type": "string"
        }
      ],
      "stateMutability": "view",
      "type": "function",
      "constant": true
    },
    {
      "inputs": [
        {
          "internalType": "contract ISuperToken",
          "name": "",
          "type": "address"
        },
        {
          "internalType": "address",
          "name": "",
          "type": "address"
        },
        {
          "internalType": "bytes32",
          "name": "",
          "type": "bytes32"
        },
        {
          "internalType": "bytes",
          "name": "",
          "type": "bytes"
        },
        {
          "internalType": "bytes",
          "name": "",
          "type": "bytes"
        }
      ],
      "name": "beforeAgreementCreated",
      "outputs": [
        {
          "internalType": "bytes",
          "name": "",
          "type": "bytes"
        }
      ],
      "stateMutability": "view",
      "type": "function",
      "constant": true
    },
    {
      "inputs": [
        {
          "internalType": "contract ISuperToken",
          "name": "",
          "type": "address"
        },
        {
          "internalType": "address",
          "name": "",
          "type": "address"
        },
        {
          "internalType": "bytes32",
          "name": "",
          "type": "bytes32"
        },
        {
          "internalType": "bytes",
          "name": "",
          "type": "bytes"
        },
        {
          "internalType": "bytes",
          "name": "",
          "type": "bytes"
        }
      ],
      "name": "beforeAgreementTerminated",
      "outputs": [
        {
          "internalType": "bytes",
          "name": "",
          "type": "bytes"
        }
      ],
      "stateMutability": "view",
      "type": "function",
      "constant": true
    },
    {
      "inputs": [
        {
          "internalType": "contract ISuperToken",
          "name": "",
          "type": "address"
        },
        {
          "internalType": "address",
          "name": "",
          "type": "address"
        },
        {
          "internalType": "bytes32",
          "name": "",
          "type": "bytes32"
        },
        {
          "internalType": "bytes",
          "name": "",
          "type": "bytes"
        },
        {
          "internalType": "bytes",
          "name": "",
          "type": "bytes"
        }
      ],
      "name": "beforeAgreementUpdated",
      "outputs": [
        {
          "internalType": "bytes",
          "name": "",
          "type": "bytes"
        }
      ],
      "stateMutability": "view",
      "type": "function",
      "constant": true
    },
    {
      "inputs": [
        {
          "internalType": "uint256",
          "name": "tokenId",
          "type": "uint256"
        }
      ],
      "name": "getApproved",
      "outputs": [
        {
          "internalType": "address",
          "name": "",
          "type": "address"
        }
      ],
      "stateMutability": "view",
      "type": "function",
      "constant": true
    },
    {
      "inputs": [
        {
          "internalType": "address",
          "name": "owner",
          "type": "address"
        },
        {
          "internalType": "address",
          "name": "operator",
          "type": "address"
        }
      ],
      "name": "isApprovedForAll",
      "outputs": [
        {
          "internalType": "bool",
          "name": "",
          "type": "bool"
        }
      ],
      "stateMutability": "view",
      "type": "function",
      "constant": true
    },
    {
      "inputs": [],
      "name": "name",
      "outputs": [
        {
          "internalType": "string",
          "name": "",
          "type": "string"
        }
      ],
      "stateMutability": "view",
      "type": "function",
      "constant": true
    },
    {
      "inputs": [],
      "name": "owner",
      "outputs": [
        {
          "internalType": "address",
          "name": "",
          "type": "address"
        }
      ],
      "stateMutability": "view",
      "type": "function",
      "constant": true
    },
    {
      "inputs": [
        {
          "internalType": "uint256",
          "name": "tokenId",
          "type": "uint256"
        }
      ],
      "name": "ownerOf",
      "outputs": [
        {
          "internalType": "address",
          "name": "",
          "type": "address"
        }
      ],
      "stateMutability": "view",
      "type": "function",
      "constant": true
    },
    {
      "inputs": [],
      "name": "renounceOwnership",
      "outputs": [],
      "stateMutability": "nonpayable",
      "type": "function"
    },
    {
      "inputs": [
        {
          "internalType": "address",
          "name": "from",
          "type": "address"
        },
        {
          "internalType": "address",
          "name": "to",
          "type": "address"
        },
        {
          "internalType": "uint256",
          "name": "tokenId",
          "type": "uint256"
        }
      ],
      "name": "safeTransferFrom",
      "outputs": [],
      "stateMutability": "nonpayable",
      "type": "function"
    },
    {
      "inputs": [
        {
          "internalType": "address",
          "name": "from",
          "type": "address"
        },
        {
          "internalType": "address",
          "name": "to",
          "type": "address"
        },
        {
          "internalType": "uint256",
          "name": "tokenId",
          "type": "uint256"
        },
        {
          "internalType": "bytes",
          "name": "_data",
          "type": "bytes"
        }
      ],
      "name": "safeTransferFrom",
      "outputs": [],
      "stateMutability": "nonpayable",
      "type": "function"
    },
    {
      "inputs": [
        {
          "internalType": "address",
          "name": "operator",
          "type": "address"
        },
        {
          "internalType": "bool",
          "name": "approved",
          "type": "bool"
        }
      ],
      "name": "setApprovalForAll",
      "outputs": [],
      "stateMutability": "nonpayable",
      "type": "function"
    },
    {
      "inputs": [
        {
          "internalType": "bytes4",
          "name": "interfaceId",
          "type": "bytes4"
        }
      ],
      "name": "supportsInterface",
      "outputs": [
        {
          "internalType": "bool",
          "name": "",
          "type": "bool"
        }
      ],
      "stateMutability": "view",
      "type": "function",
      "constant": true
    },
    {
      "inputs": [],
      "name": "symbol",
      "outputs": [
        {
          "internalType": "string",
          "name": "",
          "type": "string"
        }
      ],
      "stateMutability": "view",
      "type": "function",
      "constant": true
    },
    {
      "inputs": [
        {
          "internalType": "uint256",
          "name": "index",
          "type": "uint256"
        }
      ],
      "name": "tokenByIndex",
      "outputs": [
        {
          "internalType": "uint256",
          "name": "",
          "type": "uint256"
        }
      ],
      "stateMutability": "view",
      "type": "function",
      "constant": true
    },
    {
      "inputs": [
        {
          "internalType": "address",
          "name": "owner",
          "type": "address"
        },
        {
          "internalType": "uint256",
          "name": "index",
          "type": "uint256"
        }
      ],
      "name": "tokenOfOwnerByIndex",
      "outputs": [
        {
          "internalType": "uint256",
          "name": "",
          "type": "uint256"
        }
      ],
      "stateMutability": "view",
      "type": "function",
      "constant": true
    },
    {
      "inputs": [
        {
          "internalType": "uint256",
          "name": "tokenId",
          "type": "uint256"
        }
      ],
      "name": "tokenURI",
      "outputs": [
        {
          "internalType": "string",
          "name": "",
          "type": "string"
        }
      ],
      "stateMutability": "view",
      "type": "function",
      "constant": true
    },
    {
      "inputs": [],
      "name": "totalSupply",
      "outputs": [
        {
          "internalType": "uint256",
          "name": "",
          "type": "uint256"
        }
      ],
      "stateMutability": "view",
      "type": "function",
      "constant": true
    },
    {
      "inputs": [
        {
          "internalType": "address",
          "name": "from",
          "type": "address"
        },
        {
          "internalType": "address",
          "name": "to",
          "type": "address"
        },
        {
          "internalType": "uint256",
          "name": "tokenId",
          "type": "uint256"
        }
      ],
      "name": "transferFrom",
      "outputs": [],
      "stateMutability": "nonpayable",
      "type": "function"
    },
    {
      "inputs": [
        {
          "internalType": "address",
          "name": "newOwner",
          "type": "address"
        }
      ],
      "name": "transferOwnership",
      "outputs": [],
      "stateMutability": "nonpayable",
      "type": "function"
    },
    {
      "inputs": [
        {
          "internalType": "address",
          "name": "to",
          "type": "address"
        },
        {
          "internalType": "string",
          "name": "tokenURI",
          "type": "string"
        }
      ],
      "name": "safeMint",
      "outputs": [],
      "stateMutability": "nonpayable",
      "type": "function"
    },
    {
      "inputs": [
        {
          "internalType": "uint256",
          "name": "tokenId",
          "type": "uint256"
        },
        {
          "internalType": "address",
          "name": "token",
          "type": "address"
        },
        {
          "internalType": "int96",
          "name": "flowRate",
          "type": "int96"
        }
      ],
      "name": "createFlow",
      "outputs": [],
      "stateMutability": "nonpayable",
      "type": "function"
    }
  ],
  "bytecode": "0x60806040523480156200001157600080fd5b5060405162004ecc38038062004ecc833981810160405260408110156200003757600080fd5b8101908080519060200190929190805190602001909291905050506040518060400160405280601381526020017f536f6369616c53747265616d61626c654e4654000000000000000000000000008152506040518060400160405280600681526020017f5353534e465400000000000000000000000000000000000000000000000000008152508383600073ffffffffffffffffffffffffffffffffffffffff168273ffffffffffffffffffffffffffffffffffffffff16141562000164576040517f08c379a00000000000000000000000000000000000000000000000000000000081526004018080602001828103825260148152602001807f686f7374206973207a65726f206164647265737300000000000000000000000081525060200191505060405180910390fd5b600073ffffffffffffffffffffffffffffffffffffffff168173ffffffffffffffffffffffffffffffffffffffff16141562000208576040517f08c379a00000000000000000000000000000000000000000000000000000000081526004018080602001828103825260138152602001807f636661206973207a65726f20616464726573730000000000000000000000000081525060200191505060405180910390fd5b81600260006101000a81548173ffffffffffffffffffffffffffffffffffffffff021916908373ffffffffffffffffffffffffffffffffffffffff16021790555080600360006101000a81548173ffffffffffffffffffffffffffffffffffffffff021916908373ffffffffffffffffffffffffffffffffffffffff160217905550600064100000000064040000000064010000000060011717179050600260009054906101000a900473ffffffffffffffffffffffffffffffffffffffff1673ffffffffffffffffffffffffffffffffffffffff1663ad3915c8826040518263ffffffff1660e01b815260040180828152602001915050600060405180830381600087803b1580156200031b57600080fd5b505af115801562000330573d6000803e3d6000fd5b505050505050506200034f6301ffc9a760e01b6200050660201b60201c565b81600a90805190602001906200036792919062000618565b5080600b90805190602001906200038092919062000618565b50620003996380ac58cd60e01b6200050660201b60201c565b620003b1635b5e139f60e01b6200050660201b60201c565b620003c963780e9d6360e01b6200050660201b60201c565b50506000620003dd6200061060201b60201c565b905080600e60006101000a81548173ffffffffffffffffffffffffffffffffffffffff021916908373ffffffffffffffffffffffffffffffffffffffff1602179055508073ffffffffffffffffffffffffffffffffffffffff16600073ffffffffffffffffffffffffffffffffffffffff167f8be0079c531659141344cd1fd0a4f28419497f9722a3daafe3b4186f6b6457e060405160405180910390a35081601060006101000a81548173ffffffffffffffffffffffffffffffffffffffff021916908373ffffffffffffffffffffffffffffffffffffffff16021790555080601160006101000a81548173ffffffffffffffffffffffffffffffffffffffff021916908373ffffffffffffffffffffffffffffffffffffffff1602179055505050620006ce565b63ffffffff60e01b817bffffffffffffffffffffffffffffffffffffffffffffffffffffffff19161415620005a3576040517f08c379a000000000000000000000000000000000000000000000000000000000815260040180806020018281038252601c8152602001807f4552433136353a20696e76616c696420696e746572666163652069640000000081525060200191505060405180910390fd5b600160046000837bffffffffffffffffffffffffffffffffffffffffffffffffffffffff19167bffffffffffffffffffffffffffffffffffffffffffffffffffffffff1916815260200190815260200160002060006101000a81548160ff02191690831515021790555050565b600033905090565b828054600181600116156101000203166002900490600052602060002090601f0160209004810192826200065057600085556200069c565b82601f106200066b57805160ff19168380011785556200069c565b828001600101855582156200069c579182015b828111156200069b5782518255916020019190600101906200067e565b5b509050620006ab9190620006af565b5090565b5b80821115620006ca576000816000905550600101620006b0565b5090565b6147ee80620006de6000396000f3fe608060405234801561001057600080fd5b50600436106101cf5760003560e01c80636352211e11610104578063a22cb465116100a2578063d86ed3e511610071578063d86ed3e5146112a3578063e985e9c514611489578063f2fde38b14611503578063f3fbf93814611547576101cf565b8063a22cb46514610fcc578063b88d4fde1461101c578063c87b56dd14611121578063d204c45e146111c8576101cf565b8063715018a6116100de578063715018a614610d7a578063884d1f4014610d845780638da5cb5b14610f1557806395d89b4114610f49576101cf565b80636352211e14610c475780636c0360eb14610c9f57806370a0823114610d22576101cf565b806323b872dd1161017157806342842e0e1161014b57806342842e0e146108205780634f6ccce71461088e57806353c11f99146108d05780635f9e7d7714610ab6576101cf565b806323b872dd146105bf5780632f745c591461062d57806330d9c9151461068f576101cf565b8063081812fc116101ad578063081812fc14610315578063095ea7b31461036d57806318160ddd146103bb578063230dbd29146103d9576101cf565b806301ffc9a7146101d45780630637de251461023757806306fdde0314610292575b600080fd5b61021f600480360360208110156101ea57600080fd5b8101908080357bffffffffffffffffffffffffffffffffffffffffffffffffffffffff191690602001909291905050506115cb565b60405180821515815260200191505060405180910390f35b6102906004803603606081101561024d57600080fd5b8101908080359060200190929190803573ffffffffffffffffffffffffffffffffffffffff1690602001909291908035600b0b9060200190929190505050611633565b005b61029a611a8c565b6040518080602001828103825283818151815260200191508051906020019080838360005b838110156102da5780820151818401526020810190506102bf565b50505050905090810190601f1680156103075780820380516001836020036101000a031916815260200191505b509250505060405180910390f35b6103416004803603602081101561032b57600080fd5b8101908080359060200190929190505050611b2e565b604051808273ffffffffffffffffffffffffffffffffffffffff16815260200191505060405180910390f35b6103b96004803603604081101561038357600080fd5b81019080803573ffffffffffffffffffffffffffffffffffffffff16906020019092919080359060200190929190505050611bc9565b005b6103c3611d0d565b6040518082815260200191505060405180910390f35b610544600480360360c08110156103ef57600080fd5b81019080803573ffffffffffffffffffffffffffffffffffffffff169060200190929190803573ffffffffffffffffffffffffffffffffffffffff169060200190929190803590602001909291908035906020019064010000000081111561045657600080fd5b82018360208201111561046857600080fd5b8035906020019184600183028401116401000000008311171561048a57600080fd5b9091929391929390803590602001906401000000008111156104ab57600080fd5b8201836020820111156104bd57600080fd5b803590602001918460018302840111640100000000831117156104df57600080fd5b90919293919293908035906020019064010000000081111561050057600080fd5b82018360208201111561051257600080fd5b8035906020019184600183028401116401000000008311171561053457600080fd5b9091929391929390505050611d1e565b6040518080602001828103825283818151815260200191508051906020019080838360005b83811015610584578082015181840152602081019050610569565b50505050905090810190601f1680156105b15780820380516001836020036101000a031916815260200191505b509250505060405180910390f35b61062b600480360360608110156105d557600080fd5b81019080803573ffffffffffffffffffffffffffffffffffffffff169060200190929190803573ffffffffffffffffffffffffffffffffffffffff16906020019092919080359060200190929190505050611d71565b005b6106796004803603604081101561064357600080fd5b81019080803573ffffffffffffffffffffffffffffffffffffffff16906020019092919080359060200190929190505050611de7565b6040518082815260200191505060405180910390f35b6107a5600480360360a08110156106a557600080fd5b81019080803573ffffffffffffffffffffffffffffffffffffffff169060200190929190803573ffffffffffffffffffffffffffffffffffffffff169060200190929190803590602001909291908035906020019064010000000081111561070c57600080fd5b82018360208201111561071e57600080fd5b8035906020019184600183028401116401000000008311171561074057600080fd5b90919293919293908035906020019064010000000081111561076157600080fd5b82018360208201111561077357600080fd5b8035906020019184600183028401116401000000008311171561079557600080fd5b9091929391929390505050611e42565b6040518080602001828103825283818151815260200191508051906020019080838360005b838110156107e55780820151818401526020810190506107ca565b50505050905090810190601f1680156108125780820380516001836020036101000a031916815260200191505b509250505060405180910390f35b61088c6004803603606081101561083657600080fd5b81019080803573ffffffffffffffffffffffffffffffffffffffff169060200190929190803573ffffffffffffffffffffffffffffffffffffffff16906020019092919080359060200190929190505050611e95565b005b6108ba600480360360208110156108a457600080fd5b8101908080359060200190929190505050611eb5565b6040518082815260200191505060405180910390f35b610a3b600480360360c08110156108e657600080fd5b81019080803573ffffffffffffffffffffffffffffffffffffffff169060200190929190803573ffffffffffffffffffffffffffffffffffffffff169060200190929190803590602001909291908035906020019064010000000081111561094d57600080fd5b82018360208201111561095f57600080fd5b8035906020019184600183028401116401000000008311171561098157600080fd5b9091929391929390803590602001906401000000008111156109a257600080fd5b8201836020820111156109b457600080fd5b803590602001918460018302840111640100000000831117156109d657600080fd5b9091929391929390803590602001906401000000008111156109f757600080fd5b820183602082011115610a0957600080fd5b80359060200191846001830284011164010000000083111715610a2b57600080fd5b9091929391929390505050611ed8565b6040518080602001828103825283818151815260200191508051906020019080838360005b83811015610a7b578082015181840152602081019050610a60565b50505050905090810190601f168015610aa85780820380516001836020036101000a031916815260200191505b509250505060405180910390f35b610bcc600480360360a0811015610acc57600080fd5b81019080803573ffffffffffffffffffffffffffffffffffffffff169060200190929190803573ffffffffffffffffffffffffffffffffffffffff1690602001909291908035906020019092919080359060200190640100000000811115610b3357600080fd5b820183602082011115610b4557600080fd5b80359060200191846001830284011164010000000083111715610b6757600080fd5b909192939192939080359060200190640100000000811115610b8857600080fd5b820183602082011115610b9a57600080fd5b80359060200191846001830284011164010000000083111715610bbc57600080fd5b9091929391929390505050611f2b565b6040518080602001828103825283818151815260200191508051906020019080838360005b83811015610c0c578082015181840152602081019050610bf1565b50505050905090810190601f168015610c395780820380516001836020036101000a031916815260200191505b509250505060405180910390f35b610c7360048036036020811015610c5d57600080fd5b8101908080359060200190929190505050611f7e565b604051808273ffffffffffffffffffffffffffffffffffffffff16815260200191505060405180910390f35b610ca7611fb5565b6040518080602001828103825283818151815260200191508051906020019080838360005b83811015610ce7578082015181840152602081019050610ccc565b50505050905090810190601f168015610d145780820380516001836020036101000a031916815260200191505b509250505060405180910390f35b610d6460048036036020811015610d3857600080fd5b81019080803573ffffffffffffffffffffffffffffffffffffffff169060200190929190505050612057565b6040518082815260200191505060405180910390f35b610d8261212c565b005b610e9a600480360360a0811015610d9a57600080fd5b81019080803573ffffffffffffffffffffffffffffffffffffffff169060200190929190803573ffffffffffffffffffffffffffffffffffffffff1690602001909291908035906020019092919080359060200190640100000000811115610e0157600080fd5b820183602082011115610e1357600080fd5b80359060200191846001830284011164010000000083111715610e3557600080fd5b909192939192939080359060200190640100000000811115610e5657600080fd5b820183602082011115610e6857600080fd5b80359060200191846001830284011164010000000083111715610e8a57600080fd5b90919293919293905050506122b7565b6040518080602001828103825283818151815260200191508051906020019080838360005b83811015610eda578082015181840152602081019050610ebf565b50505050905090810190601f168015610f075780820380516001836020036101000a031916815260200191505b509250505060405180910390f35b610f1d61230a565b604051808273ffffffffffffffffffffffffffffffffffffffff16815260200191505060405180910390f35b610f51612334565b6040518080602001828103825283818151815260200191508051906020019080838360005b83811015610f91578082015181840152602081019050610f76565b50505050905090810190601f168015610fbe5780820380516001836020036101000a031916815260200191505b509250505060405180910390f35b61101a60048036036040811015610fe257600080fd5b81019080803573ffffffffffffffffffffffffffffffffffffffff1690602001909291908035151590602001909291905050506123d6565b005b61111f6004803603608081101561103257600080fd5b81019080803573ffffffffffffffffffffffffffffffffffffffff169060200190929190803573ffffffffffffffffffffffffffffffffffffffff169060200190929190803590602001909291908035906020019064010000000081111561109957600080fd5b8201836020820111156110ab57600080fd5b803590602001918460018302840111640100000000831117156110cd57600080fd5b91908080601f016020809104026020016040519081016040528093929190818152602001838380828437600081840152601f19601f82011690508083019250505050505050919291929050505061258c565b005b61114d6004803603602081101561113757600080fd5b8101908080359060200190929190505050612604565b6040518080602001828103825283818151815260200191508051906020019080838360005b8381101561118d578082015181840152602081019050611172565b50505050905090810190601f1680156111ba5780820380516001836020036101000a031916815260200191505b509250505060405180910390f35b6112a1600480360360408110156111de57600080fd5b81019080803573ffffffffffffffffffffffffffffffffffffffff1690602001909291908035906020019064010000000081111561121b57600080fd5b82018360208201111561122d57600080fd5b8035906020019184600183028401116401000000008311171561124f57600080fd5b91908080601f016020809104026020016040519081016040528093929190818152602001838380828437600081840152601f19601f8201169050808301925050505050505091929192905050506128ed565b005b61140e600480360360c08110156112b957600080fd5b81019080803573ffffffffffffffffffffffffffffffffffffffff169060200190929190803573ffffffffffffffffffffffffffffffffffffffff169060200190929190803590602001909291908035906020019064010000000081111561132057600080fd5b82018360208201111561133257600080fd5b8035906020019184600183028401116401000000008311171561135457600080fd5b90919293919293908035906020019064010000000081111561137557600080fd5b82018360208201111561138757600080fd5b803590602001918460018302840111640100000000831117156113a957600080fd5b9091929391929390803590602001906401000000008111156113ca57600080fd5b8201836020820111156113dc57600080fd5b803590602001918460018302840111640100000000831117156113fe57600080fd5b9091929391929390505050612921565b6040518080602001828103825283818151815260200191508051906020019080838360005b8381101561144e578082015181840152602081019050611433565b50505050905090810190601f16801561147b5780820380516001836020036101000a031916815260200191505b509250505060405180910390f35b6114eb6004803603604081101561149f57600080fd5b81019080803573ffffffffffffffffffffffffffffffffffffffff169060200190929190803573ffffffffffffffffffffffffffffffffffffffff169060200190929190505050612974565b60405180821515815260200191505060405180910390f35b6115456004803603602081101561151957600080fd5b81019080803573ffffffffffffffffffffffffffffffffffffffff169060200190929190505050612a08565b005b6115c96004803603606081101561155d57600080fd5b81019080803573ffffffffffffffffffffffffffffffffffffffff169060200190929190803573ffffffffffffffffffffffffffffffffffffffff169060200190929190803573ffffffffffffffffffffffffffffffffffffffff169060200190929190505050612c18565b005b600060046000837bffffffffffffffffffffffffffffffffffffffffffffffffffffffff19167bffffffffffffffffffffffffffffffffffffffffffffffffffffffff1916815260200190815260200160002060009054906101000a900460ff169050919050565b3373ffffffffffffffffffffffffffffffffffffffff1661165384611f7e565b73ffffffffffffffffffffffffffffffffffffffff1614156116c0576040517f08c379a00000000000000000000000000000000000000000000000000000000081526004018080602001828103825260428152602001806147776042913960600191505060405180910390fd5b6000829050601060009054906101000a900473ffffffffffffffffffffffffffffffffffffffff1673ffffffffffffffffffffffffffffffffffffffff166339255d5b601160009054906101000a900473ffffffffffffffffffffffffffffffffffffffff166362fc305e60e01b8461173889611f7e565b87600067ffffffffffffffff8111801561175157600080fd5b506040519080825280601f01601f1916602001820160405280156117845781602001600182028036833780820191505090505b50604051602401808573ffffffffffffffffffffffffffffffffffffffff1681526020018473ffffffffffffffffffffffffffffffffffffffff16815260200183600b0b815260200180602001828103825283818151815260200191508051906020019080838360005b838110156118095780820151818401526020810190506117ee565b50505050905090810190601f1680156118365780820380516001836020036101000a031916815260200191505b5095505050505050604051602081830303815290604052907bffffffffffffffffffffffffffffffffffffffffffffffffffffffff19166020820180517bffffffffffffffffffffffffffffffffffffffffffffffffffffffff83818316178352505050506040518363ffffffff1660e01b8152600401808373ffffffffffffffffffffffffffffffffffffffff1681526020018060200180602001838103835284818151815260200191508051906020019080838360005b8381101561190a5780820151818401526020810190506118ef565b50505050905090810190601f1680156119375780820380516001836020036101000a031916815260200191505b50838103825260028152602001807f3078000000000000000000000000000000000000000000000000000000000000815250602001945050505050600060405180830381600087803b15801561198c57600080fd5b505af11580156119a0573d6000803e3d6000fd5b505050506040513d6000823e3d601f19601f8201168201806040525060208110156119ca57600080fd5b81019080805160405193929190846401000000008211156119ea57600080fd5b83820191506020820185811115611a0057600080fd5b8251866001820283011164010000000082111715611a1d57600080fd5b8083526020830192505050908051906020019080838360005b83811015611a51578082015181840152602081019050611a36565b50505050905090810190601f168015611a7e5780820380516001836020036101000a031916815260200191505b506040525050505050505050565b6060600a8054600181600116156101000203166002900480601f016020809104026020016040519081016040528092919081815260200182805460018160011615610100020316600290048015611b245780601f10611af957610100808354040283529160200191611b24565b820191906000526020600020905b815481529060010190602001808311611b0757829003601f168201915b5050505050905090565b6000611b3982612fef565b611b8e576040517f08c379a000000000000000000000000000000000000000000000000000000000815260040180806020018281038252602c81526020018061458a602c913960400191505060405180910390fd5b6008600083815260200190815260200160002060009054906101000a900473ffffffffffffffffffffffffffffffffffffffff169050919050565b6000611bd482611f7e565b90508073ffffffffffffffffffffffffffffffffffffffff168373ffffffffffffffffffffffffffffffffffffffff161415611c5b576040517f08c379a000000000000000000000000000000000000000000000000000000000815260040180806020018281038252602181526020018061463a6021913960400191505060405180910390fd5b8073ffffffffffffffffffffffffffffffffffffffff16611c7a61300c565b73ffffffffffffffffffffffffffffffffffffffff161480611ca95750611ca881611ca361300c565b612974565b5b611cfe576040517f08c379a00000000000000000000000000000000000000000000000000000000081526004018080602001828103825260388152602001806144dd6038913960400191505060405180910390fd5b611d088383613014565b505050565b6000611d1960066130cd565b905090565b60606040517f08c379a000000000000000000000000000000000000000000000000000000000815260040180806020018281038252602e8152602001806146e9602e913960400191505060405180910390fd5b611d82611d7c61300c565b826130e2565b611dd7576040517f08c379a00000000000000000000000000000000000000000000000000000000081526004018080602001828103825260318152602001806146b86031913960400191505060405180910390fd5b611de28383836131d6565b505050565b6000611e3a82600560008673ffffffffffffffffffffffffffffffffffffffff1673ffffffffffffffffffffffffffffffffffffffff16815260200190815260200160002061341990919063ffffffff16565b905092915050565b60606040517f08c379a000000000000000000000000000000000000000000000000000000000815260040180806020018281038252602f815260200180614717602f913960400191505060405180910390fd5b611eb08383836040518060200160405280600081525061258c565b505050565b600080611ecc83600661343390919063ffffffff16565b50905080915050919050565b60606040517f08c379a00000000000000000000000000000000000000000000000000000000081526004018080602001828103825260318152602001806147466031913960400191505060405180910390fd5b60606040517f08c379a000000000000000000000000000000000000000000000000000000000815260040180806020018281038252603381526020018061445a6033913960400191505060405180910390fd5b6000611fae8260405180606001604052806029815260200161453f60299139600661345f9092919063ffffffff16565b9050919050565b6060600d8054600181600116156101000203166002900480601f01602080910402602001604051908101604052809291908181526020018280546001816001161561010002031660029004801561204d5780601f106120225761010080835404028352916020019161204d565b820191906000526020600020905b81548152906001019060200180831161203057829003601f168201915b5050505050905090565b60008073ffffffffffffffffffffffffffffffffffffffff168273ffffffffffffffffffffffffffffffffffffffff1614156120de576040517f08c379a000000000000000000000000000000000000000000000000000000000815260040180806020018281038252602a815260200180614515602a913960400191505060405180910390fd5b612125600560008473ffffffffffffffffffffffffffffffffffffffff1673ffffffffffffffffffffffffffffffffffffffff16815260200190815260200160002061347e565b9050919050565b61213461300c565b73ffffffffffffffffffffffffffffffffffffffff16600e60009054906101000a900473ffffffffffffffffffffffffffffffffffffffff1673ffffffffffffffffffffffffffffffffffffffff16146121f6576040517f08c379a00000000000000000000000000000000000000000000000000000000081526004018080602001828103825260208152602001807f4f776e61626c653a2063616c6c6572206973206e6f7420746865206f776e657281525060200191505060405180910390fd5b600073ffffffffffffffffffffffffffffffffffffffff16600e60009054906101000a900473ffffffffffffffffffffffffffffffffffffffff1673ffffffffffffffffffffffffffffffffffffffff167f8be0079c531659141344cd1fd0a4f28419497f9722a3daafe3b4186f6b6457e060405160405180910390a36000600e60006101000a81548173ffffffffffffffffffffffffffffffffffffffff021916908373ffffffffffffffffffffffffffffffffffffffff160217905550565b60606040517f08c379a000000000000000000000000000000000000000000000000000000000815260040180806020018281038252602f81526020018061465b602f913960400191505060405180910390fd5b6000600e60009054906101000a900473ffffffffffffffffffffffffffffffffffffffff16905090565b6060600b8054600181600116156101000203166002900480601f0160208091040260200160405190810160405280929190818152602001828054600181600116156101000203166002900480156123cc5780601f106123a1576101008083540402835291602001916123cc565b820191906000526020600020905b8154815290600101906020018083116123af57829003601f168201915b5050505050905090565b6123de61300c565b73ffffffffffffffffffffffffffffffffffffffff168273ffffffffffffffffffffffffffffffffffffffff16141561247f576040517f08c379a00000000000000000000000000000000000000000000000000000000081526004018080602001828103825260198152602001807f4552433732313a20617070726f766520746f2063616c6c65720000000000000081525060200191505060405180910390fd5b806009600061248c61300c565b73ffffffffffffffffffffffffffffffffffffffff1673ffffffffffffffffffffffffffffffffffffffff16815260200190815260200160002060008473ffffffffffffffffffffffffffffffffffffffff1673ffffffffffffffffffffffffffffffffffffffff16815260200190815260200160002060006101000a81548160ff0219169083151502179055508173ffffffffffffffffffffffffffffffffffffffff1661253961300c565b73ffffffffffffffffffffffffffffffffffffffff167f17307eab39ab6107e8899845ad3d59bd9653f200f220920489ca2b5937696c318360405180821515815260200191505060405180910390a35050565b61259d61259761300c565b836130e2565b6125f2576040517f08c379a00000000000000000000000000000000000000000000000000000000081526004018080602001828103825260318152602001806146b86031913960400191505060405180910390fd5b6125fe84848484613493565b50505050565b606061260f82612fef565b612664576040517f08c379a000000000000000000000000000000000000000000000000000000000815260040180806020018281038252602f81526020018061460b602f913960400191505060405180910390fd5b6000600c60008481526020019081526020016000208054600181600116156101000203166002900480601f01602080910402602001604051908101604052809291908181526020018280546001816001161561010002031660029004801561270d5780601f106126e25761010080835404028352916020019161270d565b820191906000526020600020905b8154815290600101906020018083116126f057829003601f168201915b505050505090506000600d805460018160011615610100020316600290049050141561273c57809150506128e8565b60008151111561281557600d8160405160200180838054600181600116156101000203166002900480156127a75780601f106127855761010080835404028352918201916127a7565b820191906000526020600020905b815481529060010190602001808311612793575b505082805190602001908083835b602083106127d857805182526020820191506020810190506020830392506127b5565b6001836020036101000a038019825116818451168082178552505050505050905001925050506040516020818303038152906040529150506128e8565b600d61282084613505565b604051602001808380546001816001161561010002031660029004801561287e5780601f1061285c57610100808354040283529182019161287e565b820191906000526020600020905b81548152906001019060200180831161286a575b505082805190602001908083835b602083106128af578051825260208201915060208101905060208303925061288c565b6001836020036101000a038019825116818451168082178552505050505050905001925050506040516020818303038152906040529150505b919050565b612900826128fb600f61364c565b61365a565b61291361290d600f61364c565b82613678565b61291d600f613702565b5050565b60606040517f08c379a000000000000000000000000000000000000000000000000000000000815260040180806020018281038252602e81526020018061468a602e913960400191505060405180910390fd5b6000600960008473ffffffffffffffffffffffffffffffffffffffff1673ffffffffffffffffffffffffffffffffffffffff16815260200190815260200160002060008373ffffffffffffffffffffffffffffffffffffffff1673ffffffffffffffffffffffffffffffffffffffff16815260200190815260200160002060009054906101000a900460ff16905092915050565b612a1061300c565b73ffffffffffffffffffffffffffffffffffffffff16600e60009054906101000a900473ffffffffffffffffffffffffffffffffffffffff1673ffffffffffffffffffffffffffffffffffffffff1614612ad2576040517f08c379a00000000000000000000000000000000000000000000000000000000081526004018080602001828103825260208152602001807f4f776e61626c653a2063616c6c6572206973206e6f7420746865206f776e657281525060200191505060405180910390fd5b600073ffffffffffffffffffffffffffffffffffffffff168173ffffffffffffffffffffffffffffffffffffffff161415612b58576040517f08c379a00000000000000000000000000000000000000000000000000000000081526004018080602001828103825260268152602001806144346026913960400191505060405180910390fd5b8073ffffffffffffffffffffffffffffffffffffffff16600e60009054906101000a900473ffffffffffffffffffffffffffffffffffffffff1673ffffffffffffffffffffffffffffffffffffffff167f8be0079c531659141344cd1fd0a4f28419497f9722a3daafe3b4186f6b6457e060405160405180910390a380600e60006101000a81548173ffffffffffffffffffffffffffffffffffffffff021916908373ffffffffffffffffffffffffffffffffffffffff16021790555050565b6000839050600260009054906101000a900473ffffffffffffffffffffffffffffffffffffffff1673ffffffffffffffffffffffffffffffffffffffff166339255d5b600360009054906101000a900473ffffffffffffffffffffffffffffffffffffffff1663b4b333c660e01b848787600067ffffffffffffffff81118015612ca157600080fd5b506040519080825280601f01601f191660200182016040528015612cd45781602001600182028036833780820191505090505b50604051602401808573ffffffffffffffffffffffffffffffffffffffff1681526020018473ffffffffffffffffffffffffffffffffffffffff1681526020018373ffffffffffffffffffffffffffffffffffffffff16815260200180602001828103825283818151815260200191508051906020019080838360005b83811015612d6c578082015181840152602081019050612d51565b50505050905090810190601f168015612d995780820380516001836020036101000a031916815260200191505b5095505050505050604051602081830303815290604052907bffffffffffffffffffffffffffffffffffffffffffffffffffffffff19166020820180517bffffffffffffffffffffffffffffffffffffffffffffffffffffffff83818316178352505050506040518363ffffffff1660e01b8152600401808373ffffffffffffffffffffffffffffffffffffffff1681526020018060200180602001838103835284818151815260200191508051906020019080838360005b83811015612e6d578082015181840152602081019050612e52565b50505050905090810190601f168015612e9a5780820380516001836020036101000a031916815260200191505b50838103825260028152602001807f3078000000000000000000000000000000000000000000000000000000000000815250602001945050505050600060405180830381600087803b158015612eef57600080fd5b505af1158015612f03573d6000803e3d6000fd5b505050506040513d6000823e3d601f19601f820116820180604052506020811015612f2d57600080fd5b8101908080516040519392919084640100000000821115612f4d57600080fd5b83820191506020820185811115612f6357600080fd5b8251866001820283011164010000000082111715612f8057600080fd5b8083526020830192505050908051906020019080838360005b83811015612fb4578082015181840152602081019050612f99565b50505050905090810190601f168015612fe15780820380516001836020036101000a031916815260200191505b506040525050505050505050565b600061300582600661371890919063ffffffff16565b9050919050565b600033905090565b816008600083815260200190815260200160002060006101000a81548173ffffffffffffffffffffffffffffffffffffffff021916908373ffffffffffffffffffffffffffffffffffffffff160217905550808273ffffffffffffffffffffffffffffffffffffffff1661308783611f7e565b73ffffffffffffffffffffffffffffffffffffffff167f8c5be1e5ebec7d5bd14f71427d1e84f3dd0314c0f7b2291e5b200ac8c7c3b92560405160405180910390a45050565b60006130db82600001613732565b9050919050565b60006130ed82612fef565b613142576040517f08c379a000000000000000000000000000000000000000000000000000000000815260040180806020018281038252602c8152602001806144b1602c913960400191505060405180910390fd5b600061314d83611f7e565b90508073ffffffffffffffffffffffffffffffffffffffff168473ffffffffffffffffffffffffffffffffffffffff1614806131bc57508373ffffffffffffffffffffffffffffffffffffffff166131a484611b2e565b73ffffffffffffffffffffffffffffffffffffffff16145b806131cd57506131cc8185612974565b5b91505092915050565b8273ffffffffffffffffffffffffffffffffffffffff166131f682611f7e565b73ffffffffffffffffffffffffffffffffffffffff1614613262576040517f08c379a00000000000000000000000000000000000000000000000000000000081526004018080602001828103825260298152602001806145e26029913960400191505060405180910390fd5b600073ffffffffffffffffffffffffffffffffffffffff168273ffffffffffffffffffffffffffffffffffffffff1614156132e8576040517f08c379a000000000000000000000000000000000000000000000000000000000815260040180806020018281038252602481526020018061448d6024913960400191505060405180910390fd5b6132f3838383613743565b6132fe600082613014565b61334f81600560008673ffffffffffffffffffffffffffffffffffffffff1673ffffffffffffffffffffffffffffffffffffffff16815260200190815260200160002061374890919063ffffffff16565b506133a181600560008573ffffffffffffffffffffffffffffffffffffffff1673ffffffffffffffffffffffffffffffffffffffff16815260200190815260200160002061376290919063ffffffff16565b506133b88183600661377c9092919063ffffffff16565b50808273ffffffffffffffffffffffffffffffffffffffff168473ffffffffffffffffffffffffffffffffffffffff167fddf252ad1be2c89b69c2b068fc378daa952ba7f163c4a11628f55a4df523b3ef60405160405180910390a4505050565b600061342883600001836137b1565b60001c905092915050565b6000806000806134468660000186613834565b915091508160001c8160001c9350935050509250929050565b6000613472846000018460001b846138cd565b60001c90509392505050565b600061348c826000016139c3565b9050919050565b61349e8484846131d6565b6134aa848484846139d4565b6134ff576040517f08c379a00000000000000000000000000000000000000000000000000000000081526004018080602001828103825260328152602001806144026032913960400191505060405180910390fd5b50505050565b6060600082141561354d576040518060400160405280600181526020017f30000000000000000000000000000000000000000000000000000000000000008152509050613647565b600082905060005b60008214613577578080600101915050600a828161356f57fe5b049150613555565b60008167ffffffffffffffff8111801561359057600080fd5b506040519080825280601f01601f1916602001820160405280156135c35781602001600182028036833780820191505090505b50905060006001830390508593505b6000841461363f57600a84816135e457fe5b0660300160f81b828280600190039350815181106135fe57fe5b60200101907effffffffffffffffffffffffffffffffffffffffffffffffffffffffffffff1916908160001a905350600a848161363757fe5b0493506135d2565b819450505050505b919050565b600081600001549050919050565b613674828260405180602001604052806000815250613bed565b5050565b61368182612fef565b6136d6576040517f08c379a000000000000000000000000000000000000000000000000000000000815260040180806020018281038252602c8152602001806145b6602c913960400191505060405180910390fd5b80600c600084815260200190815260200160002090805190602001906136fd929190614334565b505050565b6001816000016000828254019250508190555050565b600061372a836000018360001b613c5e565b905092915050565b600081600001805490509050919050565b505050565b600061375a836000018360001b613c81565b905092915050565b6000613774836000018360001b613d69565b905092915050565b60006137a8846000018460001b8473ffffffffffffffffffffffffffffffffffffffff1660001b613dd9565b90509392505050565b600081836000018054905011613812576040517f08c379a00000000000000000000000000000000000000000000000000000000081526004018080602001828103825260228152602001806143e06022913960400191505060405180910390fd5b82600001828154811061382157fe5b9060005260206000200154905092915050565b60008082846000018054905011613896576040517f08c379a00000000000000000000000000000000000000000000000000000000081526004018080602001828103825260228152602001806145686022913960400191505060405180910390fd5b60008460000184815481106138a757fe5b906000526020600020906002020190508060000154816001015492509250509250929050565b60008084600101600085815260200190815260200160002054905060008114158390613994576040517f08c379a00000000000000000000000000000000000000000000000000000000081526004018080602001828103825283818151815260200191508051906020019080838360005b8381101561395957808201518184015260208101905061393e565b50505050905090810190601f1680156139865780820380516001836020036101000a031916815260200191505b509250505060405180910390fd5b508460000160018203815481106139a757fe5b9060005260206000209060020201600101549150509392505050565b600081600001805490509050919050565b60006139f58473ffffffffffffffffffffffffffffffffffffffff16613eb5565b613a025760019050613be5565b6000613b6c63150b7a0260e01b613a1761300c565b888787604051602401808573ffffffffffffffffffffffffffffffffffffffff1681526020018473ffffffffffffffffffffffffffffffffffffffff16815260200183815260200180602001828103825283818151815260200191508051906020019080838360005b83811015613a9b578082015181840152602081019050613a80565b50505050905090810190601f168015613ac85780820380516001836020036101000a031916815260200191505b5095505050505050604051602081830303815290604052907bffffffffffffffffffffffffffffffffffffffffffffffffffffffff19166020820180517bffffffffffffffffffffffffffffffffffffffffffffffffffffffff8381831617835250505050604051806060016040528060328152602001614402603291398773ffffffffffffffffffffffffffffffffffffffff16613f009092919063ffffffff16565b90506000818060200190516020811015613b8557600080fd5b8101908080519060200190929190505050905063150b7a0260e01b7bffffffffffffffffffffffffffffffffffffffffffffffffffffffff1916817bffffffffffffffffffffffffffffffffffffffffffffffffffffffff191614925050505b949350505050565b613bf78383613f18565b613c0460008484846139d4565b613c59576040517f08c379a00000000000000000000000000000000000000000000000000000000081526004018080602001828103825260328152602001806144026032913960400191505060405180910390fd5b505050565b600080836001016000848152602001908152602001600020541415905092915050565b60008083600101600084815260200190815260200160002054905060008114613d5d5760006001820390506000600186600001805490500390506000866000018281548110613ccc57fe5b9060005260206000200154905080876000018481548110613ce957fe5b9060005260206000200181905550600183018760010160008381526020019081526020016000208190555086600001805480613d2157fe5b60019003818190600052602060002001600090559055866001016000878152602001908152602001600020600090556001945050505050613d63565b60009150505b92915050565b6000613d75838361410c565b613dce578260000182908060018154018082558091505060019003906000526020600020016000909190919091505582600001805490508360010160008481526020019081526020016000208190555060019050613dd3565b600090505b92915050565b6000808460010160008581526020019081526020016000205490506000811415613e8057846000016040518060400160405280868152602001858152509080600181540180825580915050600190039060005260206000209060020201600090919091909150600082015181600001556020820151816001015550508460000180549050856001016000868152602001908152602001600020819055506001915050613eae565b82856000016001830381548110613e9357fe5b90600052602060002090600202016001018190555060009150505b9392505050565b60008060007fc5d2460186f7233c927e7db2dcc703c0e500b653ca82273b7bfad8045d85a47060001b9050833f9150808214158015613ef757506000801b8214155b92505050919050565b6060613f0f848460008561412f565b90509392505050565b600073ffffffffffffffffffffffffffffffffffffffff168273ffffffffffffffffffffffffffffffffffffffff161415613fbb576040517f08c379a00000000000000000000000000000000000000000000000000000000081526004018080602001828103825260208152602001807f4552433732313a206d696e7420746f20746865207a65726f206164647265737381525060200191505060405180910390fd5b613fc481612fef565b15614037576040517f08c379a000000000000000000000000000000000000000000000000000000000815260040180806020018281038252601c8152602001807f4552433732313a20746f6b656e20616c7265616479206d696e7465640000000081525060200191505060405180910390fd5b61404360008383613743565b61409481600560008573ffffffffffffffffffffffffffffffffffffffff1673ffffffffffffffffffffffffffffffffffffffff16815260200190815260200160002061376290919063ffffffff16565b506140ab8183600661377c9092919063ffffffff16565b50808273ffffffffffffffffffffffffffffffffffffffff16600073ffffffffffffffffffffffffffffffffffffffff167fddf252ad1be2c89b69c2b068fc378daa952ba7f163c4a11628f55a4df523b3ef60405160405180910390a45050565b600080836001016000848152602001908152602001600020541415905092915050565b606061413a85613eb5565b6141ac576040517f08c379a000000000000000000000000000000000000000000000000000000000815260040180806020018281038252601d8152602001807f416464726573733a2063616c6c20746f206e6f6e2d636f6e747261637400000081525060200191505060405180910390fd5b6000808673ffffffffffffffffffffffffffffffffffffffff1685876040518082805190602001908083835b602083106141fb57805182526020820191506020810190506020830392506141d8565b6001836020036101000a03801982511681845116808217855250505050505090500191505060006040518083038185875af1925050503d806000811461425d576040519150601f19603f3d011682016040523d82523d6000602084013e614262565b606091505b5091509150811561427757809250505061432c565b60008151111561428a5780518082602001fd5b836040517f08c379a00000000000000000000000000000000000000000000000000000000081526004018080602001828103825283818151815260200191508051906020019080838360005b838110156142f15780820151818401526020810190506142d6565b50505050905090810190601f16801561431e5780820380516001836020036101000a031916815260200191505b509250505060405180910390fd5b949350505050565b828054600181600116156101000203166002900490600052602060002090601f01602090048101928261436a57600085556143b1565b82601f1061438357805160ff19168380011785556143b1565b828001600101855582156143b1579182015b828111156143b0578251825591602001919060010190614395565b5b5090506143be91906143c2565b5090565b5b808211156143db5760008160009055506001016143c3565b509056fe456e756d657261626c655365743a20696e646578206f7574206f6620626f756e64734552433732313a207472616e7366657220746f206e6f6e20455243373231526563656976657220696d706c656d656e7465724f776e61626c653a206e6577206f776e657220697320746865207a65726f2061646472657373556e737570706f727465642063616c6c6261636b202d20204265666f72652041677265656d656e74205465726d696e617465644552433732313a207472616e7366657220746f20746865207a65726f20616464726573734552433732313a206f70657261746f7220717565727920666f72206e6f6e6578697374656e7420746f6b656e4552433732313a20617070726f76652063616c6c6572206973206e6f74206f776e6572206e6f7220617070726f76656420666f7220616c6c4552433732313a2062616c616e636520717565727920666f7220746865207a65726f20616464726573734552433732313a206f776e657220717565727920666f72206e6f6e6578697374656e7420746f6b656e456e756d657261626c654d61703a20696e646578206f7574206f6620626f756e64734552433732313a20617070726f76656420717565727920666f72206e6f6e6578697374656e7420746f6b656e4552433732314d657461646174613a2055524920736574206f66206e6f6e6578697374656e7420746f6b656e4552433732313a207472616e73666572206f6620746f6b656e2074686174206973206e6f74206f776e4552433732314d657461646174613a2055524920717565727920666f72206e6f6e6578697374656e7420746f6b656e4552433732313a20617070726f76616c20746f2063757272656e74206f776e6572556e737570706f727465642063616c6c6261636b202d204265666f72652041677265656d656e742075706461746564556e737570706f727465642063616c6c6261636b202d2041667465722041677265656d656e7420437265617465644552433732313a207472616e736665722063616c6c6572206973206e6f74206f776e6572206e6f7220617070726f766564556e737570706f727465642063616c6c6261636b202d2041667465722041677265656d656e742055706461746564556e737570706f727465642063616c6c6261636b202d204265666f72652041677265656d656e742043726561746564556e737570706f727465642063616c6c6261636b202d2041667465722041677265656d656e74205465726d696e61746564466c6f7720636f756c642062652063726561746564206f6e6c7920616674657220746865204e465420697320626f7567687420627920736f6d656f6e6520656c7365a2646970667358221220a8b0997521dbd1fc7e8f3f5b8c4c0b51dc68b7564575174652eb0d305b99f57a64736f6c63430007060033",
  "immutableReferences": {},
  "source": "// SPDX-License-Identifier: MIT\npragma solidity ^0.7.0;\n\nimport \"@openzeppelin/contracts/token/ERC721/ERC721.sol\";\nimport \"@openzeppelin/contracts/access/Ownable.sol\";\nimport \"@openzeppelin/contracts/utils/Counters.sol\";\nimport \"./ManageFlows.sol\";\n\n//How do we add a flow before it is transferred to someone or the flow starts as soon as it is transferred to someone\ncontract SocialStreamableNFT is ManageFlows,ERC721, Ownable {\n    using Counters for Counters.Counter;\n\n    Counters.Counter private _tokenIdCounter;\n    ISuperfluid private _host2; // host\nIConstantFlowAgreementV1 private _cfa2;\n\n    constructor(ISuperfluid host,\n        IConstantFlowAgreementV1 cfa) ERC721(\"SocialStreamableNFT\", \"SSSNFT\") ManageFlows(host,cfa) {\n            _host2 = host;\n        _cfa2 = cfa;\n        }\n\n    function safeMint(address to,string memory tokenURI) public {\n        _safeMint(to, _tokenIdCounter.current());\n        _setTokenURI(_tokenIdCounter.current(), tokenURI);\n        _tokenIdCounter.increment();\n    }\n\n    function _burn(uint256 tokenId) internal override(ERC721) {\n        super._burn(tokenId);\n    }\n\n    function createFlow(uint256 tokenId,address token,int96 flowRate) external{\n        require(ownerOf(tokenId)!=msg.sender,\"Flow could be created only after the NFT is bought by someone else\");\n        ISuperToken _token = ISuperToken(token);\n        _host2.callAgreement(\n            _cfa2,\n            abi.encodeWithSelector(\n                _cfa2.createFlow.selector,\n                _token,\n                ownerOf(tokenId),\n                flowRate,\n                new bytes(0)\n            ),\n            \"0x\"\n        );\n        // CreateFlow(token, ownerOf(tokenId), flowRate);\n    }\n\n    function _beforeTokenTransfer(\n        address /*from*/,\n        address to,\n        uint256 /*tokenId*/\n    ) internal override {\n      \n    }\n\n}",
  "sourcePath": "/Users/praffulsahu/Documents/Crypto/StreamSocialToken/contracts/SocialStreamableNFT.sol",
  "compiler": {
    "name": "solc",
    "version": "0.7.6+commit.7338295f.Emscripten.clang"
  },
  "schemaVersion": "3.3.3",
  "updatedAt": "2021-07-08T15:15:09.193Z",
  "networkType": "ethereum",
  "devdoc": {
    "kind": "dev",
    "methods": {
      "approve(address,uint256)": {
        "details": "See {IERC721-approve}."
      },
      "balanceOf(address)": {
        "details": "See {IERC721-balanceOf}."
      },
      "baseURI()": {
        "details": "Returns the base URI set via {_setBaseURI}. This will be automatically added as a prefix in {tokenURI} to each token's URI, or to the token ID if no specific URI is set for that token ID."
      },
      "getApproved(uint256)": {
        "details": "See {IERC721-getApproved}."
      },
      "isApprovedForAll(address,address)": {
        "details": "See {IERC721-isApprovedForAll}."
      },
      "name()": {
        "details": "See {IERC721Metadata-name}."
      },
      "owner()": {
        "details": "Returns the address of the current owner."
      },
      "ownerOf(uint256)": {
        "details": "See {IERC721-ownerOf}."
      },
      "renounceOwnership()": {
        "details": "Leaves the contract without owner. It will not be possible to call `onlyOwner` functions anymore. Can only be called by the current owner. NOTE: Renouncing ownership will leave the contract without an owner, thereby removing any functionality that is only available to the owner."
      },
      "safeTransferFrom(address,address,uint256)": {
        "details": "See {IERC721-safeTransferFrom}."
      },
      "safeTransferFrom(address,address,uint256,bytes)": {
        "details": "See {IERC721-safeTransferFrom}."
      },
      "setApprovalForAll(address,bool)": {
        "details": "See {IERC721-setApprovalForAll}."
      },
      "supportsInterface(bytes4)": {
        "details": "See {IERC165-supportsInterface}. Time complexity O(1), guaranteed to always use less than 30 000 gas."
      },
      "symbol()": {
        "details": "See {IERC721Metadata-symbol}."
      },
      "tokenByIndex(uint256)": {
        "details": "See {IERC721Enumerable-tokenByIndex}."
      },
      "tokenOfOwnerByIndex(address,uint256)": {
        "details": "See {IERC721Enumerable-tokenOfOwnerByIndex}."
      },
      "tokenURI(uint256)": {
        "details": "See {IERC721Metadata-tokenURI}."
      },
      "totalSupply()": {
        "details": "See {IERC721Enumerable-totalSupply}."
      },
      "transferFrom(address,address,uint256)": {
        "details": "See {IERC721-transferFrom}."
      },
      "transferOwnership(address)": {
        "details": "Transfers ownership of the contract to a new account (`newOwner`). Can only be called by the current owner."
      }
    },
    "version": 1
  },
  "userdoc": {
    "kind": "user",
    "methods": {},
    "version": 1
  }
}