{
  "contractName": "SocialStreamableNFT",
  "abi": [
    {
      "inputs": [
        {
          "internalType": "contract ISuperfluid",
          "name": "host",
          "type": "address"
        },
        {
          "internalType": "contract IConstantFlowAgreementV1",
          "name": "cfa",
          "type": "address"
        },
        {
          "internalType": "address",
          "name": "emitterAdd",
          "type": "address"
        }
      ],
      "stateMutability": "nonpayable",
      "type": "constructor"
    },
    {
      "anonymous": false,
      "inputs": [
        {
          "indexed": true,
          "internalType": "address",
          "name": "owner",
          "type": "address"
        },
        {
          "indexed": true,
          "internalType": "address",
          "name": "approved",
          "type": "address"
        },
        {
          "indexed": true,
          "internalType": "uint256",
          "name": "tokenId",
          "type": "uint256"
        }
      ],
      "name": "Approval",
      "type": "event"
    },
    {
      "anonymous": false,
      "inputs": [
        {
          "indexed": true,
          "internalType": "address",
          "name": "owner",
          "type": "address"
        },
        {
          "indexed": true,
          "internalType": "address",
          "name": "operator",
          "type": "address"
        },
        {
          "indexed": false,
          "internalType": "bool",
          "name": "approved",
          "type": "bool"
        }
      ],
      "name": "ApprovalForAll",
      "type": "event"
    },
    {
      "anonymous": false,
      "inputs": [
        {
          "indexed": true,
          "internalType": "address",
          "name": "previousOwner",
          "type": "address"
        },
        {
          "indexed": true,
          "internalType": "address",
          "name": "newOwner",
          "type": "address"
        }
      ],
      "name": "OwnershipTransferred",
      "type": "event"
    },
    {
      "anonymous": false,
      "inputs": [
        {
          "indexed": true,
          "internalType": "address",
          "name": "from",
          "type": "address"
        },
        {
          "indexed": true,
          "internalType": "address",
          "name": "to",
          "type": "address"
        },
        {
          "indexed": true,
          "internalType": "uint256",
          "name": "tokenId",
          "type": "uint256"
        }
      ],
      "name": "Transfer",
      "type": "event"
    },
    {
      "inputs": [
        {
          "internalType": "address",
          "name": "to",
          "type": "address"
        },
        {
          "internalType": "uint256",
          "name": "tokenId",
          "type": "uint256"
        }
      ],
      "name": "approve",
      "outputs": [],
      "stateMutability": "nonpayable",
      "type": "function"
    },
    {
      "inputs": [
        {
          "internalType": "address",
          "name": "owner",
          "type": "address"
        }
      ],
      "name": "balanceOf",
      "outputs": [
        {
          "internalType": "uint256",
          "name": "",
          "type": "uint256"
        }
      ],
      "stateMutability": "view",
      "type": "function"
    },
    {
      "inputs": [],
      "name": "baseURI",
      "outputs": [
        {
          "internalType": "string",
          "name": "",
          "type": "string"
        }
      ],
      "stateMutability": "view",
      "type": "function"
    },
    {
      "inputs": [
        {
          "internalType": "contract ISuperToken",
          "name": "",
          "type": "address"
        },
        {
          "internalType": "address",
          "name": "",
          "type": "address"
        },
        {
          "internalType": "bytes32",
          "name": "",
          "type": "bytes32"
        },
        {
          "internalType": "bytes",
          "name": "",
          "type": "bytes"
        },
        {
          "internalType": "bytes",
          "name": "",
          "type": "bytes"
        }
      ],
      "name": "beforeAgreementCreated",
      "outputs": [
        {
          "internalType": "bytes",
          "name": "",
          "type": "bytes"
        }
      ],
      "stateMutability": "view",
      "type": "function"
    },
    {
      "inputs": [
        {
          "internalType": "contract ISuperToken",
          "name": "",
          "type": "address"
        },
        {
          "internalType": "address",
          "name": "",
          "type": "address"
        },
        {
          "internalType": "bytes32",
          "name": "",
          "type": "bytes32"
        },
        {
          "internalType": "bytes",
          "name": "",
          "type": "bytes"
        },
        {
          "internalType": "bytes",
          "name": "",
          "type": "bytes"
        }
      ],
      "name": "beforeAgreementTerminated",
      "outputs": [
        {
          "internalType": "bytes",
          "name": "",
          "type": "bytes"
        }
      ],
      "stateMutability": "view",
      "type": "function"
    },
    {
      "inputs": [
        {
          "internalType": "contract ISuperToken",
          "name": "",
          "type": "address"
        },
        {
          "internalType": "address",
          "name": "",
          "type": "address"
        },
        {
          "internalType": "bytes32",
          "name": "",
          "type": "bytes32"
        },
        {
          "internalType": "bytes",
          "name": "",
          "type": "bytes"
        },
        {
          "internalType": "bytes",
          "name": "",
          "type": "bytes"
        }
      ],
      "name": "beforeAgreementUpdated",
      "outputs": [
        {
          "internalType": "bytes",
          "name": "",
          "type": "bytes"
        }
      ],
      "stateMutability": "view",
      "type": "function"
    },
    {
      "inputs": [
        {
          "internalType": "uint256",
          "name": "tokenId",
          "type": "uint256"
        }
      ],
      "name": "getApproved",
      "outputs": [
        {
          "internalType": "address",
          "name": "",
          "type": "address"
        }
      ],
      "stateMutability": "view",
      "type": "function"
    },
    {
      "inputs": [
        {
          "internalType": "address",
          "name": "owner",
          "type": "address"
        },
        {
          "internalType": "address",
          "name": "operator",
          "type": "address"
        }
      ],
      "name": "isApprovedForAll",
      "outputs": [
        {
          "internalType": "bool",
          "name": "",
          "type": "bool"
        }
      ],
      "stateMutability": "view",
      "type": "function"
    },
    {
      "inputs": [],
      "name": "name",
      "outputs": [
        {
          "internalType": "string",
          "name": "",
          "type": "string"
        }
      ],
      "stateMutability": "view",
      "type": "function"
    },
    {
      "inputs": [],
      "name": "owner",
      "outputs": [
        {
          "internalType": "address",
          "name": "",
          "type": "address"
        }
      ],
      "stateMutability": "view",
      "type": "function"
    },
    {
      "inputs": [
        {
          "internalType": "uint256",
          "name": "tokenId",
          "type": "uint256"
        }
      ],
      "name": "ownerOf",
      "outputs": [
        {
          "internalType": "address",
          "name": "",
          "type": "address"
        }
      ],
      "stateMutability": "view",
      "type": "function"
    },
    {
      "inputs": [],
      "name": "renounceOwnership",
      "outputs": [],
      "stateMutability": "nonpayable",
      "type": "function"
    },
    {
      "inputs": [
        {
          "internalType": "address",
          "name": "from",
          "type": "address"
        },
        {
          "internalType": "address",
          "name": "to",
          "type": "address"
        },
        {
          "internalType": "uint256",
          "name": "tokenId",
          "type": "uint256"
        }
      ],
      "name": "safeTransferFrom",
      "outputs": [],
      "stateMutability": "nonpayable",
      "type": "function"
    },
    {
      "inputs": [
        {
          "internalType": "address",
          "name": "from",
          "type": "address"
        },
        {
          "internalType": "address",
          "name": "to",
          "type": "address"
        },
        {
          "internalType": "uint256",
          "name": "tokenId",
          "type": "uint256"
        },
        {
          "internalType": "bytes",
          "name": "_data",
          "type": "bytes"
        }
      ],
      "name": "safeTransferFrom",
      "outputs": [],
      "stateMutability": "nonpayable",
      "type": "function"
    },
    {
      "inputs": [
        {
          "internalType": "address",
          "name": "operator",
          "type": "address"
        },
        {
          "internalType": "bool",
          "name": "approved",
          "type": "bool"
        }
      ],
      "name": "setApprovalForAll",
      "outputs": [],
      "stateMutability": "nonpayable",
      "type": "function"
    },
    {
      "inputs": [
        {
          "internalType": "bytes4",
          "name": "interfaceId",
          "type": "bytes4"
        }
      ],
      "name": "supportsInterface",
      "outputs": [
        {
          "internalType": "bool",
          "name": "",
          "type": "bool"
        }
      ],
      "stateMutability": "view",
      "type": "function"
    },
    {
      "inputs": [],
      "name": "symbol",
      "outputs": [
        {
          "internalType": "string",
          "name": "",
          "type": "string"
        }
      ],
      "stateMutability": "view",
      "type": "function"
    },
    {
      "inputs": [
        {
          "internalType": "uint256",
          "name": "index",
          "type": "uint256"
        }
      ],
      "name": "tokenByIndex",
      "outputs": [
        {
          "internalType": "uint256",
          "name": "",
          "type": "uint256"
        }
      ],
      "stateMutability": "view",
      "type": "function"
    },
    {
      "inputs": [
        {
          "internalType": "address",
          "name": "owner",
          "type": "address"
        },
        {
          "internalType": "uint256",
          "name": "index",
          "type": "uint256"
        }
      ],
      "name": "tokenOfOwnerByIndex",
      "outputs": [
        {
          "internalType": "uint256",
          "name": "",
          "type": "uint256"
        }
      ],
      "stateMutability": "view",
      "type": "function"
    },
    {
      "inputs": [
        {
          "internalType": "uint256",
          "name": "tokenId",
          "type": "uint256"
        }
      ],
      "name": "tokenURI",
      "outputs": [
        {
          "internalType": "string",
          "name": "",
          "type": "string"
        }
      ],
      "stateMutability": "view",
      "type": "function"
    },
    {
      "inputs": [],
      "name": "totalSupply",
      "outputs": [
        {
          "internalType": "uint256",
          "name": "",
          "type": "uint256"
        }
      ],
      "stateMutability": "view",
      "type": "function"
    },
    {
      "inputs": [
        {
          "internalType": "address",
          "name": "from",
          "type": "address"
        },
        {
          "internalType": "address",
          "name": "to",
          "type": "address"
        },
        {
          "internalType": "uint256",
          "name": "tokenId",
          "type": "uint256"
        }
      ],
      "name": "transferFrom",
      "outputs": [],
      "stateMutability": "nonpayable",
      "type": "function"
    },
    {
      "inputs": [
        {
          "internalType": "address",
          "name": "newOwner",
          "type": "address"
        }
      ],
      "name": "transferOwnership",
      "outputs": [],
      "stateMutability": "nonpayable",
      "type": "function"
    },
    {
      "inputs": [
        {
          "internalType": "address",
          "name": "to",
          "type": "address"
        },
        {
          "internalType": "string",
          "name": "tokenURI",
          "type": "string"
        }
      ],
      "name": "safeMint",
      "outputs": [],
      "stateMutability": "nonpayable",
      "type": "function"
    },
    {
      "inputs": [
        {
          "internalType": "uint256",
          "name": "tokenId",
          "type": "uint256"
        },
        {
          "internalType": "address",
          "name": "token",
          "type": "address"
        }
      ],
      "name": "stopFlow",
      "outputs": [],
      "stateMutability": "nonpayable",
      "type": "function"
    },
    {
      "inputs": [
        {
          "internalType": "contract ISuperToken",
          "name": "superToken",
          "type": "address"
        },
        {
          "internalType": "address",
          "name": "agreementClass",
          "type": "address"
        },
        {
          "internalType": "bytes32",
          "name": "agreementId",
          "type": "bytes32"
        },
        {
          "internalType": "bytes",
          "name": "agreementData",
          "type": "bytes"
        },
        {
          "internalType": "bytes",
          "name": "cbdata",
          "type": "bytes"
        },
        {
          "internalType": "bytes",
          "name": "ctx",
          "type": "bytes"
        }
      ],
      "name": "afterAgreementCreated",
      "outputs": [
        {
          "internalType": "bytes",
          "name": "newCtx",
          "type": "bytes"
        }
      ],
      "stateMutability": "nonpayable",
      "type": "function"
    },
    {
      "inputs": [
        {
          "internalType": "contract ISuperToken",
          "name": "superToken",
          "type": "address"
        },
        {
          "internalType": "address",
          "name": "agreementClass",
          "type": "address"
        },
        {
          "internalType": "bytes32",
          "name": "agreementId",
          "type": "bytes32"
        },
        {
          "internalType": "bytes",
          "name": "agreementData",
          "type": "bytes"
        },
        {
          "internalType": "bytes",
          "name": "cbdata",
          "type": "bytes"
        },
        {
          "internalType": "bytes",
          "name": "ctx",
          "type": "bytes"
        }
      ],
      "name": "afterAgreementUpdated",
      "outputs": [
        {
          "internalType": "bytes",
          "name": "newCtx",
          "type": "bytes"
        }
      ],
      "stateMutability": "nonpayable",
      "type": "function"
    },
    {
      "inputs": [
        {
          "internalType": "contract ISuperToken",
          "name": "superToken",
          "type": "address"
        },
        {
          "internalType": "address",
          "name": "agreementClass",
          "type": "address"
        },
        {
          "internalType": "bytes32",
          "name": "agreementId",
          "type": "bytes32"
        },
        {
          "internalType": "bytes",
          "name": "agreementData",
          "type": "bytes"
        },
        {
          "internalType": "bytes",
          "name": "cbdata",
          "type": "bytes"
        },
        {
          "internalType": "bytes",
          "name": "ctx",
          "type": "bytes"
        }
      ],
      "name": "afterAgreementTerminated",
      "outputs": [
        {
          "internalType": "bytes",
          "name": "newCtx",
          "type": "bytes"
        }
      ],
      "stateMutability": "nonpayable",
      "type": "function"
    }
  ],
  "bytecode": "0x60806040523480156200001157600080fd5b5060405162005db838038062005db88339818101604052810190620000379190620006b8565b6040518060400160405280601381526020017f536f6369616c53747265616d61626c654e4654000000000000000000000000008152506040518060400160405280600681526020017f5353534e465400000000000000000000000000000000000000000000000000008152508484600073ffffffffffffffffffffffffffffffffffffffff168273ffffffffffffffffffffffffffffffffffffffff16141562000149576040517f08c379a00000000000000000000000000000000000000000000000000000000081526004018080602001828103825260148152602001807f686f7374206973207a65726f206164647265737300000000000000000000000081525060200191505060405180910390fd5b600073ffffffffffffffffffffffffffffffffffffffff168173ffffffffffffffffffffffffffffffffffffffff161415620001ed576040517f08c379a00000000000000000000000000000000000000000000000000000000081526004018080602001828103825260138152602001807f636661206973207a65726f20616464726573730000000000000000000000000081525060200191505060405180910390fd5b81600260006101000a81548173ffffffffffffffffffffffffffffffffffffffff021916908373ffffffffffffffffffffffffffffffffffffffff16021790555080600360006101000a81548173ffffffffffffffffffffffffffffffffffffffff021916908373ffffffffffffffffffffffffffffffffffffffff160217905550600064100000000064040000000064010000000060011717179050600260009054906101000a900473ffffffffffffffffffffffffffffffffffffffff1673ffffffffffffffffffffffffffffffffffffffff1663ad3915c8826040518263ffffffff1660e01b815260040180828152602001915050600060405180830381600087803b1580156200030057600080fd5b505af115801562000315573d6000803e3d6000fd5b50505050505050620003346301ffc9a760e01b620004ab60201b60201c565b81600a90805190602001906200034c929190620005bd565b5080600b908051906020019062000365929190620005bd565b506200037e6380ac58cd60e01b620004ab60201b60201c565b62000396635b5e139f60e01b620004ab60201b60201c565b620003ae63780e9d6360e01b620004ab60201b60201c565b50506000620003c2620005b560201b60201c565b905080600e60006101000a81548173ffffffffffffffffffffffffffffffffffffffff021916908373ffffffffffffffffffffffffffffffffffffffff1602179055508073ffffffffffffffffffffffffffffffffffffffff16600073ffffffffffffffffffffffffffffffffffffffff167f8be0079c531659141344cd1fd0a4f28419497f9722a3daafe3b4186f6b6457e060405160405180910390a35080601160006101000a81548173ffffffffffffffffffffffffffffffffffffffff021916908373ffffffffffffffffffffffffffffffffffffffff160217905550505050620007b8565b63ffffffff60e01b817bffffffffffffffffffffffffffffffffffffffffffffffffffffffff1916141562000548576040517f08c379a000000000000000000000000000000000000000000000000000000000815260040180806020018281038252601c8152602001807f4552433136353a20696e76616c696420696e746572666163652069640000000081525060200191505060405180910390fd5b600160046000837bffffffffffffffffffffffffffffffffffffffffffffffffffffffff19167bffffffffffffffffffffffffffffffffffffffffffffffffffffffff1916815260200190815260200160002060006101000a81548160ff02191690831515021790555050565b600033905090565b828054600181600116156101000203166002900490600052602060002090601f016020900481019282620005f5576000855562000641565b82601f106200061057805160ff191683800117855562000641565b8280016001018555821562000641579182015b828111156200064057825182559160200191906001019062000623565b5b50905062000650919062000654565b5090565b5b808211156200066f57600081600090555060010162000655565b5090565b60008151905062000684816200076a565b92915050565b6000815190506200069b8162000784565b92915050565b600081519050620006b2816200079e565b92915050565b600080600060608486031215620006ce57600080fd5b6000620006de86828701620006a1565b9350506020620006f1868287016200068a565b9250506040620007048682870162000673565b9150509250925092565b60006200071b826200074a565b9050919050565b60006200072f826200070e565b9050919050565b600062000743826200070e565b9050919050565b600073ffffffffffffffffffffffffffffffffffffffff82169050919050565b62000775816200070e565b81146200078157600080fd5b50565b6200078f8162000722565b81146200079b57600080fd5b50565b620007a98162000736565b8114620007b557600080fd5b50565b6155f080620007c86000396000f3fe608060405234801561001057600080fd5b50600436106101c45760003560e01c80636c0360eb116100f9578063b88d4fde11610097578063d86ed3e511610071578063d86ed3e514610551578063e985e9c514610581578063f2fde38b146105b1578063fa47c75e146105cd576101c4565b8063b88d4fde146104e9578063c87b56dd14610505578063d204c45e14610535576101c4565b8063884d1f40116100d3578063884d1f40146104615780638da5cb5b1461049157806395d89b41146104af578063a22cb465146104cd576101c4565b80636c0360eb1461040957806370a0823114610427578063715018a614610457576101c4565b80632f745c59116101665780634f6ccce7116101405780634f6ccce71461034957806353c11f99146103795780635f9e7d77146103a95780636352211e146103d9576101c4565b80632f745c59146102cd57806330d9c915146102fd57806342842e0e1461032d576101c4565b8063095ea7b3116101a2578063095ea7b31461024757806318160ddd14610263578063230dbd291461028157806323b872dd146102b1576101c4565b806301ffc9a7146101c957806306fdde03146101f9578063081812fc14610217575b600080fd5b6101e360048036038101906101de9190614600565b6105e9565b6040516101f09190614cc1565b60405180910390f35b610201610651565b60405161020e9190614ed0565b60405180910390f35b610231600480360381019061022c91906148cf565b6106f3565b60405161023e9190614c23565b60405180910390f35b610261600480360381019061025c919061459b565b61078e565b005b61026b6108d2565b6040516102789190614f52565b60405180910390f35b61029b60048036038101906102969190614786565b6108e3565b6040516102a89190614d00565b60405180910390f35b6102cb60048036038101906102c69190614441565b6108ff565b005b6102e760048036038101906102e2919061459b565b610975565b6040516102f49190614f52565b60405180910390f35b610317600480360381019061031291906146d6565b6109d0565b6040516103249190614d00565b60405180910390f35b61034760048036038101906103429190614441565b610a23565b005b610363600480360381019061035e91906148cf565b610a43565b6040516103709190614f52565b60405180910390f35b610393600480360381019061038e9190614786565b610a66565b6040516103a09190614d00565b60405180910390f35b6103c360048036038101906103be91906146d6565b610abc565b6040516103d09190614d00565b60405180910390f35b6103f360048036038101906103ee91906148cf565b610b0f565b6040516104009190614c23565b60405180910390f35b610411610b46565b60405161041e9190614ed0565b60405180910390f35b610441600480360381019061043c91906143dc565b610be8565b60405161044e9190614f52565b60405180910390f35b61045f610cbd565b005b61047b600480360381019061047691906146d6565b610e48565b6040516104889190614d00565b60405180910390f35b610499610e9b565b6040516104a69190614c23565b60405180910390f35b6104b7610ec5565b6040516104c49190614ed0565b60405180910390f35b6104e760048036038101906104e2919061450b565b610f67565b005b61050360048036038101906104fe9190614490565b61111d565b005b61051f600480360381019061051a91906148cf565b611195565b60405161052c9190614ed0565b60405180910390f35b61054f600480360381019061054a9190614547565b61147e565b005b61056b60048036038101906105669190614786565b6115a9565b6040516105789190614d00565b60405180910390f35b61059b60048036038101906105969190614405565b6115c5565b6040516105a89190614cc1565b60405180910390f35b6105cb60048036038101906105c691906143dc565b611659565b005b6105e760048036038101906105e29190614921565b611869565b005b600060046000837bffffffffffffffffffffffffffffffffffffffffffffffffffffffff19167bffffffffffffffffffffffffffffffffffffffffffffffffffffffff1916815260200190815260200160002060009054906101000a900460ff169050919050565b6060600a8054600181600116156101000203166002900480601f0160208091040260200160405190810160405280929190818152602001828054600181600116156101000203166002900480156106e95780601f106106be576101008083540402835291602001916106e9565b820191906000526020600020905b8154815290600101906020018083116106cc57829003601f168201915b5050505050905090565b60006106fe82611921565b610753576040517f08c379a000000000000000000000000000000000000000000000000000000000815260040180806020018281038252602c81526020018061545b602c913960400191505060405180910390fd5b6008600083815260200190815260200160002060009054906101000a900473ffffffffffffffffffffffffffffffffffffffff169050919050565b600061079982610b0f565b90508073ffffffffffffffffffffffffffffffffffffffff168373ffffffffffffffffffffffffffffffffffffffff161415610820576040517f08c379a000000000000000000000000000000000000000000000000000000000815260040180806020018281038252602181526020018061550b6021913960400191505060405180910390fd5b8073ffffffffffffffffffffffffffffffffffffffff1661083f61193e565b73ffffffffffffffffffffffffffffffffffffffff16148061086e575061086d8161086861193e565b6115c5565b5b6108c3576040517f08c379a00000000000000000000000000000000000000000000000000000000081526004018080602001828103825260388152602001806153ae6038913960400191505060405180910390fd5b6108cd8383611946565b505050565b60006108de60066119ff565b905090565b60606108f083838c611a14565b90509998505050505050505050565b61091061090a61193e565b82612215565b610965576040517f08c379a000000000000000000000000000000000000000000000000000000000815260040180806020018281038252603181526020018061555b6031913960400191505060405180910390fd5b610970838383612309565b505050565b60006109c882600560008673ffffffffffffffffffffffffffffffffffffffff1673ffffffffffffffffffffffffffffffffffffffff16815260200190815260200160002061254c90919063ffffffff16565b905092915050565b60606040517f08c379a000000000000000000000000000000000000000000000000000000000815260040180806020018281038252602f81526020018061558c602f913960400191505060405180910390fd5b610a3e8383836040518060200160405280600081525061111d565b505050565b600080610a5a83600661256690919063ffffffff16565b50905080915050919050565b606082828080601f016020809104026020016040519081016040528093929190818152602001838380828437600081840152601f19601f8201169050808301925050505050505090509998505050505050505050565b60606040517f08c379a000000000000000000000000000000000000000000000000000000000815260040180806020018281038252603381526020018061532b6033913960400191505060405180910390fd5b6000610b3f826040518060600160405280602981526020016154106029913960066125929092919063ffffffff16565b9050919050565b6060600d8054600181600116156101000203166002900480601f016020809104026020016040519081016040528092919081815260200182805460018160011615610100020316600290048015610bde5780601f10610bb357610100808354040283529160200191610bde565b820191906000526020600020905b815481529060010190602001808311610bc157829003601f168201915b5050505050905090565b60008073ffffffffffffffffffffffffffffffffffffffff168273ffffffffffffffffffffffffffffffffffffffff161415610c6f576040517f08c379a000000000000000000000000000000000000000000000000000000000815260040180806020018281038252602a8152602001806153e6602a913960400191505060405180910390fd5b610cb6600560008473ffffffffffffffffffffffffffffffffffffffff1673ffffffffffffffffffffffffffffffffffffffff1681526020019081526020016000206125b1565b9050919050565b610cc561193e565b73ffffffffffffffffffffffffffffffffffffffff16600e60009054906101000a900473ffffffffffffffffffffffffffffffffffffffff1673ffffffffffffffffffffffffffffffffffffffff1614610d87576040517f08c379a00000000000000000000000000000000000000000000000000000000081526004018080602001828103825260208152602001807f4f776e61626c653a2063616c6c6572206973206e6f7420746865206f776e657281525060200191505060405180910390fd5b600073ffffffffffffffffffffffffffffffffffffffff16600e60009054906101000a900473ffffffffffffffffffffffffffffffffffffffff1673ffffffffffffffffffffffffffffffffffffffff167f8be0079c531659141344cd1fd0a4f28419497f9722a3daafe3b4186f6b6457e060405160405180910390a36000600e60006101000a81548173ffffffffffffffffffffffffffffffffffffffff021916908373ffffffffffffffffffffffffffffffffffffffff160217905550565b60606040517f08c379a000000000000000000000000000000000000000000000000000000000815260040180806020018281038252602f81526020018061552c602f913960400191505060405180910390fd5b6000600e60009054906101000a900473ffffffffffffffffffffffffffffffffffffffff16905090565b6060600b8054600181600116156101000203166002900480601f016020809104026020016040519081016040528092919081815260200182805460018160011615610100020316600290048015610f5d5780601f10610f3257610100808354040283529160200191610f5d565b820191906000526020600020905b815481529060010190602001808311610f4057829003601f168201915b5050505050905090565b610f6f61193e565b73ffffffffffffffffffffffffffffffffffffffff168273ffffffffffffffffffffffffffffffffffffffff161415611010576040517f08c379a00000000000000000000000000000000000000000000000000000000081526004018080602001828103825260198152602001807f4552433732313a20617070726f766520746f2063616c6c65720000000000000081525060200191505060405180910390fd5b806009600061101d61193e565b73ffffffffffffffffffffffffffffffffffffffff1673ffffffffffffffffffffffffffffffffffffffff16815260200190815260200160002060008473ffffffffffffffffffffffffffffffffffffffff1673ffffffffffffffffffffffffffffffffffffffff16815260200190815260200160002060006101000a81548160ff0219169083151502179055508173ffffffffffffffffffffffffffffffffffffffff166110ca61193e565b73ffffffffffffffffffffffffffffffffffffffff167f17307eab39ab6107e8899845ad3d59bd9653f200f220920489ca2b5937696c318360405180821515815260200191505060405180910390a35050565b61112e61112861193e565b83612215565b611183576040517f08c379a000000000000000000000000000000000000000000000000000000000815260040180806020018281038252603181526020018061555b6031913960400191505060405180910390fd5b61118f848484846125c6565b50505050565b60606111a082611921565b6111f5576040517f08c379a000000000000000000000000000000000000000000000000000000000815260040180806020018281038252602f8152602001806154dc602f913960400191505060405180910390fd5b6000600c60008481526020019081526020016000208054600181600116156101000203166002900480601f01602080910402602001604051908101604052809291908181526020018280546001816001161561010002031660029004801561129e5780601f106112735761010080835404028352916020019161129e565b820191906000526020600020905b81548152906001019060200180831161128157829003601f168201915b505050505090506000600d80546001816001161561010002031660029004905014156112cd5780915050611479565b6000815111156113a657600d8160405160200180838054600181600116156101000203166002900480156113385780601f10611316576101008083540402835291820191611338565b820191906000526020600020905b815481529060010190602001808311611324575b505082805190602001908083835b602083106113695780518252602082019150602081019050602083039250611346565b6001836020036101000a03801982511681845116808217855250505050505090500192505050604051602081830303815290604052915050611479565b600d6113b184612638565b604051602001808380546001816001161561010002031660029004801561140f5780601f106113ed57610100808354040283529182019161140f565b820191906000526020600020905b8154815290600101906020018083116113fb575b505082805190602001908083835b60208310611440578051825260208201915060208101905060208303925061141d565b6001836020036101000a038019825116818451168082178552505050505050905001925050506040516020818303038152906040529150505b919050565b6114918261148c601261277f565b61278d565b6114a461149e601261277f565b826127ab565b33600f60006114b3601261277f565b815260200190815260200160002060006101000a81548173ffffffffffffffffffffffffffffffffffffffff021916908373ffffffffffffffffffffffffffffffffffffffff160217905550601160009054906101000a900473ffffffffffffffffffffffffffffffffffffffff1673ffffffffffffffffffffffffffffffffffffffff1663cc35e7503384611549601261277f565b856040518563ffffffff1660e01b81526004016115699493929190614c3e565b600060405180830381600087803b15801561158357600080fd5b505af1158015611597573d6000803e3d6000fd5b505050506115a56012612835565b5050565b60606115b683838c611a14565b90509998505050505050505050565b6000600960008473ffffffffffffffffffffffffffffffffffffffff1673ffffffffffffffffffffffffffffffffffffffff16815260200190815260200160002060008373ffffffffffffffffffffffffffffffffffffffff1673ffffffffffffffffffffffffffffffffffffffff16815260200190815260200160002060009054906101000a900460ff16905092915050565b61166161193e565b73ffffffffffffffffffffffffffffffffffffffff16600e60009054906101000a900473ffffffffffffffffffffffffffffffffffffffff1673ffffffffffffffffffffffffffffffffffffffff1614611723576040517f08c379a00000000000000000000000000000000000000000000000000000000081526004018080602001828103825260208152602001807f4f776e61626c653a2063616c6c6572206973206e6f7420746865206f776e657281525060200191505060405180910390fd5b600073ffffffffffffffffffffffffffffffffffffffff168173ffffffffffffffffffffffffffffffffffffffff1614156117a9576040517f08c379a00000000000000000000000000000000000000000000000000000000081526004018080602001828103825260268152602001806153056026913960400191505060405180910390fd5b8073ffffffffffffffffffffffffffffffffffffffff16600e60009054906101000a900473ffffffffffffffffffffffffffffffffffffffff1673ffffffffffffffffffffffffffffffffffffffff167f8be0079c531659141344cd1fd0a4f28419497f9722a3daafe3b4186f6b6457e060405160405180910390a380600e60006101000a81548173ffffffffffffffffffffffffffffffffffffffff021916908373ffffffffffffffffffffffffffffffffffffffff16021790555050565b3373ffffffffffffffffffffffffffffffffffffffff16600f600084815260200190815260200160002060009054906101000a900473ffffffffffffffffffffffffffffffffffffffff1673ffffffffffffffffffffffffffffffffffffffff161461190a576040517f08c379a000000000000000000000000000000000000000000000000000000000815260040161190190614f32565b60405180910390fd5b61191d813361191885610b0f565b61284b565b5050565b6000611937826006612c2290919063ffffffff16565b9050919050565b600033905090565b816008600083815260200190815260200160002060006101000a81548173ffffffffffffffffffffffffffffffffffffffff021916908373ffffffffffffffffffffffffffffffffffffffff160217905550808273ffffffffffffffffffffffffffffffffffffffff166119b983610b0f565b73ffffffffffffffffffffffffffffffffffffffff167f8c5be1e5ebec7d5bd14f71427d1e84f3dd0314c0f7b2291e5b200ac8c7c3b92560405160405180910390a45050565b6000611a0d82600001612c3c565b9050919050565b606083838080601f016020809104026020016040519081016040528093929190818152602001838380828437600081840152601f19601f8201169050808301925050505050505090506000600260009054906101000a900473ffffffffffffffffffffffffffffffffffffffff1673ffffffffffffffffffffffffffffffffffffffff16633f6c923a86866040518363ffffffff1660e01b8152600401611abc929190614cdc565b60006040518083038186803b158015611ad457600080fd5b505afa158015611ae8573d6000803e3d6000fd5b505050506040513d6000823e3d601f19601f82011682018060405250810190611b11919061488e565b60a00151806020019051810190611b2891906148f8565b90506000611b3582610b0f565b9050836010600084815260200190815260200160002060006101000a81548173ffffffffffffffffffffffffffffffffffffffff021916908373ffffffffffffffffffffffffffffffffffffffff1602179055506000600360009054906101000a900473ffffffffffffffffffffffffffffffffffffffff1673ffffffffffffffffffffffffffffffffffffffff1663e8e7e2d186306040518363ffffffff1660e01b8152600401611be8929190614dd8565b60206040518083038186803b158015611c0057600080fd5b505afa158015611c14573d6000803e3d6000fd5b505050506040513d601f19601f82011682018060405250810190611c389190614865565b90506000600360009054906101000a900473ffffffffffffffffffffffffffffffffffffffff1673ffffffffffffffffffffffffffffffffffffffff1663e6a1e8888730866040518463ffffffff1660e01b8152600401611c9b93929190614e01565b60806040518083038186803b158015611cb357600080fd5b505afa158015611cc7573d6000803e3d6000fd5b505050506040513d601f19601f82011682018060405250810190611ceb919061495d565b5050915050600081830190506000600b0b81600b0b1415611eae57600260009054906101000a900473ffffffffffffffffffffffffffffffffffffffff1673ffffffffffffffffffffffffffffffffffffffff16634329d293600360009054906101000a900473ffffffffffffffffffffffffffffffffffffffff1663b4b333c660e01b8a3089600067ffffffffffffffff81118015611d8a57600080fd5b506040519080825280601f01601f191660200182016040528015611dbd5781602001600182028036833780820191505090505b50604051602401611dd19493929190614e38565b604051602081830303815290604052907bffffffffffffffffffffffffffffffffffffffffffffffffffffffff19166020820180517bffffffffffffffffffffffffffffffffffffffffffffffffffffffff8381831617835250505050896040518463ffffffff1660e01b8152600401611e4d93929190614d65565b600060405180830381600087803b158015611e6757600080fd5b505af1158015611e7b573d6000803e3d6000fd5b505050506040513d6000823e3d601f19601f82011682018060405250810190611ea4919061466a565b5080965050612209565b6000600b0b82600b0b1461206457600260009054906101000a900473ffffffffffffffffffffffffffffffffffffffff1673ffffffffffffffffffffffffffffffffffffffff16634329d293600360009054906101000a900473ffffffffffffffffffffffffffffffffffffffff166350209a6260e01b8a8886600067ffffffffffffffff81118015611f4057600080fd5b506040519080825280601f01601f191660200182016040528015611f735781602001600182028036833780820191505090505b50604051602401611f879493929190614e84565b604051602081830303815290604052907bffffffffffffffffffffffffffffffffffffffffffffffffffffffff19166020820180517bffffffffffffffffffffffffffffffffffffffffffffffffffffffff8381831617835250505050896040518463ffffffff1660e01b815260040161200393929190614d65565b600060405180830381600087803b15801561201d57600080fd5b505af1158015612031573d6000803e3d6000fd5b505050506040513d6000823e3d601f19601f8201168201806040525081019061205a919061466a565b5080965050612208565b600260009054906101000a900473ffffffffffffffffffffffffffffffffffffffff1673ffffffffffffffffffffffffffffffffffffffff16634329d293600360009054906101000a900473ffffffffffffffffffffffffffffffffffffffff166362fc305e60e01b8a8886600067ffffffffffffffff811180156120e857600080fd5b506040519080825280601f01601f19166020018201604052801561211b5781602001600182028036833780820191505090505b5060405160240161212f9493929190614e84565b604051602081830303815290604052907bffffffffffffffffffffffffffffffffffffffffffffffffffffffff19166020820180517bffffffffffffffffffffffffffffffffffffffffffffffffffffffff8381831617835250505050896040518463ffffffff1660e01b81526004016121ab93929190614d65565b600060405180830381600087803b1580156121c557600080fd5b505af11580156121d9573d6000803e3d6000fd5b505050506040513d6000823e3d601f19601f82011682018060405250810190612202919061466a565b50809650505b5b50505050509392505050565b600061222082611921565b612275576040517f08c379a000000000000000000000000000000000000000000000000000000000815260040180806020018281038252602c815260200180615382602c913960400191505060405180910390fd5b600061228083610b0f565b90508073ffffffffffffffffffffffffffffffffffffffff168473ffffffffffffffffffffffffffffffffffffffff1614806122ef57508373ffffffffffffffffffffffffffffffffffffffff166122d7846106f3565b73ffffffffffffffffffffffffffffffffffffffff16145b8061230057506122ff81856115c5565b5b91505092915050565b8273ffffffffffffffffffffffffffffffffffffffff1661232982610b0f565b73ffffffffffffffffffffffffffffffffffffffff1614612395576040517f08c379a00000000000000000000000000000000000000000000000000000000081526004018080602001828103825260298152602001806154b36029913960400191505060405180910390fd5b600073ffffffffffffffffffffffffffffffffffffffff168273ffffffffffffffffffffffffffffffffffffffff16141561241b576040517f08c379a000000000000000000000000000000000000000000000000000000000815260040180806020018281038252602481526020018061535e6024913960400191505060405180910390fd5b612426838383612c4d565b612431600082611946565b61248281600560008673ffffffffffffffffffffffffffffffffffffffff1673ffffffffffffffffffffffffffffffffffffffff168152602001908152602001600020612c9290919063ffffffff16565b506124d481600560008573ffffffffffffffffffffffffffffffffffffffff1673ffffffffffffffffffffffffffffffffffffffff168152602001908152602001600020612cac90919063ffffffff16565b506124eb81836006612cc69092919063ffffffff16565b50808273ffffffffffffffffffffffffffffffffffffffff168473ffffffffffffffffffffffffffffffffffffffff167fddf252ad1be2c89b69c2b068fc378daa952ba7f163c4a11628f55a4df523b3ef60405160405180910390a4505050565b600061255b8360000183612cfb565b60001c905092915050565b6000806000806125798660000186612d7e565b915091508160001c8160001c9350935050509250929050565b60006125a5846000018460001b84612e17565b60001c90509392505050565b60006125bf82600001612f0d565b9050919050565b6125d1848484612309565b6125dd84848484612f1e565b612632576040517f08c379a00000000000000000000000000000000000000000000000000000000081526004018080602001828103825260328152602001806152d36032913960400191505060405180910390fd5b50505050565b60606000821415612680576040518060400160405280600181526020017f3000000000000000000000000000000000000000000000000000000000000000815250905061277a565b600082905060005b600082146126aa578080600101915050600a82816126a257fe5b049150612688565b60008167ffffffffffffffff811180156126c357600080fd5b506040519080825280601f01601f1916602001820160405280156126f65781602001600182028036833780820191505090505b50905060006001830390508593505b6000841461277257600a848161271757fe5b0660300160f81b8282806001900393508151811061273157fe5b60200101907effffffffffffffffffffffffffffffffffffffffffffffffffffffffffffff1916908160001a905350600a848161276a57fe5b049350612705565b819450505050505b919050565b600081600001549050919050565b6127a7828260405180602001604052806000815250613137565b5050565b6127b482611921565b612809576040517f08c379a000000000000000000000000000000000000000000000000000000000815260040180806020018281038252602c815260200180615487602c913960400191505060405180910390fd5b80600c60008481526020019081526020016000209080519060200190612830929190613f94565b505050565b6001816000016000828254019250508190555050565b6000839050600260009054906101000a900473ffffffffffffffffffffffffffffffffffffffff1673ffffffffffffffffffffffffffffffffffffffff166339255d5b600360009054906101000a900473ffffffffffffffffffffffffffffffffffffffff1663b4b333c660e01b848787600067ffffffffffffffff811180156128d457600080fd5b506040519080825280601f01601f1916602001820160405280156129075781602001600182028036833780820191505090505b50604051602401808573ffffffffffffffffffffffffffffffffffffffff1681526020018473ffffffffffffffffffffffffffffffffffffffff1681526020018373ffffffffffffffffffffffffffffffffffffffff16815260200180602001828103825283818151815260200191508051906020019080838360005b8381101561299f578082015181840152602081019050612984565b50505050905090810190601f1680156129cc5780820380516001836020036101000a031916815260200191505b5095505050505050604051602081830303815290604052907bffffffffffffffffffffffffffffffffffffffffffffffffffffffff19166020820180517bffffffffffffffffffffffffffffffffffffffffffffffffffffffff83818316178352505050506040518363ffffffff1660e01b8152600401808373ffffffffffffffffffffffffffffffffffffffff1681526020018060200180602001838103835284818151815260200191508051906020019080838360005b83811015612aa0578082015181840152602081019050612a85565b50505050905090810190601f168015612acd5780820380516001836020036101000a031916815260200191505b50838103825260028152602001807f3078000000000000000000000000000000000000000000000000000000000000815250602001945050505050600060405180830381600087803b158015612b2257600080fd5b505af1158015612b36573d6000803e3d6000fd5b505050506040513d6000823e3d601f19601f820116820180604052506020811015612b6057600080fd5b8101908080516040519392919084640100000000821115612b8057600080fd5b83820191506020820185811115612b9657600080fd5b8251866001820283011164010000000082111715612bb357600080fd5b8083526020830192505050908051906020019080838360005b83811015612be7578082015181840152602081019050612bcc565b50505050905090810190601f168015612c145780820380516001836020036101000a031916815260200191505b506040525050505050505050565b6000612c34836000018360001b6131a8565b905092915050565b600081600001805490509050919050565b600073ffffffffffffffffffffffffffffffffffffffff168373ffffffffffffffffffffffffffffffffffffffff1614612c8d57612c8c8383836131cb565b5b505050565b6000612ca4836000018360001b6138e1565b905092915050565b6000612cbe836000018360001b6139c9565b905092915050565b6000612cf2846000018460001b8473ffffffffffffffffffffffffffffffffffffffff1660001b613a39565b90509392505050565b600081836000018054905011612d5c576040517f08c379a00000000000000000000000000000000000000000000000000000000081526004018080602001828103825260228152602001806152b16022913960400191505060405180910390fd5b826000018281548110612d6b57fe5b9060005260206000200154905092915050565b60008082846000018054905011612de0576040517f08c379a00000000000000000000000000000000000000000000000000000000081526004018080602001828103825260228152602001806154396022913960400191505060405180910390fd5b6000846000018481548110612df157fe5b906000526020600020906002020190508060000154816001015492509250509250929050565b60008084600101600085815260200190815260200160002054905060008114158390612ede576040517f08c379a00000000000000000000000000000000000000000000000000000000081526004018080602001828103825283818151815260200191508051906020019080838360005b83811015612ea3578082015181840152602081019050612e88565b50505050905090810190601f168015612ed05780820380516001836020036101000a031916815260200191505b509250505060405180910390fd5b50846000016001820381548110612ef157fe5b9060005260206000209060020201600101549150509392505050565b600081600001805490509050919050565b6000612f3f8473ffffffffffffffffffffffffffffffffffffffff16613b15565b612f4c576001905061312f565b60006130b663150b7a0260e01b612f6161193e565b888787604051602401808573ffffffffffffffffffffffffffffffffffffffff1681526020018473ffffffffffffffffffffffffffffffffffffffff16815260200183815260200180602001828103825283818151815260200191508051906020019080838360005b83811015612fe5578082015181840152602081019050612fca565b50505050905090810190601f1680156130125780820380516001836020036101000a031916815260200191505b5095505050505050604051602081830303815290604052907bffffffffffffffffffffffffffffffffffffffffffffffffffffffff19166020820180517bffffffffffffffffffffffffffffffffffffffffffffffffffffffff83818316178352505050506040518060600160405280603281526020016152d3603291398773ffffffffffffffffffffffffffffffffffffffff16613b609092919063ffffffff16565b905060008180602001905160208110156130cf57600080fd5b8101908080519060200190929190505050905063150b7a0260e01b7bffffffffffffffffffffffffffffffffffffffffffffffffffffffff1916817bffffffffffffffffffffffffffffffffffffffffffffffffffffffff191614925050505b949350505050565b6131418383613b78565b61314e6000848484612f1e565b6131a3576040517f08c379a00000000000000000000000000000000000000000000000000000000081526004018080602001828103825260328152602001806152d36032913960400191505060405180910390fd5b505050565b600080836001016000848152602001908152602001600020541415905092915050565b600073ffffffffffffffffffffffffffffffffffffffff168273ffffffffffffffffffffffffffffffffffffffff16141561323b576040517f08c379a000000000000000000000000000000000000000000000000000000000815260040161323290614ef2565b60405180910390fd5b600260009054906101000a900473ffffffffffffffffffffffffffffffffffffffff1673ffffffffffffffffffffffffffffffffffffffff16633ca3ad4e836040518263ffffffff1660e01b81526004016132969190614dbd565b60206040518083038186803b1580156132ae57600080fd5b505afa1580156132c2573d6000803e3d6000fd5b505050506040513d601f19601f820116820180604052508101906132e691906145d7565b15613326576040517f08c379a000000000000000000000000000000000000000000000000000000000815260040161331d90614f12565b60405180910390fd5b61332f81610b0f565b73ffffffffffffffffffffffffffffffffffffffff168273ffffffffffffffffffffffffffffffffffffffff161415613367576138dc565b60006010600083815260200190815260200160002060009054906101000a900473ffffffffffffffffffffffffffffffffffffffff1690506000600360009054906101000a900473ffffffffffffffffffffffffffffffffffffffff1673ffffffffffffffffffffffffffffffffffffffff1663e6a1e8888330886040518463ffffffff1660e01b815260040161340093929190614e01565b60806040518083038186803b15801561341857600080fd5b505afa15801561342c573d6000803e3d6000fd5b505050506040513d601f19601f82011682018060405250810190613450919061495d565b5050915050600081600b0b131561384857600260009054906101000a900473ffffffffffffffffffffffffffffffffffffffff1673ffffffffffffffffffffffffffffffffffffffff166339255d5b600360009054906101000a900473ffffffffffffffffffffffffffffffffffffffff1663b4b333c660e01b85308a600067ffffffffffffffff811180156134e557600080fd5b506040519080825280601f01601f1916602001820160405280156135185781602001600182028036833780820191505090505b5060405160240161352c9493929190614e38565b604051602081830303815290604052907bffffffffffffffffffffffffffffffffffffffffffffffffffffffff19166020820180517bffffffffffffffffffffffffffffffffffffffffffffffffffffffff83818316178352505050506040518363ffffffff1660e01b81526004016135a6929190614d22565b600060405180830381600087803b1580156135c057600080fd5b505af11580156135d4573d6000803e3d6000fd5b505050506040513d6000823e3d601f19601f820116820180604052508101906135fd9190614629565b50600260009054906101000a900473ffffffffffffffffffffffffffffffffffffffff1673ffffffffffffffffffffffffffffffffffffffff166339255d5b600360009054906101000a900473ffffffffffffffffffffffffffffffffffffffff166362fc305e60e01b8588600360009054906101000a900473ffffffffffffffffffffffffffffffffffffffff1673ffffffffffffffffffffffffffffffffffffffff1663e8e7e2d189306040518363ffffffff1660e01b81526004016136c6929190614dd8565b60206040518083038186803b1580156136de57600080fd5b505afa1580156136f2573d6000803e3d6000fd5b505050506040513d601f19601f820116820180604052508101906137169190614865565b600067ffffffffffffffff8111801561372e57600080fd5b506040519080825280601f01601f1916602001820160405280156137615781602001600182028036833780820191505090505b506040516024016137759493929190614e84565b604051602081830303815290604052907bffffffffffffffffffffffffffffffffffffffffffffffffffffffff19166020820180517bffffffffffffffffffffffffffffffffffffffffffffffffffffffff83818316178352505050506040518363ffffffff1660e01b81526004016137ef929190614d22565b600060405180830381600087803b15801561380957600080fd5b505af115801561381d573d6000803e3d6000fd5b505050506040513d6000823e3d601f19601f820116820180604052508101906138469190614629565b505b601160009054906101000a900473ffffffffffffffffffffffffffffffffffffffff1673ffffffffffffffffffffffffffffffffffffffff1663741ca6bb8686866040518463ffffffff1660e01b81526004016138a793929190614c8a565b600060405180830381600087803b1580156138c157600080fd5b505af11580156138d5573d6000803e3d6000fd5b5050505050505b505050565b600080836001016000848152602001908152602001600020549050600081146139bd576000600182039050600060018660000180549050039050600086600001828154811061392c57fe5b906000526020600020015490508087600001848154811061394957fe5b906000526020600020018190555060018301876001016000838152602001908152602001600020819055508660000180548061398157fe5b600190038181906000526020600020016000905590558660010160008781526020019081526020016000206000905560019450505050506139c3565b60009150505b92915050565b60006139d58383613d6c565b613a2e578260000182908060018154018082558091505060019003906000526020600020016000909190919091505582600001805490508360010160008481526020019081526020016000208190555060019050613a33565b600090505b92915050565b6000808460010160008581526020019081526020016000205490506000811415613ae057846000016040518060400160405280868152602001858152509080600181540180825580915050600190039060005260206000209060020201600090919091909150600082015181600001556020820151816001015550508460000180549050856001016000868152602001908152602001600020819055506001915050613b0e565b82856000016001830381548110613af357fe5b90600052602060002090600202016001018190555060009150505b9392505050565b60008060007fc5d2460186f7233c927e7db2dcc703c0e500b653ca82273b7bfad8045d85a47060001b9050833f9150808214158015613b5757506000801b8214155b92505050919050565b6060613b6f8484600085613d8f565b90509392505050565b600073ffffffffffffffffffffffffffffffffffffffff168273ffffffffffffffffffffffffffffffffffffffff161415613c1b576040517f08c379a00000000000000000000000000000000000000000000000000000000081526004018080602001828103825260208152602001807f4552433732313a206d696e7420746f20746865207a65726f206164647265737381525060200191505060405180910390fd5b613c2481611921565b15613c97576040517f08c379a000000000000000000000000000000000000000000000000000000000815260040180806020018281038252601c8152602001807f4552433732313a20746f6b656e20616c7265616479206d696e7465640000000081525060200191505060405180910390fd5b613ca360008383612c4d565b613cf481600560008573ffffffffffffffffffffffffffffffffffffffff1673ffffffffffffffffffffffffffffffffffffffff168152602001908152602001600020612cac90919063ffffffff16565b50613d0b81836006612cc69092919063ffffffff16565b50808273ffffffffffffffffffffffffffffffffffffffff16600073ffffffffffffffffffffffffffffffffffffffff167fddf252ad1be2c89b69c2b068fc378daa952ba7f163c4a11628f55a4df523b3ef60405160405180910390a45050565b600080836001016000848152602001908152602001600020541415905092915050565b6060613d9a85613b15565b613e0c576040517f08c379a000000000000000000000000000000000000000000000000000000000815260040180806020018281038252601d8152602001807f416464726573733a2063616c6c20746f206e6f6e2d636f6e747261637400000081525060200191505060405180910390fd5b6000808673ffffffffffffffffffffffffffffffffffffffff1685876040518082805190602001908083835b60208310613e5b5780518252602082019150602081019050602083039250613e38565b6001836020036101000a03801982511681845116808217855250505050505090500191505060006040518083038185875af1925050503d8060008114613ebd576040519150601f19603f3d011682016040523d82523d6000602084013e613ec2565b606091505b50915091508115613ed7578092505050613f8c565b600081511115613eea5780518082602001fd5b836040517f08c379a00000000000000000000000000000000000000000000000000000000081526004018080602001828103825283818151815260200191508051906020019080838360005b83811015613f51578082015181840152602081019050613f36565b50505050905090810190601f168015613f7e5780820380516001836020036101000a031916815260200191505b509250505060405180910390fd5b949350505050565b828054600181600116156101000203166002900490600052602060002090601f016020900481019282613fca5760008555614011565b82601f10613fe357805160ff1916838001178555614011565b82800160010185558215614011579182015b82811115614010578251825591602001919060010190613ff5565b5b50905061401e9190614022565b5090565b5b8082111561403b576000816000905550600101614023565b5090565b600061405261404d84614f9e565b614f6d565b90508281526020810184848401111561406a57600080fd5b61407584828561518c565b509392505050565b600061409061408b84614f9e565b614f6d565b9050828152602081018484840111156140a857600080fd5b6140b384828561519b565b509392505050565b60006140ce6140c984614fce565b614f6d565b9050828152602081018484840111156140e657600080fd5b6140f184828561518c565b509392505050565b600081359050614108816151e1565b92915050565b60008151905061411d816151e1565b92915050565b600081359050614132816151f8565b92915050565b600081519050614147816151f8565b92915050565b60008135905061415c8161520f565b92915050565b60008135905061417181615226565b92915050565b60008151905061418681615226565b92915050565b60008083601f84011261419e57600080fd5b8235905067ffffffffffffffff8111156141b757600080fd5b6020830191508360018202830111156141cf57600080fd5b9250929050565b600082601f8301126141e757600080fd5b81356141f784826020860161403f565b91505092915050565b600082601f83011261421157600080fd5b815161422184826020860161407d565b91505092915050565b6000813590506142398161523d565b92915050565b60008151905061424e81615254565b92915050565b6000815190506142638161526b565b92915050565b600082601f83011261427a57600080fd5b813561428a8482602086016140bb565b91505092915050565b600061014082840312156142a657600080fd5b6142b1610140614f6d565b905060006142c1848285016143c7565b60008301525060206142d5848285016143c7565b60208301525060406142e9848285016143b2565b60408301525060606142fd8482850161410e565b606083015250608061431184828501614177565b60808301525060a082015167ffffffffffffffff81111561433157600080fd5b61433d84828501614200565b60a08301525060c0614351848285016143b2565b60c08301525060e0614365848285016143b2565b60e08301525061010061437a8482850161423f565b610100830152506101206143908482850161410e565b6101208301525092915050565b6000813590506143ac81615282565b92915050565b6000815190506143c181615282565b92915050565b6000815190506143d681615299565b92915050565b6000602082840312156143ee57600080fd5b60006143fc848285016140f9565b91505092915050565b6000806040838503121561441857600080fd5b6000614426858286016140f9565b9250506020614437858286016140f9565b9150509250929050565b60008060006060848603121561445657600080fd5b6000614464868287016140f9565b9350506020614475868287016140f9565b92505060406144868682870161439d565b9150509250925092565b600080600080608085870312156144a657600080fd5b60006144b4878288016140f9565b94505060206144c5878288016140f9565b93505060406144d68782880161439d565b925050606085013567ffffffffffffffff8111156144f357600080fd5b6144ff878288016141d6565b91505092959194509250565b6000806040838503121561451e57600080fd5b600061452c858286016140f9565b925050602061453d85828601614123565b9150509250929050565b6000806040838503121561455a57600080fd5b6000614568858286016140f9565b925050602083013567ffffffffffffffff81111561458557600080fd5b61459185828601614269565b9150509250929050565b600080604083850312156145ae57600080fd5b60006145bc858286016140f9565b92505060206145cd8582860161439d565b9150509250929050565b6000602082840312156145e957600080fd5b60006145f784828501614138565b91505092915050565b60006020828403121561461257600080fd5b600061462084828501614162565b91505092915050565b60006020828403121561463b57600080fd5b600082015167ffffffffffffffff81111561465557600080fd5b61466184828501614200565b91505092915050565b6000806040838503121561467d57600080fd5b600083015167ffffffffffffffff81111561469757600080fd5b6146a385828601614200565b925050602083015167ffffffffffffffff8111156146c057600080fd5b6146cc85828601614200565b9150509250929050565b600080600080600080600060a0888a0312156146f157600080fd5b60006146ff8a828b0161422a565b97505060206147108a828b016140f9565b96505060406147218a828b0161414d565b955050606088013567ffffffffffffffff81111561473e57600080fd5b61474a8a828b0161418c565b9450945050608088013567ffffffffffffffff81111561476957600080fd5b6147758a828b0161418c565b925092505092959891949750929550565b600080600080600080600080600060c08a8c0312156147a457600080fd5b60006147b28c828d0161422a565b99505060206147c38c828d016140f9565b98505060406147d48c828d0161414d565b97505060608a013567ffffffffffffffff8111156147f157600080fd5b6147fd8c828d0161418c565b965096505060808a013567ffffffffffffffff81111561481c57600080fd5b6148288c828d0161418c565b945094505060a08a013567ffffffffffffffff81111561484757600080fd5b6148538c828d0161418c565b92509250509295985092959850929598565b60006020828403121561487757600080fd5b600061488584828501614254565b91505092915050565b6000602082840312156148a057600080fd5b600082015167ffffffffffffffff8111156148ba57600080fd5b6148c684828501614293565b91505092915050565b6000602082840312156148e157600080fd5b60006148ef8482850161439d565b91505092915050565b60006020828403121561490a57600080fd5b6000614918848285016143b2565b91505092915050565b6000806040838503121561493457600080fd5b60006149428582860161439d565b9250506020614953858286016140f9565b9150509250929050565b6000806000806080858703121561497357600080fd5b6000614981878288016143b2565b945050602061499287828801614254565b93505060406149a3878288016143b2565b92505060606149b4878288016143b2565b91505092959194509250565b6149c9816150ea565b82525050565b6149d881615036565b82525050565b6149e781615048565b82525050565b60006149f98385615014565b9350614a0683858461518c565b614a0f836151d0565b840190509392505050565b6000614a2582614ffe565b614a2f8185615014565b9350614a3f81856020860161519b565b614a48816151d0565b840191505092915050565b614a5c816150fc565b82525050565b614a6b81615120565b82525050565b614a7a81615144565b82525050565b614a89816150a6565b82525050565b6000614a9a82615009565b614aa48185615025565b9350614ab481856020860161519b565b614abd816151d0565b840191505092915050565b6000614ad5600283615014565b91507f30780000000000000000000000000000000000000000000000000000000000006000830152602082019050919050565b6000614b15601c83615025565b91507f4e6577207265636569766572206973207a65726f2061646472657373000000006000830152602082019050919050565b6000614b55602283615025565b91507f4e65772072656365697665722063616e206e6f7420626520612073757065724160008301527f70700000000000000000000000000000000000000000000000000000000000006020830152604082019050919050565b6000614bbb603083615025565b91507f4f6e6c79207468652063726561746f72206f6620746865204e465420636f756c60008301527f642073746f702074686520666c6f7720000000000000000000000000000000006020830152604082019050919050565b614c1d816150d3565b82525050565b6000602082019050614c3860008301846149cf565b92915050565b6000608082019050614c5360008301876149c0565b614c6060208301866149cf565b614c6d6040830185614c14565b8181036060830152614c7f8184614a8f565b905095945050505050565b6000606082019050614c9f60008301866149cf565b614cac60208301856149cf565b614cb96040830184614c14565b949350505050565b6000602082019050614cd660008301846149de565b92915050565b60006020820190508181036000830152614cf78184866149ed565b90509392505050565b60006020820190508181036000830152614d1a8184614a1a565b905092915050565b6000606082019050614d376000830185614a53565b8181036020830152614d498184614a1a565b90508181036040830152614d5c81614ac8565b90509392505050565b6000608082019050614d7a6000830186614a53565b8181036020830152614d8c8185614a1a565b90508181036040830152614d9f81614ac8565b90508181036060830152614db38184614a1a565b9050949350505050565b6000602082019050614dd26000830184614a62565b92915050565b6000604082019050614ded6000830185614a71565b614dfa60208301846149cf565b9392505050565b6000606082019050614e166000830186614a71565b614e2360208301856149cf565b614e3060408301846149cf565b949350505050565b6000608082019050614e4d6000830187614a71565b614e5a60208301866149cf565b614e6760408301856149cf565b8181036060830152614e798184614a1a565b905095945050505050565b6000608082019050614e996000830187614a71565b614ea660208301866149cf565b614eb36040830185614a80565b8181036060830152614ec58184614a1a565b905095945050505050565b60006020820190508181036000830152614eea8184614a8f565b905092915050565b60006020820190508181036000830152614f0b81614b08565b9050919050565b60006020820190508181036000830152614f2b81614b48565b9050919050565b60006020820190508181036000830152614f4b81614bae565b9050919050565b6000602082019050614f676000830184614c14565b92915050565b6000604051905081810181811067ffffffffffffffff82111715614f9457614f936151ce565b5b8060405250919050565b600067ffffffffffffffff821115614fb957614fb86151ce565b5b601f19601f8301169050602081019050919050565b600067ffffffffffffffff821115614fe957614fe86151ce565b5b601f19601f8301169050602081019050919050565b600081519050919050565b600081519050919050565b600082825260208201905092915050565b600082825260208201905092915050565b6000615041826150b3565b9050919050565b60008115159050919050565b6000819050919050565b60007fffffffff0000000000000000000000000000000000000000000000000000000082169050919050565b600061509582615036565b9050919050565b6000819050919050565b600081600b0b9050919050565b600073ffffffffffffffffffffffffffffffffffffffff82169050919050565b6000819050919050565b600060ff82169050919050565b60006150f582615168565b9050919050565b60006151078261510e565b9050919050565b6000615119826150b3565b9050919050565b600061512b82615132565b9050919050565b600061513d826150b3565b9050919050565b600061514f82615156565b9050919050565b6000615161826150b3565b9050919050565b60006151738261517a565b9050919050565b6000615185826150b3565b9050919050565b82818337600083830152505050565b60005b838110156151b957808201518184015260208101905061519e565b838111156151c8576000848401525b50505050565bfe5b6000601f19601f8301169050919050565b6151ea81615036565b81146151f557600080fd5b50565b61520181615048565b811461520c57600080fd5b50565b61521881615054565b811461522357600080fd5b50565b61522f8161505e565b811461523a57600080fd5b50565b6152468161508a565b811461525157600080fd5b50565b61525d8161509c565b811461526857600080fd5b50565b615274816150a6565b811461527f57600080fd5b50565b61528b816150d3565b811461529657600080fd5b50565b6152a2816150dd565b81146152ad57600080fd5b5056fe456e756d657261626c655365743a20696e646578206f7574206f6620626f756e64734552433732313a207472616e7366657220746f206e6f6e20455243373231526563656976657220696d706c656d656e7465724f776e61626c653a206e6577206f776e657220697320746865207a65726f2061646472657373556e737570706f727465642063616c6c6261636b202d20204265666f72652041677265656d656e74205465726d696e617465644552433732313a207472616e7366657220746f20746865207a65726f20616464726573734552433732313a206f70657261746f7220717565727920666f72206e6f6e6578697374656e7420746f6b656e4552433732313a20617070726f76652063616c6c6572206973206e6f74206f776e6572206e6f7220617070726f76656420666f7220616c6c4552433732313a2062616c616e636520717565727920666f7220746865207a65726f20616464726573734552433732313a206f776e657220717565727920666f72206e6f6e6578697374656e7420746f6b656e456e756d657261626c654d61703a20696e646578206f7574206f6620626f756e64734552433732313a20617070726f76656420717565727920666f72206e6f6e6578697374656e7420746f6b656e4552433732314d657461646174613a2055524920736574206f66206e6f6e6578697374656e7420746f6b656e4552433732313a207472616e73666572206f6620746f6b656e2074686174206973206e6f74206f776e4552433732314d657461646174613a2055524920717565727920666f72206e6f6e6578697374656e7420746f6b656e4552433732313a20617070726f76616c20746f2063757272656e74206f776e6572556e737570706f727465642063616c6c6261636b202d204265666f72652041677265656d656e7420757064617465644552433732313a207472616e736665722063616c6c6572206973206e6f74206f776e6572206e6f7220617070726f766564556e737570706f727465642063616c6c6261636b202d204265666f72652041677265656d656e742043726561746564a264697066735822122055a5efe31272b154972f27bb3274b6ce94bcbac3e5f3a8bdb194b125bfa6cb0c64736f6c63430007060033",
  "immutableReferences": {},
  "source": "// SPDX-License-Identifier: MIT\npragma solidity ^0.7.0;\npragma abicoder v2;\n\nimport \"@openzeppelin/contracts/token/ERC721/ERC721.sol\";\nimport \"@openzeppelin/contracts/access/Ownable.sol\";\nimport \"@openzeppelin/contracts/utils/Counters.sol\";\nimport \"./ManageFlows.sol\";\nimport \"./Emitter.sol\";\n\n//How do we add a flow before it is transferred to someone or the flow starts as soon as it is transferred to someone\ncontract SocialStreamableNFT is ManageFlows,ERC721, Ownable {\n    using Counters for Counters.Counter;\n    mapping (uint256=>address) _nftCreator;\n    mapping (uint256=>address) _nftToken;\n\n    Emitter _emitter;\n\n    Counters.Counter private _tokenIdCounter;\n\n    constructor(ISuperfluid host,\n        IConstantFlowAgreementV1 cfa,address emitterAdd) ERC721(\"SocialStreamableNFT\", \"SSSNFT\") ManageFlows(host,cfa) {\n            _emitter=Emitter(emitterAdd);\n        }\n\n    function safeMint(address to,string memory tokenURI) public {\n        _safeMint(to, _tokenIdCounter.current());\n        _setTokenURI(_tokenIdCounter.current(), tokenURI);\n        _nftCreator[_tokenIdCounter.current()] = msg.sender;\n        _emitter.minted(msg.sender,to,_tokenIdCounter.current(),tokenURI);\n        _tokenIdCounter.increment();\n    }\n\n    function _burn(uint256 tokenId) internal override(ERC721) {\n        super._burn(tokenId);\n    }\n\n    // function createFlow(uint256 tokenId,address token,int96 flowRate) external {\n    //     require(ownerOf(tokenId)!=msg.sender,\"Flow could be created only after the NFT is bought by someone else\");\n    //     CreateFlow(token, ownerOf(tokenId), flowRate);\n    // }\n\n    function stopFlow(uint256 tokenId,address token) external {\n        require(_nftCreator[tokenId]==msg.sender,\"Only the creator of the NFT could stop the flow \");\n        StopFlow(token, msg.sender, ownerOf(tokenId));\n    }\n\n    function _beforeTokenTransfer(\n        address from,\n        address to,\n        uint256 tokenId\n    ) internal override {\n        \n        if(from!=address(0)){//When it is minted the address is set to zero, we don't need to change receiver in this case\n            _changeReceiver(from,to,tokenId);\n        }\n    }\n\n    function _updateOutflow(bytes calldata ctx,ISuperToken _acceptedToken)\n        private\n        returns (bytes memory newCtx)\n    {\n      newCtx = ctx;\n      //(std.itemsOrdered,std.units) = abi.decode(_host.decodeCtx(ctx).userData, (uint[3], uint[3]));\n      uint256 tokId = abi.decode(_host.decodeCtx(ctx).userData, (uint256));//Solidity\n      address _receiver = ownerOf(tokId);//TODO: How to make this generalized? Will have to decode the context data to get the tokenID\n      _nftToken[tokId] = address(_acceptedToken);\n      // @dev This will give me the new flowRate, as it is called in after callbacks\n      int96 netFlowRate = _cfa.getNetFlow(_acceptedToken, address(this));\n      (,int96 outFlowRate,,) = _cfa.getFlow(_acceptedToken, address(this), _receiver); // CHECK: unclear what happens if flow doesn't exist.\n      int96 inFlowRate = netFlowRate + outFlowRate;\n\n      // @dev If inFlowRate === 0, then delete existing flow.\n      if (inFlowRate == int96(0)) {\n        // @dev if inFlowRate is zero, delete outflow.\n          (newCtx, ) = _host.callAgreementWithContext(\n              _cfa,\n              abi.encodeWithSelector(\n                  _cfa.deleteFlow.selector,\n                  _acceptedToken,\n                  address(this),\n                  _receiver,\n                  new bytes(0) // placeholder\n              ),\n              \"0x\",\n              newCtx\n          );\n        } else if (outFlowRate != int96(0)){\n        (newCtx, ) = _host.callAgreementWithContext(\n            _cfa,\n            abi.encodeWithSelector(\n                _cfa.updateFlow.selector,\n                _acceptedToken,\n                _receiver,\n                inFlowRate,\n                new bytes(0) // placeholder\n            ),\n            \"0x\",\n            newCtx\n        );\n      } else {\n      // @dev If there is no existing outflow, then create new flow to equal inflow\n          (newCtx, ) = _host.callAgreementWithContext(\n              _cfa,\n              abi.encodeWithSelector(\n                  _cfa.createFlow.selector,\n                  _acceptedToken,\n                  _receiver,\n                  inFlowRate,\n                  new bytes(0) // placeholder\n              ),\n              \"0x\",\n              newCtx\n          );\n      }\n    }\n\n    // @dev Change the Receiver of the total flow\n    function _changeReceiver( address from,\n        address newReceiver,\n        uint256 tokenId ) internal {\n        require(newReceiver != address(0), \"New receiver is zero address\");\n        // @dev because our app is registered as final, we can't take downstream apps\n        require(!_host.isApp(ISuperApp(newReceiver)), \"New receiver can not be a superApp\");\n        if (newReceiver == ownerOf(tokenId)) return ;\n        // @dev delete flow to old receiver\n        ISuperToken _acceptedToken = ISuperToken(_nftToken[tokenId]);\n        (,int96 outFlowRate,,) = _cfa.getFlow(_acceptedToken, address(this), from); //CHECK: unclear what happens if flow doesn't exist.\n        if(outFlowRate > 0){\n          _host.callAgreement(\n              _cfa,\n              abi.encodeWithSelector(\n                  _cfa.deleteFlow.selector,\n                  _acceptedToken,\n                  address(this),\n                  from,\n                  new bytes(0)\n              ),\n              \"0x\"\n          );\n          // @dev create flow to new receiver\n          _host.callAgreement(\n              _cfa,\n              abi.encodeWithSelector(\n                  _cfa.createFlow.selector,\n                  _acceptedToken,\n                  newReceiver,\n                  _cfa.getNetFlow(_acceptedToken, address(this)),\n                  new bytes(0)\n              ),\n              \"0x\"\n          );\n        }\n        // @dev set global receiver to new receiver\n        _emitter.nftTransferred(from,newReceiver,tokenId);\n        // emit ReceiverChanged(_receiver);\n    }\n\n    /**************************************************************************\n     * Superapp Callbacks\n     *************************************************************************/\n\n    // function beforeAgreementCreated(\n    //     ISuperToken superToken,\n    //     address agreementClass,\n    //     bytes32 agreementId,\n    //     bytes calldata agreementData,\n    //     bytes calldata ctx\n    // )\n    //     external\n    //     view\n    //     returns (bytes memory cbdata){\n\n    // }\n    \n    function afterAgreementCreated(\n        ISuperToken superToken,\n        address agreementClass,\n        bytes32 agreementId,\n        bytes calldata agreementData,\n        bytes calldata cbdata,\n        bytes calldata ctx\n    )\n    external override\n    returns (bytes memory newCtx){\n        return _updateOutflow(ctx,superToken);\n    }\n    \n    function afterAgreementUpdated(\n        ISuperToken superToken,\n        address agreementClass,\n        bytes32 agreementId,\n        bytes calldata agreementData,\n        bytes calldata cbdata,\n        bytes calldata ctx\n    )\n        external override\n        returns (bytes memory newCtx){\n            return _updateOutflow(ctx,superToken);\n            // return newCtx;\n        }\n    \n    function afterAgreementTerminated(\n        ISuperToken superToken,\n        address agreementClass,\n        bytes32 agreementId,\n        bytes calldata agreementData,\n        bytes calldata cbdata,\n        bytes calldata ctx\n    )\n        external override\n        returns (bytes memory newCtx){\n            newCtx=ctx;\n            return newCtx;\n        }\n}\n",
  "sourcePath": "/Users/praffulsahu/Documents/Crypto/StreamSocialToken/contracts/SocialStreamableNFT.sol",
  "compiler": {
    "name": "solc",
    "version": "0.7.6+commit.7338295f.Emscripten.clang"
  },
  "schemaVersion": "3.3.3",
  "updatedAt": "2021-07-21T18:03:10.154Z",
  "devdoc": {
    "kind": "dev",
    "methods": {
      "approve(address,uint256)": {
        "details": "See {IERC721-approve}."
      },
      "balanceOf(address)": {
        "details": "See {IERC721-balanceOf}."
      },
      "baseURI()": {
        "details": "Returns the base URI set via {_setBaseURI}. This will be automatically added as a prefix in {tokenURI} to each token's URI, or to the token ID if no specific URI is set for that token ID."
      },
      "getApproved(uint256)": {
        "details": "See {IERC721-getApproved}."
      },
      "isApprovedForAll(address,address)": {
        "details": "See {IERC721-isApprovedForAll}."
      },
      "name()": {
        "details": "See {IERC721Metadata-name}."
      },
      "owner()": {
        "details": "Returns the address of the current owner."
      },
      "ownerOf(uint256)": {
        "details": "See {IERC721-ownerOf}."
      },
      "renounceOwnership()": {
        "details": "Leaves the contract without owner. It will not be possible to call `onlyOwner` functions anymore. Can only be called by the current owner. NOTE: Renouncing ownership will leave the contract without an owner, thereby removing any functionality that is only available to the owner."
      },
      "safeTransferFrom(address,address,uint256)": {
        "details": "See {IERC721-safeTransferFrom}."
      },
      "safeTransferFrom(address,address,uint256,bytes)": {
        "details": "See {IERC721-safeTransferFrom}."
      },
      "setApprovalForAll(address,bool)": {
        "details": "See {IERC721-setApprovalForAll}."
      },
      "supportsInterface(bytes4)": {
        "details": "See {IERC165-supportsInterface}. Time complexity O(1), guaranteed to always use less than 30 000 gas."
      },
      "symbol()": {
        "details": "See {IERC721Metadata-symbol}."
      },
      "tokenByIndex(uint256)": {
        "details": "See {IERC721Enumerable-tokenByIndex}."
      },
      "tokenOfOwnerByIndex(address,uint256)": {
        "details": "See {IERC721Enumerable-tokenOfOwnerByIndex}."
      },
      "tokenURI(uint256)": {
        "details": "See {IERC721Metadata-tokenURI}."
      },
      "totalSupply()": {
        "details": "See {IERC721Enumerable-totalSupply}."
      },
      "transferFrom(address,address,uint256)": {
        "details": "See {IERC721-transferFrom}."
      },
      "transferOwnership(address)": {
        "details": "Transfers ownership of the contract to a new account (`newOwner`). Can only be called by the current owner."
      }
    },
    "version": 1
  },
  "userdoc": {
    "kind": "user",
    "methods": {},
    "version": 1
  }
}