{
  "contractName": "UUPSProxy",
  "abi": [
    {
      "stateMutability": "payable",
      "type": "fallback"
    },
    {
      "stateMutability": "payable",
      "type": "receive"
    },
    {
      "inputs": [
        {
          "internalType": "address",
          "name": "initialAddress",
          "type": "address"
        }
      ],
      "name": "initializeProxy",
      "outputs": [],
      "stateMutability": "nonpayable",
      "type": "function"
    }
  ],
  "bytecode": "0x608060405234801561001057600080fd5b506102ba806100206000396000f3fe6080604052600436106100225760003560e01c80634a0687ef1461003b57610031565b366100315761002f61008c565b005b61003961008c565b005b34801561004757600080fd5b5061008a6004803603602081101561005e57600080fd5b81019080803573ffffffffffffffffffffffffffffffffffffffff1690602001909291905050506100a6565b005b6100946101fe565b6100a461009f610200565b61020f565b565b600073ffffffffffffffffffffffffffffffffffffffff168173ffffffffffffffffffffffffffffffffffffffff161415610149576040517f08c379a00000000000000000000000000000000000000000000000000000000081526004018080602001828103825260178152602001807f5555505350726f78793a207a65726f206164647265737300000000000000000081525060200191505060405180910390fd5b600073ffffffffffffffffffffffffffffffffffffffff16610169610235565b73ffffffffffffffffffffffffffffffffffffffff16146101f2576040517f08c379a000000000000000000000000000000000000000000000000000000000815260040180806020018281038252601e8152602001807f5555505350726f78793a20616c726561647920696e697469616c697a6564000081525060200191505060405180910390fd5b6101fb8161025e565b50565b565b600061020a610235565b905090565b3660008037600080366000845af43d6000803e8060008114610230573d6000f35b3d6000fd5b60007f360894a13ba1a3210667c828492db98dca3e2076cc3735a920a3ca505d382bbc54905090565b807f360894a13ba1a3210667c828492db98dca3e2076cc3735a920a3ca505d382bbc555056fea264697066735822122005caa01226139be1cb3bee86cb835261a23e53e150ead1a8baa0cf1ea1fb526864736f6c63430007060033",
  "immutableReferences": {},
  "source": "// SPDX-License-Identifier: AGPLv3\npragma solidity 0.7.6;\n\nimport { UUPSUtils } from \"./UUPSUtils.sol\";\nimport { Proxy } from \"@openzeppelin/contracts/proxy/Proxy.sol\";\n\n\n/**\n * @dev UUPS (Universal Upgradeable Proxy Standard) Proxy\n *\n * NOTE:\n * - Compliant with [Universal Upgradeable Proxy Standard](https://eips.ethereum.org/EIPS/eip-1822)\n * - Compiiant with [Standard Proxy Storage Slots](https://eips.ethereum.org/EIPS/eip-1967)\n * - Implements delegation of calls to other contracts, with proper forwarding of\n *   return values and bubbling of failures.\n * - It defines a fallback function that delegates all calls to the implementation.\n */\ncontract UUPSProxy is Proxy {\n\n    /**\n     * @dev Proxy initialization function.\n     *      This should only be called once and it is permission-less.\n     * @param initialAddress Initial logic contract code address to be used.\n     */\n    function initializeProxy(address initialAddress) external {\n        require(initialAddress != address(0), \"UUPSProxy: zero address\");\n        require(UUPSUtils.implementation() == address(0), \"UUPSProxy: already initialized\");\n        UUPSUtils.setImplementation(initialAddress);\n    }\n\n    /// @dev Proxy._implementation implementation\n    function _implementation() internal virtual override view returns (address)\n    {\n        return UUPSUtils.implementation();\n    }\n\n}\n",
  "sourcePath": "@superfluid-finance/ethereum-contracts/contracts/upgradability/UUPSProxy.sol",
  "compiler": {
    "name": "solc",
    "version": "0.7.6+commit.7338295f.Emscripten.clang"
  },
  "schemaVersion": "3.3.3",
  "updatedAt": "2021-07-08T12:51:37.511Z",
  "devdoc": {
    "details": "UUPS (Universal Upgradeable Proxy Standard) Proxy NOTE: - Compliant with [Universal Upgradeable Proxy Standard](https://eips.ethereum.org/EIPS/eip-1822) - Compiiant with [Standard Proxy Storage Slots](https://eips.ethereum.org/EIPS/eip-1967) - Implements delegation of calls to other contracts, with proper forwarding of   return values and bubbling of failures. - It defines a fallback function that delegates all calls to the implementation.",
    "kind": "dev",
    "methods": {
      "initializeProxy(address)": {
        "details": "Proxy initialization function.      This should only be called once and it is permission-less.",
        "params": {
          "initialAddress": "Initial logic contract code address to be used."
        }
      }
    },
    "version": 1
  },
  "userdoc": {
    "kind": "user",
    "methods": {},
    "version": 1
  }
}